{
	"contracts/MutilTransferDemo.sol": {
		"MutilTransfer": {
			"abi": [
				{
					"anonymous": false,
					"inputs": [
						{
							"indexed": true,
							"internalType": "address",
							"name": "previousOwner",
							"type": "address"
						},
						{
							"indexed": true,
							"internalType": "address",
							"name": "newOwner",
							"type": "address"
						}
					],
					"name": "OwnershipTransferred",
					"type": "event"
				},
				{
					"inputs": [],
					"name": "fee",
					"outputs": [
						{
							"internalType": "uint256",
							"name": "",
							"type": "uint256"
						}
					],
					"stateMutability": "view",
					"type": "function"
				},
				{
					"inputs": [],
					"name": "owner",
					"outputs": [
						{
							"internalType": "address",
							"name": "",
							"type": "address"
						}
					],
					"stateMutability": "view",
					"type": "function"
				},
				{
					"inputs": [],
					"name": "renounceOwnership",
					"outputs": [],
					"stateMutability": "nonpayable",
					"type": "function"
				},
				{
					"inputs": [
						{
							"internalType": "uint256",
							"name": "_fee",
							"type": "uint256"
						}
					],
					"name": "setFee",
					"outputs": [],
					"stateMutability": "nonpayable",
					"type": "function"
				},
				{
					"inputs": [
						{
							"internalType": "address payable[]",
							"name": "to",
							"type": "address[]"
						},
						{
							"internalType": "uint256",
							"name": "amount",
							"type": "uint256"
						}
					],
					"name": "transferETH",
					"outputs": [],
					"stateMutability": "payable",
					"type": "function"
				},
				{
					"inputs": [
						{
							"internalType": "address payable[]",
							"name": "to",
							"type": "address[]"
						},
						{
							"internalType": "uint256[]",
							"name": "amount",
							"type": "uint256[]"
						}
					],
					"name": "transferMultiETH",
					"outputs": [],
					"stateMutability": "payable",
					"type": "function"
				},
				{
					"inputs": [
						{
							"internalType": "address",
							"name": "_token",
							"type": "address"
						},
						{
							"internalType": "address[]",
							"name": "to",
							"type": "address[]"
						},
						{
							"internalType": "uint256[]",
							"name": "amount",
							"type": "uint256[]"
						}
					],
					"name": "transferMultiToken",
					"outputs": [],
					"stateMutability": "payable",
					"type": "function"
				},
				{
					"inputs": [
						{
							"internalType": "address",
							"name": "newOwner",
							"type": "address"
						}
					],
					"name": "transferOwnership",
					"outputs": [],
					"stateMutability": "nonpayable",
					"type": "function"
				},
				{
					"inputs": [
						{
							"internalType": "address",
							"name": "_token",
							"type": "address"
						},
						{
							"internalType": "address[]",
							"name": "to",
							"type": "address[]"
						},
						{
							"internalType": "uint256",
							"name": "amount",
							"type": "uint256"
						}
					],
					"name": "transferToken",
					"outputs": [],
					"stateMutability": "payable",
					"type": "function"
				}
			],
			"devdoc": {
				"kind": "dev",
				"methods": {},
				"version": 1
			},
			"evm": {
				"assembly": "    /* \"contracts/MutilTransferDemo.sol\":9828:11951  contract MutilTransfer is Ownable {... */\n  mstore(0x40, 0x80)\n    /* \"contracts/MutilTransferDemo.sol\":9953:9954  0 */\n  0x00\n    /* \"contracts/MutilTransferDemo.sol\":9932:9954  uint256 public fee = 0 */\n  0x01\n  sstore\n    /* \"contracts/MutilTransferDemo.sol\":9828:11951  contract MutilTransfer is Ownable {... */\n  callvalue\n  dup1\n  iszero\n  tag_1\n  jumpi\n  0x00\n  dup1\n  revert\ntag_1:\n  pop\n    /* \"contracts/MutilTransferDemo.sol\":7529:7561  _transferOwnership(_msgSender()) */\n  tag_4\n    /* \"contracts/MutilTransferDemo.sol\":7548:7560  _msgSender() */\n  tag_5\n    /* \"contracts/MutilTransferDemo.sol\":7548:7558  _msgSender */\n  shl(0x20, tag_6)\n    /* \"contracts/MutilTransferDemo.sol\":7548:7560  _msgSender() */\n  0x20\n  shr\n  jump\t// in\ntag_5:\n    /* \"contracts/MutilTransferDemo.sol\":7529:7547  _transferOwnership */\n  shl(0x20, tag_7)\n    /* \"contracts/MutilTransferDemo.sol\":7529:7561  _transferOwnership(_msgSender()) */\n  0x20\n  shr\n  jump\t// in\ntag_4:\n    /* \"contracts/MutilTransferDemo.sol\":9828:11951  contract MutilTransfer is Ownable {... */\n  jump(tag_8)\n    /* \"contracts/MutilTransferDemo.sol\":7116:7212  function _msgSender() internal view virtual returns (address) {... */\ntag_6:\n    /* \"contracts/MutilTransferDemo.sol\":7169:7176  address */\n  0x00\n    /* \"contracts/MutilTransferDemo.sol\":7195:7205  msg.sender */\n  caller\n    /* \"contracts/MutilTransferDemo.sol\":7188:7205  return msg.sender */\n  swap1\n  pop\n    /* \"contracts/MutilTransferDemo.sol\":7116:7212  function _msgSender() internal view virtual returns (address) {... */\n  swap1\n  jump\t// out\n    /* \"contracts/MutilTransferDemo.sol\":8133:8320  function _transferOwnership(address newOwner) internal virtual {... */\ntag_7:\n    /* \"contracts/MutilTransferDemo.sol\":8206:8222  address oldOwner */\n  0x00\n    /* \"contracts/MutilTransferDemo.sol\":8225:8231  _owner */\n  dup1\n  0x00\n  swap1\n  sload\n  swap1\n  0x0100\n  exp\n  swap1\n  div\n  0xffffffffffffffffffffffffffffffffffffffff\n  and\n    /* \"contracts/MutilTransferDemo.sol\":8206:8231  address oldOwner = _owner */\n  swap1\n  pop\n    /* \"contracts/MutilTransferDemo.sol\":8250:8258  newOwner */\n  dup2\n    /* \"contracts/MutilTransferDemo.sol\":8241:8247  _owner */\n  0x00\n  dup1\n    /* \"contracts/MutilTransferDemo.sol\":8241:8258  _owner = newOwner */\n  0x0100\n  exp\n  dup2\n  sload\n  dup2\n  0xffffffffffffffffffffffffffffffffffffffff\n  mul\n  not\n  and\n  swap1\n  dup4\n  0xffffffffffffffffffffffffffffffffffffffff\n  and\n  mul\n  or\n  swap1\n  sstore\n  pop\n    /* \"contracts/MutilTransferDemo.sol\":8304:8312  newOwner */\n  dup2\n    /* \"contracts/MutilTransferDemo.sol\":8273:8313  OwnershipTransferred(oldOwner, newOwner) */\n  0xffffffffffffffffffffffffffffffffffffffff\n  and\n    /* \"contracts/MutilTransferDemo.sol\":8294:8302  oldOwner */\n  dup2\n    /* \"contracts/MutilTransferDemo.sol\":8273:8313  OwnershipTransferred(oldOwner, newOwner) */\n  0xffffffffffffffffffffffffffffffffffffffff\n  and\n  0x8be0079c531659141344cd1fd0a4f28419497f9722a3daafe3b4186f6b6457e0\n  mload(0x40)\n  mload(0x40)\n  dup1\n  swap2\n  sub\n  swap1\n  log3\n    /* \"contracts/MutilTransferDemo.sol\":8196:8320  {... */\n  pop\n    /* \"contracts/MutilTransferDemo.sol\":8133:8320  function _transferOwnership(address newOwner) internal virtual {... */\n  pop\n  jump\t// out\n    /* \"contracts/MutilTransferDemo.sol\":9828:11951  contract MutilTransfer is Ownable {... */\ntag_8:\n  dataSize(sub_0)\n  dup1\n  dataOffset(sub_0)\n  0x00\n  codecopy\n  0x00\n  return\nstop\n\nsub_0: assembly {\n        /* \"contracts/MutilTransferDemo.sol\":9828:11951  contract MutilTransfer is Ownable {... */\n      mstore(0x40, 0x80)\n      jumpi(tag_1, lt(calldatasize, 0x04))\n      shr(0xe0, calldataload(0x00))\n      dup1\n      0xaddeb507\n      gt\n      tag_11\n      jumpi\n      dup1\n      0xaddeb507\n      eq\n      tag_6\n      jumpi\n      dup1\n      0xb064478f\n      eq\n      tag_7\n      jumpi\n      dup1\n      0xddca3f43\n      eq\n      tag_8\n      jumpi\n      dup1\n      0xef2704f0\n      eq\n      tag_9\n      jumpi\n      dup1\n      0xf2fde38b\n      eq\n      tag_10\n      jumpi\n      jump(tag_1)\n    tag_11:\n      dup1\n      0x69fe0e2d\n      eq\n      tag_2\n      jumpi\n      dup1\n      0x715018a6\n      eq\n      tag_3\n      jumpi\n      dup1\n      0x7a728217\n      eq\n      tag_4\n      jumpi\n      dup1\n      0x8da5cb5b\n      eq\n      tag_5\n      jumpi\n    tag_1:\n      0x00\n      dup1\n      revert\n        /* \"contracts/MutilTransferDemo.sol\":11875:11949  function setFee(uint256 _fee) public onlyOwner {... */\n    tag_2:\n      callvalue\n      dup1\n      iszero\n      tag_12\n      jumpi\n      0x00\n      dup1\n      revert\n    tag_12:\n      pop\n      tag_13\n      0x04\n      dup1\n      calldatasize\n      sub\n      dup2\n      add\n      swap1\n      tag_14\n      swap2\n      swap1\n      tag_15\n      jump\t// in\n    tag_14:\n      tag_16\n      jump\t// in\n    tag_13:\n      stop\n        /* \"contracts/MutilTransferDemo.sol\":7788:7889  function renounceOwnership() public virtual onlyOwner {... */\n    tag_3:\n      callvalue\n      dup1\n      iszero\n      tag_17\n      jumpi\n      0x00\n      dup1\n      revert\n    tag_17:\n      pop\n      tag_18\n      tag_19\n      jump\t// in\n    tag_18:\n      stop\n        /* \"contracts/MutilTransferDemo.sol\":10930:11353  function transferToken(... */\n    tag_4:\n      tag_20\n      0x04\n      dup1\n      calldatasize\n      sub\n      dup2\n      add\n      swap1\n      tag_21\n      swap2\n      swap1\n      tag_22\n      jump\t// in\n    tag_21:\n      tag_23\n      jump\t// in\n    tag_20:\n      stop\n        /* \"contracts/MutilTransferDemo.sol\":7574:7659  function owner() public view virtual returns (address) {... */\n    tag_5:\n      callvalue\n      dup1\n      iszero\n      tag_24\n      jumpi\n      0x00\n      dup1\n      revert\n    tag_24:\n      pop\n      tag_25\n      tag_26\n      jump\t// in\n    tag_25:\n      mload(0x40)\n      tag_27\n      swap2\n      swap1\n      tag_28\n      jump\t// in\n    tag_27:\n      mload(0x40)\n      dup1\n      swap2\n      sub\n      swap1\n      return\n        /* \"contracts/MutilTransferDemo.sol\":10363:10924  function transferMultiETH(... */\n    tag_6:\n      tag_29\n      0x04\n      dup1\n      calldatasize\n      sub\n      dup2\n      add\n      swap1\n      tag_30\n      swap2\n      swap1\n      tag_31\n      jump\t// in\n    tag_30:\n      tag_32\n      jump\t// in\n    tag_29:\n      stop\n        /* \"contracts/MutilTransferDemo.sol\":11359:11869  function transferMultiToken(... */\n    tag_7:\n      tag_33\n      0x04\n      dup1\n      calldatasize\n      sub\n      dup2\n      add\n      swap1\n      tag_34\n      swap2\n      swap1\n      tag_35\n      jump\t// in\n    tag_34:\n      tag_36\n      jump\t// in\n    tag_33:\n      stop\n        /* \"contracts/MutilTransferDemo.sol\":9932:9954  uint256 public fee = 0 */\n    tag_8:\n      callvalue\n      dup1\n      iszero\n      tag_37\n      jumpi\n      0x00\n      dup1\n      revert\n    tag_37:\n      pop\n      tag_38\n      tag_39\n      jump\t// in\n    tag_38:\n      mload(0x40)\n      tag_40\n      swap2\n      swap1\n      tag_41\n      jump\t// in\n    tag_40:\n      mload(0x40)\n      dup1\n      swap2\n      sub\n      swap1\n      return\n        /* \"contracts/MutilTransferDemo.sol\":9961:10357  function transferETH(address payable[] memory to, uint256 amount)... */\n    tag_9:\n      tag_42\n      0x04\n      dup1\n      calldatasize\n      sub\n      dup2\n      add\n      swap1\n      tag_43\n      swap2\n      swap1\n      tag_44\n      jump\t// in\n    tag_43:\n      tag_45\n      jump\t// in\n    tag_42:\n      stop\n        /* \"contracts/MutilTransferDemo.sol\":7895:8127  function transferOwnership(address newOwner) public virtual onlyOwner {... */\n    tag_10:\n      callvalue\n      dup1\n      iszero\n      tag_46\n      jumpi\n      0x00\n      dup1\n      revert\n    tag_46:\n      pop\n      tag_47\n      0x04\n      dup1\n      calldatasize\n      sub\n      dup2\n      add\n      swap1\n      tag_48\n      swap2\n      swap1\n      tag_49\n      jump\t// in\n    tag_48:\n      tag_50\n      jump\t// in\n    tag_47:\n      stop\n        /* \"contracts/MutilTransferDemo.sol\":11875:11949  function setFee(uint256 _fee) public onlyOwner {... */\n    tag_16:\n        /* \"contracts/MutilTransferDemo.sol\":7715:7727  _msgSender() */\n      tag_52\n        /* \"contracts/MutilTransferDemo.sol\":7715:7725  _msgSender */\n      tag_53\n        /* \"contracts/MutilTransferDemo.sol\":7715:7727  _msgSender() */\n      jump\t// in\n    tag_52:\n        /* \"contracts/MutilTransferDemo.sol\":7704:7727  owner() == _msgSender() */\n      0xffffffffffffffffffffffffffffffffffffffff\n      and\n        /* \"contracts/MutilTransferDemo.sol\":7704:7711  owner() */\n      tag_54\n        /* \"contracts/MutilTransferDemo.sol\":7704:7709  owner */\n      tag_26\n        /* \"contracts/MutilTransferDemo.sol\":7704:7711  owner() */\n      jump\t// in\n    tag_54:\n        /* \"contracts/MutilTransferDemo.sol\":7704:7727  owner() == _msgSender() */\n      0xffffffffffffffffffffffffffffffffffffffff\n      and\n      eq\n        /* \"contracts/MutilTransferDemo.sol\":7696:7764  require(owner() == _msgSender(), \"Ownable: caller is not the owner\") */\n      tag_55\n      jumpi\n      mload(0x40)\n      0x08c379a000000000000000000000000000000000000000000000000000000000\n      dup2\n      mstore\n      0x04\n      add\n      tag_56\n      swap1\n      tag_57\n      jump\t// in\n    tag_56:\n      mload(0x40)\n      dup1\n      swap2\n      sub\n      swap1\n      revert\n    tag_55:\n        /* \"contracts/MutilTransferDemo.sol\":11938:11942  _fee */\n      dup1\n        /* \"contracts/MutilTransferDemo.sol\":11932:11935  fee */\n      0x01\n        /* \"contracts/MutilTransferDemo.sol\":11932:11942  fee = _fee */\n      dup2\n      swap1\n      sstore\n      pop\n        /* \"contracts/MutilTransferDemo.sol\":11875:11949  function setFee(uint256 _fee) public onlyOwner {... */\n      pop\n      jump\t// out\n        /* \"contracts/MutilTransferDemo.sol\":7788:7889  function renounceOwnership() public virtual onlyOwner {... */\n    tag_19:\n        /* \"contracts/MutilTransferDemo.sol\":7715:7727  _msgSender() */\n      tag_60\n        /* \"contracts/MutilTransferDemo.sol\":7715:7725  _msgSender */\n      tag_53\n        /* \"contracts/MutilTransferDemo.sol\":7715:7727  _msgSender() */\n      jump\t// in\n    tag_60:\n        /* \"contracts/MutilTransferDemo.sol\":7704:7727  owner() == _msgSender() */\n      0xffffffffffffffffffffffffffffffffffffffff\n      and\n        /* \"contracts/MutilTransferDemo.sol\":7704:7711  owner() */\n      tag_61\n        /* \"contracts/MutilTransferDemo.sol\":7704:7709  owner */\n      tag_26\n        /* \"contracts/MutilTransferDemo.sol\":7704:7711  owner() */\n      jump\t// in\n    tag_61:\n        /* \"contracts/MutilTransferDemo.sol\":7704:7727  owner() == _msgSender() */\n      0xffffffffffffffffffffffffffffffffffffffff\n      and\n      eq\n        /* \"contracts/MutilTransferDemo.sol\":7696:7764  require(owner() == _msgSender(), \"Ownable: caller is not the owner\") */\n      tag_62\n      jumpi\n      mload(0x40)\n      0x08c379a000000000000000000000000000000000000000000000000000000000\n      dup2\n      mstore\n      0x04\n      add\n      tag_63\n      swap1\n      tag_57\n      jump\t// in\n    tag_63:\n      mload(0x40)\n      dup1\n      swap2\n      sub\n      swap1\n      revert\n    tag_62:\n        /* \"contracts/MutilTransferDemo.sol\":7852:7882  _transferOwnership(address(0)) */\n      tag_65\n        /* \"contracts/MutilTransferDemo.sol\":7879:7880  0 */\n      0x00\n        /* \"contracts/MutilTransferDemo.sol\":7852:7870  _transferOwnership */\n      tag_66\n        /* \"contracts/MutilTransferDemo.sol\":7852:7882  _transferOwnership(address(0)) */\n      jump\t// in\n    tag_65:\n        /* \"contracts/MutilTransferDemo.sol\":7788:7889  function renounceOwnership() public virtual onlyOwner {... */\n      jump\t// out\n        /* \"contracts/MutilTransferDemo.sol\":10930:11353  function transferToken(... */\n    tag_23:\n        /* \"contracts/MutilTransferDemo.sol\":11061:11073  IERC20 token */\n      0x00\n        /* \"contracts/MutilTransferDemo.sol\":11083:11089  _token */\n      dup4\n        /* \"contracts/MutilTransferDemo.sol\":11061:11090  IERC20 token = IERC20(_token) */\n      swap1\n      pop\n        /* \"contracts/MutilTransferDemo.sol\":11115:11124  msg.value */\n      callvalue\n        /* \"contracts/MutilTransferDemo.sol\":11108:11111  fee */\n      sload(0x01)\n        /* \"contracts/MutilTransferDemo.sol\":11108:11124  fee == msg.value */\n      eq\n        /* \"contracts/MutilTransferDemo.sol\":11100:11150  require(fee == msg.value, \"Transfer amount error\") */\n      tag_68\n      jumpi\n      mload(0x40)\n      0x08c379a000000000000000000000000000000000000000000000000000000000\n      dup2\n      mstore\n      0x04\n      add\n      tag_69\n      swap1\n      tag_70\n      jump\t// in\n    tag_69:\n      mload(0x40)\n      dup1\n      swap2\n      sub\n      swap1\n      revert\n    tag_68:\n        /* \"contracts/MutilTransferDemo.sol\":11168:11175  owner() */\n      tag_71\n        /* \"contracts/MutilTransferDemo.sol\":11168:11173  owner */\n      tag_26\n        /* \"contracts/MutilTransferDemo.sol\":11168:11175  owner() */\n      jump\t// in\n    tag_71:\n        /* \"contracts/MutilTransferDemo.sol\":11160:11185  payable(owner()).transfer */\n      0xffffffffffffffffffffffffffffffffffffffff\n      and\n        /* \"contracts/MutilTransferDemo.sol\":11160:11190  payable(owner()).transfer(fee) */\n      0x08fc\n        /* \"contracts/MutilTransferDemo.sol\":11186:11189  fee */\n      sload(0x01)\n        /* \"contracts/MutilTransferDemo.sol\":11160:11190  payable(owner()).transfer(fee) */\n      swap1\n      dup2\n      iszero\n      mul\n      swap1\n      mload(0x40)\n      0x00\n      mload(0x40)\n      dup1\n      dup4\n      sub\n      dup2\n      dup6\n      dup9\n      dup9\n      call\n      swap4\n      pop\n      pop\n      pop\n      pop\n      iszero\n      dup1\n      iszero\n      tag_73\n      jumpi\n      returndatasize\n      0x00\n      dup1\n      returndatacopy\n      revert(0x00, returndatasize)\n    tag_73:\n      pop\n        /* \"contracts/MutilTransferDemo.sol\":11200:11214  uint256 length */\n      0x00\n        /* \"contracts/MutilTransferDemo.sol\":11217:11219  to */\n      dup4\n        /* \"contracts/MutilTransferDemo.sol\":11217:11226  to.length */\n      mload\n        /* \"contracts/MutilTransferDemo.sol\":11200:11226  uint256 length = to.length */\n      swap1\n      pop\n        /* \"contracts/MutilTransferDemo.sol\":11241:11250  uint256 i */\n      0x00\n        /* \"contracts/MutilTransferDemo.sol\":11236:11347  for (uint256 i = 0; i < length; i++) {... */\n    tag_74:\n        /* \"contracts/MutilTransferDemo.sol\":11260:11266  length */\n      dup2\n        /* \"contracts/MutilTransferDemo.sol\":11256:11257  i */\n      dup2\n        /* \"contracts/MutilTransferDemo.sol\":11256:11266  i < length */\n      lt\n        /* \"contracts/MutilTransferDemo.sol\":11236:11347  for (uint256 i = 0; i < length; i++) {... */\n      iszero\n      tag_75\n      jumpi\n        /* \"contracts/MutilTransferDemo.sol\":11287:11336  token.safeTransferFrom(msg.sender, to[i], amount) */\n      tag_77\n        /* \"contracts/MutilTransferDemo.sol\":11310:11320  msg.sender */\n      caller\n        /* \"contracts/MutilTransferDemo.sol\":11322:11324  to */\n      dup7\n        /* \"contracts/MutilTransferDemo.sol\":11325:11326  i */\n      dup4\n        /* \"contracts/MutilTransferDemo.sol\":11322:11327  to[i] */\n      dup2\n      mload\n      dup2\n      lt\n      tag_78\n      jumpi\n      tag_79\n      tag_80\n      jump\t// in\n    tag_79:\n    tag_78:\n      0x20\n      mul\n      0x20\n      add\n      add\n      mload\n        /* \"contracts/MutilTransferDemo.sol\":11329:11335  amount */\n      dup7\n        /* \"contracts/MutilTransferDemo.sol\":11287:11292  token */\n      dup7\n        /* \"contracts/MutilTransferDemo.sol\":11287:11309  token.safeTransferFrom */\n      0xffffffffffffffffffffffffffffffffffffffff\n      and\n      tag_81\n      swap1\n        /* \"contracts/MutilTransferDemo.sol\":11287:11336  token.safeTransferFrom(msg.sender, to[i], amount) */\n      swap4\n      swap3\n      swap2\n      swap1\n      0xffffffff\n      and\n      jump\t// in\n    tag_77:\n        /* \"contracts/MutilTransferDemo.sol\":11268:11271  i++ */\n      dup1\n      dup1\n      0x01\n      add\n      swap2\n      pop\n      pop\n        /* \"contracts/MutilTransferDemo.sol\":11236:11347  for (uint256 i = 0; i < length; i++) {... */\n      jump(tag_74)\n    tag_75:\n      pop\n        /* \"contracts/MutilTransferDemo.sol\":11051:11353  {... */\n      pop\n      pop\n        /* \"contracts/MutilTransferDemo.sol\":10930:11353  function transferToken(... */\n      pop\n      pop\n      pop\n      jump\t// out\n        /* \"contracts/MutilTransferDemo.sol\":7574:7659  function owner() public view virtual returns (address) {... */\n    tag_26:\n        /* \"contracts/MutilTransferDemo.sol\":7620:7627  address */\n      0x00\n        /* \"contracts/MutilTransferDemo.sol\":7646:7652  _owner */\n      dup1\n      0x00\n      swap1\n      sload\n      swap1\n      0x0100\n      exp\n      swap1\n      div\n      0xffffffffffffffffffffffffffffffffffffffff\n      and\n        /* \"contracts/MutilTransferDemo.sol\":7639:7652  return _owner */\n      swap1\n      pop\n        /* \"contracts/MutilTransferDemo.sol\":7574:7659  function owner() public view virtual returns (address) {... */\n      swap1\n      jump\t// out\n        /* \"contracts/MutilTransferDemo.sol\":10363:10924  function transferMultiETH(... */\n    tag_32:\n        /* \"contracts/MutilTransferDemo.sol\":10490:10504  uint256 length */\n      0x00\n        /* \"contracts/MutilTransferDemo.sol\":10507:10509  to */\n      dup3\n        /* \"contracts/MutilTransferDemo.sol\":10507:10516  to.length */\n      mload\n        /* \"contracts/MutilTransferDemo.sol\":10490:10516  uint256 length = to.length */\n      swap1\n      pop\n        /* \"contracts/MutilTransferDemo.sol\":10547:10553  amount */\n      dup2\n        /* \"contracts/MutilTransferDemo.sol\":10547:10560  amount.length */\n      mload\n        /* \"contracts/MutilTransferDemo.sol\":10534:10536  to */\n      dup4\n        /* \"contracts/MutilTransferDemo.sol\":10534:10543  to.length */\n      mload\n        /* \"contracts/MutilTransferDemo.sol\":10534:10560  to.length == amount.length */\n      eq\n        /* \"contracts/MutilTransferDemo.sol\":10526:10586  require(to.length == amount.length, \"Transfer length error\") */\n      tag_84\n      jumpi\n      mload(0x40)\n      0x08c379a000000000000000000000000000000000000000000000000000000000\n      dup2\n      mstore\n      0x04\n      add\n      tag_85\n      swap1\n      tag_86\n      jump\t// in\n    tag_85:\n      mload(0x40)\n      dup1\n      swap2\n      sub\n      swap1\n      revert\n    tag_84:\n        /* \"contracts/MutilTransferDemo.sol\":10596:10613  uint256 allAmount */\n      0x00\n        /* \"contracts/MutilTransferDemo.sol\":10628:10637  uint256 i */\n      dup1\n        /* \"contracts/MutilTransferDemo.sol\":10640:10641  0 */\n      0x00\n        /* \"contracts/MutilTransferDemo.sol\":10628:10641  uint256 i = 0 */\n      swap1\n      pop\n        /* \"contracts/MutilTransferDemo.sol\":10623:10707  for (uint256 i = 0; i < length; i++) {... */\n    tag_87:\n        /* \"contracts/MutilTransferDemo.sol\":10647:10653  length */\n      dup3\n        /* \"contracts/MutilTransferDemo.sol\":10643:10644  i */\n      dup2\n        /* \"contracts/MutilTransferDemo.sol\":10643:10653  i < length */\n      lt\n        /* \"contracts/MutilTransferDemo.sol\":10623:10707  for (uint256 i = 0; i < length; i++) {... */\n      iszero\n      tag_88\n      jumpi\n        /* \"contracts/MutilTransferDemo.sol\":10687:10693  amount */\n      dup4\n        /* \"contracts/MutilTransferDemo.sol\":10694:10695  i */\n      dup2\n        /* \"contracts/MutilTransferDemo.sol\":10687:10696  amount[i] */\n      dup2\n      mload\n      dup2\n      lt\n      tag_90\n      jumpi\n      tag_91\n      tag_80\n      jump\t// in\n    tag_91:\n    tag_90:\n      0x20\n      mul\n      0x20\n      add\n      add\n      mload\n        /* \"contracts/MutilTransferDemo.sol\":10674:10696  allAmount += amount[i] */\n      dup3\n      tag_92\n      swap2\n      swap1\n      tag_93\n      jump\t// in\n    tag_92:\n      swap2\n      pop\n        /* \"contracts/MutilTransferDemo.sol\":10655:10658  i++ */\n      dup1\n      dup1\n      0x01\n      add\n      swap2\n      pop\n      pop\n        /* \"contracts/MutilTransferDemo.sol\":10623:10707  for (uint256 i = 0; i < length; i++) {... */\n      jump(tag_87)\n    tag_88:\n      pop\n        /* \"contracts/MutilTransferDemo.sol\":10737:10755  allAmount.add(fee) */\n      tag_94\n        /* \"contracts/MutilTransferDemo.sol\":10751:10754  fee */\n      sload(0x01)\n        /* \"contracts/MutilTransferDemo.sol\":10737:10746  allAmount */\n      dup3\n        /* \"contracts/MutilTransferDemo.sol\":10737:10750  allAmount.add */\n      tag_95\n      swap1\n        /* \"contracts/MutilTransferDemo.sol\":10737:10755  allAmount.add(fee) */\n      swap2\n      swap1\n      0xffffffff\n      and\n      jump\t// in\n    tag_94:\n        /* \"contracts/MutilTransferDemo.sol\":10724:10733  msg.value */\n      callvalue\n        /* \"contracts/MutilTransferDemo.sol\":10724:10755  msg.value == allAmount.add(fee) */\n      eq\n        /* \"contracts/MutilTransferDemo.sol\":10716:10781  require(msg.value == allAmount.add(fee), \"Transfer amount error\") */\n      tag_96\n      jumpi\n      mload(0x40)\n      0x08c379a000000000000000000000000000000000000000000000000000000000\n      dup2\n      mstore\n      0x04\n      add\n      tag_97\n      swap1\n      tag_70\n      jump\t// in\n    tag_97:\n      mload(0x40)\n      dup1\n      swap2\n      sub\n      swap1\n      revert\n    tag_96:\n        /* \"contracts/MutilTransferDemo.sol\":10799:10806  owner() */\n      tag_98\n        /* \"contracts/MutilTransferDemo.sol\":10799:10804  owner */\n      tag_26\n        /* \"contracts/MutilTransferDemo.sol\":10799:10806  owner() */\n      jump\t// in\n    tag_98:\n        /* \"contracts/MutilTransferDemo.sol\":10791:10816  payable(owner()).transfer */\n      0xffffffffffffffffffffffffffffffffffffffff\n      and\n        /* \"contracts/MutilTransferDemo.sol\":10791:10821  payable(owner()).transfer(fee) */\n      0x08fc\n        /* \"contracts/MutilTransferDemo.sol\":10817:10820  fee */\n      sload(0x01)\n        /* \"contracts/MutilTransferDemo.sol\":10791:10821  payable(owner()).transfer(fee) */\n      swap1\n      dup2\n      iszero\n      mul\n      swap1\n      mload(0x40)\n      0x00\n      mload(0x40)\n      dup1\n      dup4\n      sub\n      dup2\n      dup6\n      dup9\n      dup9\n      call\n      swap4\n      pop\n      pop\n      pop\n      pop\n      iszero\n      dup1\n      iszero\n      tag_100\n      jumpi\n      returndatasize\n      0x00\n      dup1\n      returndatacopy\n      revert(0x00, returndatasize)\n    tag_100:\n      pop\n        /* \"contracts/MutilTransferDemo.sol\":10836:10845  uint256 i */\n      0x00\n        /* \"contracts/MutilTransferDemo.sol\":10831:10918  for (uint256 i = 0; i < length; i++) {... */\n    tag_101:\n        /* \"contracts/MutilTransferDemo.sol\":10855:10861  length */\n      dup3\n        /* \"contracts/MutilTransferDemo.sol\":10851:10852  i */\n      dup2\n        /* \"contracts/MutilTransferDemo.sol\":10851:10861  i < length */\n      lt\n        /* \"contracts/MutilTransferDemo.sol\":10831:10918  for (uint256 i = 0; i < length; i++) {... */\n      iszero\n      tag_102\n      jumpi\n        /* \"contracts/MutilTransferDemo.sol\":10882:10884  to */\n      dup5\n        /* \"contracts/MutilTransferDemo.sol\":10885:10886  i */\n      dup2\n        /* \"contracts/MutilTransferDemo.sol\":10882:10887  to[i] */\n      dup2\n      mload\n      dup2\n      lt\n      tag_104\n      jumpi\n      tag_105\n      tag_80\n      jump\t// in\n    tag_105:\n    tag_104:\n      0x20\n      mul\n      0x20\n      add\n      add\n      mload\n        /* \"contracts/MutilTransferDemo.sol\":10882:10896  to[i].transfer */\n      0xffffffffffffffffffffffffffffffffffffffff\n      and\n        /* \"contracts/MutilTransferDemo.sol\":10882:10907  to[i].transfer(amount[i]) */\n      0x08fc\n        /* \"contracts/MutilTransferDemo.sol\":10897:10903  amount */\n      dup6\n        /* \"contracts/MutilTransferDemo.sol\":10904:10905  i */\n      dup4\n        /* \"contracts/MutilTransferDemo.sol\":10897:10906  amount[i] */\n      dup2\n      mload\n      dup2\n      lt\n      tag_106\n      jumpi\n      tag_107\n      tag_80\n      jump\t// in\n    tag_107:\n    tag_106:\n      0x20\n      mul\n      0x20\n      add\n      add\n      mload\n        /* \"contracts/MutilTransferDemo.sol\":10882:10907  to[i].transfer(amount[i]) */\n      swap1\n      dup2\n      iszero\n      mul\n      swap1\n      mload(0x40)\n      0x00\n      mload(0x40)\n      dup1\n      dup4\n      sub\n      dup2\n      dup6\n      dup9\n      dup9\n      call\n      swap4\n      pop\n      pop\n      pop\n      pop\n      iszero\n      dup1\n      iszero\n      tag_109\n      jumpi\n      returndatasize\n      0x00\n      dup1\n      returndatacopy\n      revert(0x00, returndatasize)\n    tag_109:\n      pop\n        /* \"contracts/MutilTransferDemo.sol\":10863:10866  i++ */\n      dup1\n      dup1\n      0x01\n      add\n      swap2\n      pop\n      pop\n        /* \"contracts/MutilTransferDemo.sol\":10831:10918  for (uint256 i = 0; i < length; i++) {... */\n      jump(tag_101)\n    tag_102:\n      pop\n        /* \"contracts/MutilTransferDemo.sol\":10480:10924  {... */\n      pop\n      pop\n        /* \"contracts/MutilTransferDemo.sol\":10363:10924  function transferMultiETH(... */\n      pop\n      pop\n      jump\t// out\n        /* \"contracts/MutilTransferDemo.sol\":11359:11869  function transferMultiToken(... */\n    tag_36:\n        /* \"contracts/MutilTransferDemo.sol\":11504:11516  IERC20 token */\n      0x00\n        /* \"contracts/MutilTransferDemo.sol\":11526:11532  _token */\n      dup4\n        /* \"contracts/MutilTransferDemo.sol\":11504:11533  IERC20 token = IERC20(_token) */\n      swap1\n      pop\n        /* \"contracts/MutilTransferDemo.sol\":11558:11567  msg.value */\n      callvalue\n        /* \"contracts/MutilTransferDemo.sol\":11551:11554  fee */\n      sload(0x01)\n        /* \"contracts/MutilTransferDemo.sol\":11551:11567  fee == msg.value */\n      eq\n        /* \"contracts/MutilTransferDemo.sol\":11543:11593  require(fee == msg.value, \"Transfer amount error\") */\n      tag_111\n      jumpi\n      mload(0x40)\n      0x08c379a000000000000000000000000000000000000000000000000000000000\n      dup2\n      mstore\n      0x04\n      add\n      tag_112\n      swap1\n      tag_70\n      jump\t// in\n    tag_112:\n      mload(0x40)\n      dup1\n      swap2\n      sub\n      swap1\n      revert\n    tag_111:\n        /* \"contracts/MutilTransferDemo.sol\":11624:11630  amount */\n      dup2\n        /* \"contracts/MutilTransferDemo.sol\":11624:11637  amount.length */\n      mload\n        /* \"contracts/MutilTransferDemo.sol\":11611:11613  to */\n      dup4\n        /* \"contracts/MutilTransferDemo.sol\":11611:11620  to.length */\n      mload\n        /* \"contracts/MutilTransferDemo.sol\":11611:11637  to.length == amount.length */\n      eq\n        /* \"contracts/MutilTransferDemo.sol\":11603:11663  require(to.length == amount.length, \"Transfer length error\") */\n      tag_113\n      jumpi\n      mload(0x40)\n      0x08c379a000000000000000000000000000000000000000000000000000000000\n      dup2\n      mstore\n      0x04\n      add\n      tag_114\n      swap1\n      tag_86\n      jump\t// in\n    tag_114:\n      mload(0x40)\n      dup1\n      swap2\n      sub\n      swap1\n      revert\n    tag_113:\n        /* \"contracts/MutilTransferDemo.sol\":11681:11688  owner() */\n      tag_115\n        /* \"contracts/MutilTransferDemo.sol\":11681:11686  owner */\n      tag_26\n        /* \"contracts/MutilTransferDemo.sol\":11681:11688  owner() */\n      jump\t// in\n    tag_115:\n        /* \"contracts/MutilTransferDemo.sol\":11673:11698  payable(owner()).transfer */\n      0xffffffffffffffffffffffffffffffffffffffff\n      and\n        /* \"contracts/MutilTransferDemo.sol\":11673:11703  payable(owner()).transfer(fee) */\n      0x08fc\n        /* \"contracts/MutilTransferDemo.sol\":11699:11702  fee */\n      sload(0x01)\n        /* \"contracts/MutilTransferDemo.sol\":11673:11703  payable(owner()).transfer(fee) */\n      swap1\n      dup2\n      iszero\n      mul\n      swap1\n      mload(0x40)\n      0x00\n      mload(0x40)\n      dup1\n      dup4\n      sub\n      dup2\n      dup6\n      dup9\n      dup9\n      call\n      swap4\n      pop\n      pop\n      pop\n      pop\n      iszero\n      dup1\n      iszero\n      tag_117\n      jumpi\n      returndatasize\n      0x00\n      dup1\n      returndatacopy\n      revert(0x00, returndatasize)\n    tag_117:\n      pop\n        /* \"contracts/MutilTransferDemo.sol\":11713:11727  uint256 length */\n      0x00\n        /* \"contracts/MutilTransferDemo.sol\":11730:11732  to */\n      dup4\n        /* \"contracts/MutilTransferDemo.sol\":11730:11739  to.length */\n      mload\n        /* \"contracts/MutilTransferDemo.sol\":11713:11739  uint256 length = to.length */\n      swap1\n      pop\n        /* \"contracts/MutilTransferDemo.sol\":11754:11763  uint256 i */\n      0x00\n        /* \"contracts/MutilTransferDemo.sol\":11749:11863  for (uint256 i = 0; i < length; i++) {... */\n    tag_118:\n        /* \"contracts/MutilTransferDemo.sol\":11773:11779  length */\n      dup2\n        /* \"contracts/MutilTransferDemo.sol\":11769:11770  i */\n      dup2\n        /* \"contracts/MutilTransferDemo.sol\":11769:11779  i < length */\n      lt\n        /* \"contracts/MutilTransferDemo.sol\":11749:11863  for (uint256 i = 0; i < length; i++) {... */\n      iszero\n      tag_119\n      jumpi\n        /* \"contracts/MutilTransferDemo.sol\":11800:11852  token.safeTransferFrom(msg.sender, to[i], amount[i]) */\n      tag_121\n        /* \"contracts/MutilTransferDemo.sol\":11823:11833  msg.sender */\n      caller\n        /* \"contracts/MutilTransferDemo.sol\":11835:11837  to */\n      dup7\n        /* \"contracts/MutilTransferDemo.sol\":11838:11839  i */\n      dup4\n        /* \"contracts/MutilTransferDemo.sol\":11835:11840  to[i] */\n      dup2\n      mload\n      dup2\n      lt\n      tag_122\n      jumpi\n      tag_123\n      tag_80\n      jump\t// in\n    tag_123:\n    tag_122:\n      0x20\n      mul\n      0x20\n      add\n      add\n      mload\n        /* \"contracts/MutilTransferDemo.sol\":11842:11848  amount */\n      dup7\n        /* \"contracts/MutilTransferDemo.sol\":11849:11850  i */\n      dup5\n        /* \"contracts/MutilTransferDemo.sol\":11842:11851  amount[i] */\n      dup2\n      mload\n      dup2\n      lt\n      tag_124\n      jumpi\n      tag_125\n      tag_80\n      jump\t// in\n    tag_125:\n    tag_124:\n      0x20\n      mul\n      0x20\n      add\n      add\n      mload\n        /* \"contracts/MutilTransferDemo.sol\":11800:11805  token */\n      dup7\n        /* \"contracts/MutilTransferDemo.sol\":11800:11822  token.safeTransferFrom */\n      0xffffffffffffffffffffffffffffffffffffffff\n      and\n      tag_81\n      swap1\n        /* \"contracts/MutilTransferDemo.sol\":11800:11852  token.safeTransferFrom(msg.sender, to[i], amount[i]) */\n      swap4\n      swap3\n      swap2\n      swap1\n      0xffffffff\n      and\n      jump\t// in\n    tag_121:\n        /* \"contracts/MutilTransferDemo.sol\":11781:11784  i++ */\n      dup1\n      dup1\n      0x01\n      add\n      swap2\n      pop\n      pop\n        /* \"contracts/MutilTransferDemo.sol\":11749:11863  for (uint256 i = 0; i < length; i++) {... */\n      jump(tag_118)\n    tag_119:\n      pop\n        /* \"contracts/MutilTransferDemo.sol\":11494:11869  {... */\n      pop\n      pop\n        /* \"contracts/MutilTransferDemo.sol\":11359:11869  function transferMultiToken(... */\n      pop\n      pop\n      pop\n      jump\t// out\n        /* \"contracts/MutilTransferDemo.sol\":9932:9954  uint256 public fee = 0 */\n    tag_39:\n      sload(0x01)\n      dup2\n      jump\t// out\n        /* \"contracts/MutilTransferDemo.sol\":9961:10357  function transferETH(address payable[] memory to, uint256 amount)... */\n    tag_45:\n        /* \"contracts/MutilTransferDemo.sol\":10072:10086  uint256 length */\n      0x00\n        /* \"contracts/MutilTransferDemo.sol\":10089:10091  to */\n      dup3\n        /* \"contracts/MutilTransferDemo.sol\":10089:10098  to.length */\n      mload\n        /* \"contracts/MutilTransferDemo.sol\":10072:10098  uint256 length = to.length */\n      swap1\n      pop\n        /* \"contracts/MutilTransferDemo.sol\":10142:10169  length.mul(amount).add(fee) */\n      tag_127\n        /* \"contracts/MutilTransferDemo.sol\":10165:10168  fee */\n      sload(0x01)\n        /* \"contracts/MutilTransferDemo.sol\":10142:10160  length.mul(amount) */\n      tag_128\n        /* \"contracts/MutilTransferDemo.sol\":10153:10159  amount */\n      dup5\n        /* \"contracts/MutilTransferDemo.sol\":10142:10148  length */\n      dup5\n        /* \"contracts/MutilTransferDemo.sol\":10142:10152  length.mul */\n      tag_129\n      swap1\n        /* \"contracts/MutilTransferDemo.sol\":10142:10160  length.mul(amount) */\n      swap2\n      swap1\n      0xffffffff\n      and\n      jump\t// in\n    tag_128:\n        /* \"contracts/MutilTransferDemo.sol\":10142:10164  length.mul(amount).add */\n      tag_95\n      swap1\n        /* \"contracts/MutilTransferDemo.sol\":10142:10169  length.mul(amount).add(fee) */\n      swap2\n      swap1\n      0xffffffff\n      and\n      jump\t// in\n    tag_127:\n        /* \"contracts/MutilTransferDemo.sol\":10129:10138  msg.value */\n      callvalue\n        /* \"contracts/MutilTransferDemo.sol\":10129:10169  msg.value == length.mul(amount).add(fee) */\n      eq\n        /* \"contracts/MutilTransferDemo.sol\":10108:10216  require(... */\n      tag_130\n      jumpi\n      mload(0x40)\n      0x08c379a000000000000000000000000000000000000000000000000000000000\n      dup2\n      mstore\n      0x04\n      add\n      tag_131\n      swap1\n      tag_70\n      jump\t// in\n    tag_131:\n      mload(0x40)\n      dup1\n      swap2\n      sub\n      swap1\n      revert\n    tag_130:\n        /* \"contracts/MutilTransferDemo.sol\":10235:10242  owner() */\n      tag_132\n        /* \"contracts/MutilTransferDemo.sol\":10235:10240  owner */\n      tag_26\n        /* \"contracts/MutilTransferDemo.sol\":10235:10242  owner() */\n      jump\t// in\n    tag_132:\n        /* \"contracts/MutilTransferDemo.sol\":10227:10252  payable(owner()).transfer */\n      0xffffffffffffffffffffffffffffffffffffffff\n      and\n        /* \"contracts/MutilTransferDemo.sol\":10227:10257  payable(owner()).transfer(fee) */\n      0x08fc\n        /* \"contracts/MutilTransferDemo.sol\":10253:10256  fee */\n      sload(0x01)\n        /* \"contracts/MutilTransferDemo.sol\":10227:10257  payable(owner()).transfer(fee) */\n      swap1\n      dup2\n      iszero\n      mul\n      swap1\n      mload(0x40)\n      0x00\n      mload(0x40)\n      dup1\n      dup4\n      sub\n      dup2\n      dup6\n      dup9\n      dup9\n      call\n      swap4\n      pop\n      pop\n      pop\n      pop\n      iszero\n      dup1\n      iszero\n      tag_134\n      jumpi\n      returndatasize\n      0x00\n      dup1\n      returndatacopy\n      revert(0x00, returndatasize)\n    tag_134:\n      pop\n        /* \"contracts/MutilTransferDemo.sol\":10272:10281  uint256 i */\n      0x00\n        /* \"contracts/MutilTransferDemo.sol\":10267:10351  for (uint256 i = 0; i < length; i++) {... */\n    tag_135:\n        /* \"contracts/MutilTransferDemo.sol\":10291:10297  length */\n      dup2\n        /* \"contracts/MutilTransferDemo.sol\":10287:10288  i */\n      dup2\n        /* \"contracts/MutilTransferDemo.sol\":10287:10297  i < length */\n      lt\n        /* \"contracts/MutilTransferDemo.sol\":10267:10351  for (uint256 i = 0; i < length; i++) {... */\n      iszero\n      tag_136\n      jumpi\n        /* \"contracts/MutilTransferDemo.sol\":10318:10320  to */\n      dup4\n        /* \"contracts/MutilTransferDemo.sol\":10321:10322  i */\n      dup2\n        /* \"contracts/MutilTransferDemo.sol\":10318:10323  to[i] */\n      dup2\n      mload\n      dup2\n      lt\n      tag_138\n      jumpi\n      tag_139\n      tag_80\n      jump\t// in\n    tag_139:\n    tag_138:\n      0x20\n      mul\n      0x20\n      add\n      add\n      mload\n        /* \"contracts/MutilTransferDemo.sol\":10318:10332  to[i].transfer */\n      0xffffffffffffffffffffffffffffffffffffffff\n      and\n        /* \"contracts/MutilTransferDemo.sol\":10318:10340  to[i].transfer(amount) */\n      0x08fc\n        /* \"contracts/MutilTransferDemo.sol\":10333:10339  amount */\n      dup5\n        /* \"contracts/MutilTransferDemo.sol\":10318:10340  to[i].transfer(amount) */\n      swap1\n      dup2\n      iszero\n      mul\n      swap1\n      mload(0x40)\n      0x00\n      mload(0x40)\n      dup1\n      dup4\n      sub\n      dup2\n      dup6\n      dup9\n      dup9\n      call\n      swap4\n      pop\n      pop\n      pop\n      pop\n      iszero\n      dup1\n      iszero\n      tag_141\n      jumpi\n      returndatasize\n      0x00\n      dup1\n      returndatacopy\n      revert(0x00, returndatasize)\n    tag_141:\n      pop\n        /* \"contracts/MutilTransferDemo.sol\":10299:10302  i++ */\n      dup1\n      dup1\n      0x01\n      add\n      swap2\n      pop\n      pop\n        /* \"contracts/MutilTransferDemo.sol\":10267:10351  for (uint256 i = 0; i < length; i++) {... */\n      jump(tag_135)\n    tag_136:\n      pop\n        /* \"contracts/MutilTransferDemo.sol\":10062:10357  {... */\n      pop\n        /* \"contracts/MutilTransferDemo.sol\":9961:10357  function transferETH(address payable[] memory to, uint256 amount)... */\n      pop\n      pop\n      jump\t// out\n        /* \"contracts/MutilTransferDemo.sol\":7895:8127  function transferOwnership(address newOwner) public virtual onlyOwner {... */\n    tag_50:\n        /* \"contracts/MutilTransferDemo.sol\":7715:7727  _msgSender() */\n      tag_143\n        /* \"contracts/MutilTransferDemo.sol\":7715:7725  _msgSender */\n      tag_53\n        /* \"contracts/MutilTransferDemo.sol\":7715:7727  _msgSender() */\n      jump\t// in\n    tag_143:\n        /* \"contracts/MutilTransferDemo.sol\":7704:7727  owner() == _msgSender() */\n      0xffffffffffffffffffffffffffffffffffffffff\n      and\n        /* \"contracts/MutilTransferDemo.sol\":7704:7711  owner() */\n      tag_144\n        /* \"contracts/MutilTransferDemo.sol\":7704:7709  owner */\n      tag_26\n        /* \"contracts/MutilTransferDemo.sol\":7704:7711  owner() */\n      jump\t// in\n    tag_144:\n        /* \"contracts/MutilTransferDemo.sol\":7704:7727  owner() == _msgSender() */\n      0xffffffffffffffffffffffffffffffffffffffff\n      and\n      eq\n        /* \"contracts/MutilTransferDemo.sol\":7696:7764  require(owner() == _msgSender(), \"Ownable: caller is not the owner\") */\n      tag_145\n      jumpi\n      mload(0x40)\n      0x08c379a000000000000000000000000000000000000000000000000000000000\n      dup2\n      mstore\n      0x04\n      add\n      tag_146\n      swap1\n      tag_57\n      jump\t// in\n    tag_146:\n      mload(0x40)\n      dup1\n      swap2\n      sub\n      swap1\n      revert\n    tag_145:\n        /* \"contracts/MutilTransferDemo.sol\":8016:8017  0 */\n      0x00\n        /* \"contracts/MutilTransferDemo.sol\":7996:8018  newOwner != address(0) */\n      0xffffffffffffffffffffffffffffffffffffffff\n      and\n        /* \"contracts/MutilTransferDemo.sol\":7996:8004  newOwner */\n      dup2\n        /* \"contracts/MutilTransferDemo.sol\":7996:8018  newOwner != address(0) */\n      0xffffffffffffffffffffffffffffffffffffffff\n      and\n      sub\n        /* \"contracts/MutilTransferDemo.sol\":7975:8082  require(... */\n      tag_148\n      jumpi\n      mload(0x40)\n      0x08c379a000000000000000000000000000000000000000000000000000000000\n      dup2\n      mstore\n      0x04\n      add\n      tag_149\n      swap1\n      tag_150\n      jump\t// in\n    tag_149:\n      mload(0x40)\n      dup1\n      swap2\n      sub\n      swap1\n      revert\n    tag_148:\n        /* \"contracts/MutilTransferDemo.sol\":8092:8120  _transferOwnership(newOwner) */\n      tag_151\n        /* \"contracts/MutilTransferDemo.sol\":8111:8119  newOwner */\n      dup2\n        /* \"contracts/MutilTransferDemo.sol\":8092:8110  _transferOwnership */\n      tag_66\n        /* \"contracts/MutilTransferDemo.sol\":8092:8120  _transferOwnership(newOwner) */\n      jump\t// in\n    tag_151:\n        /* \"contracts/MutilTransferDemo.sol\":7895:8127  function transferOwnership(address newOwner) public virtual onlyOwner {... */\n      pop\n      jump\t// out\n        /* \"contracts/MutilTransferDemo.sol\":7116:7212  function _msgSender() internal view virtual returns (address) {... */\n    tag_53:\n        /* \"contracts/MutilTransferDemo.sol\":7169:7176  address */\n      0x00\n        /* \"contracts/MutilTransferDemo.sol\":7195:7205  msg.sender */\n      caller\n        /* \"contracts/MutilTransferDemo.sol\":7188:7205  return msg.sender */\n      swap1\n      pop\n        /* \"contracts/MutilTransferDemo.sol\":7116:7212  function _msgSender() internal view virtual returns (address) {... */\n      swap1\n      jump\t// out\n        /* \"contracts/MutilTransferDemo.sol\":8133:8320  function _transferOwnership(address newOwner) internal virtual {... */\n    tag_66:\n        /* \"contracts/MutilTransferDemo.sol\":8206:8222  address oldOwner */\n      0x00\n        /* \"contracts/MutilTransferDemo.sol\":8225:8231  _owner */\n      dup1\n      0x00\n      swap1\n      sload\n      swap1\n      0x0100\n      exp\n      swap1\n      div\n      0xffffffffffffffffffffffffffffffffffffffff\n      and\n        /* \"contracts/MutilTransferDemo.sol\":8206:8231  address oldOwner = _owner */\n      swap1\n      pop\n        /* \"contracts/MutilTransferDemo.sol\":8250:8258  newOwner */\n      dup2\n        /* \"contracts/MutilTransferDemo.sol\":8241:8247  _owner */\n      0x00\n      dup1\n        /* \"contracts/MutilTransferDemo.sol\":8241:8258  _owner = newOwner */\n      0x0100\n      exp\n      dup2\n      sload\n      dup2\n      0xffffffffffffffffffffffffffffffffffffffff\n      mul\n      not\n      and\n      swap1\n      dup4\n      0xffffffffffffffffffffffffffffffffffffffff\n      and\n      mul\n      or\n      swap1\n      sstore\n      pop\n        /* \"contracts/MutilTransferDemo.sol\":8304:8312  newOwner */\n      dup2\n        /* \"contracts/MutilTransferDemo.sol\":8273:8313  OwnershipTransferred(oldOwner, newOwner) */\n      0xffffffffffffffffffffffffffffffffffffffff\n      and\n        /* \"contracts/MutilTransferDemo.sol\":8294:8302  oldOwner */\n      dup2\n        /* \"contracts/MutilTransferDemo.sol\":8273:8313  OwnershipTransferred(oldOwner, newOwner) */\n      0xffffffffffffffffffffffffffffffffffffffff\n      and\n      0x8be0079c531659141344cd1fd0a4f28419497f9722a3daafe3b4186f6b6457e0\n      mload(0x40)\n      mload(0x40)\n      dup1\n      swap2\n      sub\n      swap1\n      log3\n        /* \"contracts/MutilTransferDemo.sol\":8196:8320  {... */\n      pop\n        /* \"contracts/MutilTransferDemo.sol\":8133:8320  function _transferOwnership(address newOwner) internal virtual {... */\n      pop\n      jump\t// out\n        /* \"contracts/MutilTransferDemo.sol\":4891:5166  function safeTransferFrom(... */\n    tag_81:\n        /* \"contracts/MutilTransferDemo.sol\":5029:5159  _callOptionalReturn(... */\n      tag_155\n        /* \"contracts/MutilTransferDemo.sol\":5062:5067  token */\n      dup5\n        /* \"contracts/MutilTransferDemo.sol\":5104:5131  token.transferFrom.selector */\n      shl(0xe0, 0x23b872dd)\n        /* \"contracts/MutilTransferDemo.sol\":5133:5137  from */\n      dup6\n        /* \"contracts/MutilTransferDemo.sol\":5139:5141  to */\n      dup6\n        /* \"contracts/MutilTransferDemo.sol\":5143:5148  value */\n      dup6\n        /* \"contracts/MutilTransferDemo.sol\":5081:5149  abi.encodeWithSelector(token.transferFrom.selector, from, to, value) */\n      add(0x24, mload(0x40))\n      tag_156\n      swap4\n      swap3\n      swap2\n      swap1\n      tag_157\n      jump\t// in\n    tag_156:\n      mload(0x40)\n      0x20\n      dup2\n      dup4\n      sub\n      sub\n      dup2\n      mstore\n      swap1\n      0x40\n      mstore\n      swap1\n      not(0xffffffffffffffffffffffffffffffffffffffffffffffffffffffff)\n      and\n      0x20\n      dup3\n      add\n      dup1\n      mload\n      0xffffffffffffffffffffffffffffffffffffffffffffffffffffffff\n      dup4\n      dup2\n      dup4\n      and\n      or\n      dup4\n      mstore\n      pop\n      pop\n      pop\n      pop\n        /* \"contracts/MutilTransferDemo.sol\":5029:5048  _callOptionalReturn */\n      tag_158\n        /* \"contracts/MutilTransferDemo.sol\":5029:5159  _callOptionalReturn(... */\n      jump\t// in\n    tag_155:\n        /* \"contracts/MutilTransferDemo.sol\":4891:5166  function safeTransferFrom(... */\n      pop\n      pop\n      pop\n      pop\n      jump\t// out\n        /* \"contracts/MutilTransferDemo.sol\":8347:8523  function add(uint256 a, uint256 b) internal pure returns (uint256) {... */\n    tag_95:\n        /* \"contracts/MutilTransferDemo.sol\":8405:8412  uint256 */\n      0x00\n        /* \"contracts/MutilTransferDemo.sol\":8424:8433  uint256 c */\n      dup1\n        /* \"contracts/MutilTransferDemo.sol\":8440:8441  b */\n      dup3\n        /* \"contracts/MutilTransferDemo.sol\":8436:8437  a */\n      dup5\n        /* \"contracts/MutilTransferDemo.sol\":8436:8441  a + b */\n      tag_160\n      swap2\n      swap1\n      tag_93\n      jump\t// in\n    tag_160:\n        /* \"contracts/MutilTransferDemo.sol\":8424:8441  uint256 c = a + b */\n      swap1\n      pop\n        /* \"contracts/MutilTransferDemo.sol\":8464:8465  a */\n      dup4\n        /* \"contracts/MutilTransferDemo.sol\":8459:8460  c */\n      dup2\n        /* \"contracts/MutilTransferDemo.sol\":8459:8465  c >= a */\n      lt\n      iszero\n        /* \"contracts/MutilTransferDemo.sol\":8451:8497  require(c >= a, \"SafeMath: addition overflow\") */\n      tag_161\n      jumpi\n      mload(0x40)\n      0x08c379a000000000000000000000000000000000000000000000000000000000\n      dup2\n      mstore\n      0x04\n      add\n      tag_162\n      swap1\n      tag_163\n      jump\t// in\n    tag_162:\n      mload(0x40)\n      dup1\n      swap2\n      sub\n      swap1\n      revert\n    tag_161:\n        /* \"contracts/MutilTransferDemo.sol\":8515:8516  c */\n      dup1\n        /* \"contracts/MutilTransferDemo.sol\":8508:8516  return c */\n      swap2\n      pop\n      pop\n        /* \"contracts/MutilTransferDemo.sol\":8347:8523  function add(uint256 a, uint256 b) internal pure returns (uint256) {... */\n      swap3\n      swap2\n      pop\n      pop\n      jump\t// out\n        /* \"contracts/MutilTransferDemo.sol\":8892:9133  function mul(uint256 a, uint256 b) internal pure returns (uint256) {... */\n    tag_129:\n        /* \"contracts/MutilTransferDemo.sol\":8950:8957  uint256 */\n      0x00\n        /* \"contracts/MutilTransferDemo.sol\":8978:8979  0 */\n      dup1\n        /* \"contracts/MutilTransferDemo.sol\":8973:8974  a */\n      dup4\n        /* \"contracts/MutilTransferDemo.sol\":8973:8979  a == 0 */\n      sub\n        /* \"contracts/MutilTransferDemo.sol\":8969:9014  if (a == 0) {... */\n      tag_165\n      jumpi\n        /* \"contracts/MutilTransferDemo.sol\":9002:9003  0 */\n      0x00\n        /* \"contracts/MutilTransferDemo.sol\":8995:9003  return 0 */\n      swap1\n      pop\n      jump(tag_164)\n        /* \"contracts/MutilTransferDemo.sol\":8969:9014  if (a == 0) {... */\n    tag_165:\n        /* \"contracts/MutilTransferDemo.sol\":9024:9033  uint256 c */\n      0x00\n        /* \"contracts/MutilTransferDemo.sol\":9040:9041  b */\n      dup3\n        /* \"contracts/MutilTransferDemo.sol\":9036:9037  a */\n      dup5\n        /* \"contracts/MutilTransferDemo.sol\":9036:9041  a * b */\n      tag_166\n      swap2\n      swap1\n      tag_167\n      jump\t// in\n    tag_166:\n        /* \"contracts/MutilTransferDemo.sol\":9024:9041  uint256 c = a * b */\n      swap1\n      pop\n        /* \"contracts/MutilTransferDemo.sol\":9068:9069  b */\n      dup3\n        /* \"contracts/MutilTransferDemo.sol\":9063:9064  a */\n      dup5\n        /* \"contracts/MutilTransferDemo.sol\":9059:9060  c */\n      dup3\n        /* \"contracts/MutilTransferDemo.sol\":9059:9064  c / a */\n      tag_168\n      swap2\n      swap1\n      tag_169\n      jump\t// in\n    tag_168:\n        /* \"contracts/MutilTransferDemo.sol\":9059:9069  c / a == b */\n      eq\n        /* \"contracts/MutilTransferDemo.sol\":9051:9107  require(c / a == b, \"SafeMath: multiplication overflow\") */\n      tag_170\n      jumpi\n      mload(0x40)\n      0x08c379a000000000000000000000000000000000000000000000000000000000\n      dup2\n      mstore\n      0x04\n      add\n      tag_171\n      swap1\n      tag_172\n      jump\t// in\n    tag_171:\n      mload(0x40)\n      dup1\n      swap2\n      sub\n      swap1\n      revert\n    tag_170:\n        /* \"contracts/MutilTransferDemo.sol\":9125:9126  c */\n      dup1\n        /* \"contracts/MutilTransferDemo.sol\":9118:9126  return c */\n      swap2\n      pop\n      pop\n        /* \"contracts/MutilTransferDemo.sol\":8892:9133  function mul(uint256 a, uint256 b) internal pure returns (uint256) {... */\n    tag_164:\n      swap3\n      swap2\n      pop\n      pop\n      jump\t// out\n        /* \"contracts/MutilTransferDemo.sol\":6672:7080  function _callOptionalReturn(IERC20 token, bytes memory data) private {... */\n    tag_158:\n        /* \"contracts/MutilTransferDemo.sol\":6752:6775  bytes memory returndata */\n      0x00\n        /* \"contracts/MutilTransferDemo.sol\":6778:6881  address(token).functionCall(... */\n      tag_174\n        /* \"contracts/MutilTransferDemo.sol\":6819:6823  data */\n      dup3\n        /* \"contracts/MutilTransferDemo.sol\":6778:6881  address(token).functionCall(... */\n      mload(0x40)\n      dup1\n      0x40\n      add\n      0x40\n      mstore\n      dup1\n      0x20\n      dup2\n      mstore\n      0x20\n      add\n      0x5361666545524332303a206c6f772d6c6576656c2063616c6c206661696c6564\n      dup2\n      mstore\n      pop\n        /* \"contracts/MutilTransferDemo.sol\":6786:6791  token */\n      dup6\n        /* \"contracts/MutilTransferDemo.sol\":6778:6805  address(token).functionCall */\n      0xffffffffffffffffffffffffffffffffffffffff\n      and\n      tag_175\n      swap1\n        /* \"contracts/MutilTransferDemo.sol\":6778:6881  address(token).functionCall(... */\n      swap3\n      swap2\n      swap1\n      0xffffffff\n      and\n      jump\t// in\n    tag_174:\n        /* \"contracts/MutilTransferDemo.sol\":6752:6881  bytes memory returndata = address(token).functionCall(... */\n      swap1\n      pop\n        /* \"contracts/MutilTransferDemo.sol\":6915:6916  0 */\n      0x00\n        /* \"contracts/MutilTransferDemo.sol\":6895:6905  returndata */\n      dup2\n        /* \"contracts/MutilTransferDemo.sol\":6895:6912  returndata.length */\n      mload\n        /* \"contracts/MutilTransferDemo.sol\":6895:6916  returndata.length > 0 */\n      gt\n        /* \"contracts/MutilTransferDemo.sol\":6891:7074  if (returndata.length > 0) {... */\n      iszero\n      tag_176\n      jumpi\n        /* \"contracts/MutilTransferDemo.sol\":6968:6978  returndata */\n      dup1\n        /* \"contracts/MutilTransferDemo.sol\":6957:6987  abi.decode(returndata, (bool)) */\n      dup1\n      0x20\n      add\n      swap1\n      mload\n      dup2\n      add\n      swap1\n      tag_177\n      swap2\n      swap1\n      tag_178\n      jump\t// in\n    tag_177:\n        /* \"contracts/MutilTransferDemo.sol\":6932:7063  require(... */\n      tag_179\n      jumpi\n      mload(0x40)\n      0x08c379a000000000000000000000000000000000000000000000000000000000\n      dup2\n      mstore\n      0x04\n      add\n      tag_180\n      swap1\n      tag_181\n      jump\t// in\n    tag_180:\n      mload(0x40)\n      dup1\n      swap2\n      sub\n      swap1\n      revert\n    tag_179:\n        /* \"contracts/MutilTransferDemo.sol\":6891:7074  if (returndata.length > 0) {... */\n    tag_176:\n        /* \"contracts/MutilTransferDemo.sol\":6742:7080  {... */\n      pop\n        /* \"contracts/MutilTransferDemo.sol\":6672:7080  function _callOptionalReturn(IERC20 token, bytes memory data) private {... */\n      pop\n      pop\n      jump\t// out\n        /* \"contracts/MutilTransferDemo.sol\":1525:1748  function functionCall(... */\n    tag_175:\n        /* \"contracts/MutilTransferDemo.sol\":1658:1670  bytes memory */\n      0x60\n        /* \"contracts/MutilTransferDemo.sol\":1689:1741  functionCallWithValue(target, data, 0, errorMessage) */\n      tag_183\n        /* \"contracts/MutilTransferDemo.sol\":1711:1717  target */\n      dup5\n        /* \"contracts/MutilTransferDemo.sol\":1719:1723  data */\n      dup5\n        /* \"contracts/MutilTransferDemo.sol\":1725:1726  0 */\n      0x00\n        /* \"contracts/MutilTransferDemo.sol\":1728:1740  errorMessage */\n      dup6\n        /* \"contracts/MutilTransferDemo.sol\":1689:1710  functionCallWithValue */\n      tag_184\n        /* \"contracts/MutilTransferDemo.sol\":1689:1741  functionCallWithValue(target, data, 0, errorMessage) */\n      jump\t// in\n    tag_183:\n        /* \"contracts/MutilTransferDemo.sol\":1682:1741  return functionCallWithValue(target, data, 0, errorMessage) */\n      swap1\n      pop\n        /* \"contracts/MutilTransferDemo.sol\":1525:1748  function functionCall(... */\n      swap4\n      swap3\n      pop\n      pop\n      pop\n      jump\t// out\n        /* \"contracts/MutilTransferDemo.sol\":2104:2659  function functionCallWithValue(... */\n    tag_184:\n        /* \"contracts/MutilTransferDemo.sol\":2269:2281  bytes memory */\n      0x60\n        /* \"contracts/MutilTransferDemo.sol\":2339:2344  value */\n      dup3\n        /* \"contracts/MutilTransferDemo.sol\":2314:2335  address(this).balance */\n      selfbalance\n        /* \"contracts/MutilTransferDemo.sol\":2314:2344  address(this).balance >= value */\n      lt\n      iszero\n        /* \"contracts/MutilTransferDemo.sol\":2293:2408  require(... */\n      tag_186\n      jumpi\n      mload(0x40)\n      0x08c379a000000000000000000000000000000000000000000000000000000000\n      dup2\n      mstore\n      0x04\n      add\n      tag_187\n      swap1\n      tag_188\n      jump\t// in\n    tag_187:\n      mload(0x40)\n      dup1\n      swap2\n      sub\n      swap1\n      revert\n    tag_186:\n        /* \"contracts/MutilTransferDemo.sol\":2426:2444  isContract(target) */\n      tag_189\n        /* \"contracts/MutilTransferDemo.sol\":2437:2443  target */\n      dup6\n        /* \"contracts/MutilTransferDemo.sol\":2426:2436  isContract */\n      tag_190\n        /* \"contracts/MutilTransferDemo.sol\":2426:2444  isContract(target) */\n      jump\t// in\n    tag_189:\n        /* \"contracts/MutilTransferDemo.sol\":2418:2478  require(isContract(target), \"Address: call to non-contract\") */\n      tag_191\n      jumpi\n      mload(0x40)\n      0x08c379a000000000000000000000000000000000000000000000000000000000\n      dup2\n      mstore\n      0x04\n      add\n      tag_192\n      swap1\n      tag_193\n      jump\t// in\n    tag_192:\n      mload(0x40)\n      dup1\n      swap2\n      sub\n      swap1\n      revert\n    tag_191:\n        /* \"contracts/MutilTransferDemo.sol\":2490:2502  bool success */\n      0x00\n        /* \"contracts/MutilTransferDemo.sol\":2504:2527  bytes memory returndata */\n      dup1\n        /* \"contracts/MutilTransferDemo.sol\":2531:2537  target */\n      dup7\n        /* \"contracts/MutilTransferDemo.sol\":2531:2542  target.call */\n      0xffffffffffffffffffffffffffffffffffffffff\n      and\n        /* \"contracts/MutilTransferDemo.sol\":2550:2555  value */\n      dup6\n        /* \"contracts/MutilTransferDemo.sol\":2570:2574  data */\n      dup8\n        /* \"contracts/MutilTransferDemo.sol\":2531:2584  target.call{value: value}(... */\n      mload(0x40)\n      tag_194\n      swap2\n      swap1\n      tag_195\n      jump\t// in\n    tag_194:\n      0x00\n      mload(0x40)\n      dup1\n      dup4\n      sub\n      dup2\n      dup6\n      dup8\n      gas\n      call\n      swap3\n      pop\n      pop\n      pop\n      returndatasize\n      dup1\n      0x00\n      dup2\n      eq\n      tag_198\n      jumpi\n      mload(0x40)\n      swap2\n      pop\n      and(add(returndatasize, 0x3f), not(0x1f))\n      dup3\n      add\n      0x40\n      mstore\n      returndatasize\n      dup3\n      mstore\n      returndatasize\n      0x00\n      0x20\n      dup5\n      add\n      returndatacopy\n      jump(tag_197)\n    tag_198:\n      0x60\n      swap2\n      pop\n    tag_197:\n      pop\n        /* \"contracts/MutilTransferDemo.sol\":2489:2584  (bool success, bytes memory returndata) = target.call{value: value}(... */\n      swap2\n      pop\n      swap2\n      pop\n        /* \"contracts/MutilTransferDemo.sol\":2601:2652  verifyCallResult(success, returndata, errorMessage) */\n      tag_199\n        /* \"contracts/MutilTransferDemo.sol\":2618:2625  success */\n      dup3\n        /* \"contracts/MutilTransferDemo.sol\":2627:2637  returndata */\n      dup3\n        /* \"contracts/MutilTransferDemo.sol\":2639:2651  errorMessage */\n      dup7\n        /* \"contracts/MutilTransferDemo.sol\":2601:2617  verifyCallResult */\n      tag_200\n        /* \"contracts/MutilTransferDemo.sol\":2601:2652  verifyCallResult(success, returndata, errorMessage) */\n      jump\t// in\n    tag_199:\n        /* \"contracts/MutilTransferDemo.sol\":2594:2652  return verifyCallResult(success, returndata, errorMessage) */\n      swap3\n      pop\n      pop\n      pop\n        /* \"contracts/MutilTransferDemo.sol\":2104:2659  function functionCallWithValue(... */\n      swap5\n      swap4\n      pop\n      pop\n      pop\n      pop\n      jump\t// out\n        /* \"contracts/MutilTransferDemo.sol\":821:934  function isContract(address account) internal view returns (bool) {... */\n    tag_190:\n        /* \"contracts/MutilTransferDemo.sol\":881:885  bool */\n      0x00\n        /* \"contracts/MutilTransferDemo.sol\":926:927  0 */\n      dup1\n        /* \"contracts/MutilTransferDemo.sol\":904:911  account */\n      dup3\n        /* \"contracts/MutilTransferDemo.sol\":904:923  account.code.length */\n      0xffffffffffffffffffffffffffffffffffffffff\n      and\n      extcodesize\n        /* \"contracts/MutilTransferDemo.sol\":904:927  account.code.length > 0 */\n      gt\n        /* \"contracts/MutilTransferDemo.sol\":897:927  return account.code.length > 0 */\n      swap1\n      pop\n        /* \"contracts/MutilTransferDemo.sol\":821:934  function isContract(address account) internal view returns (bool) {... */\n      swap2\n      swap1\n      pop\n      jump\t// out\n        /* \"contracts/MutilTransferDemo.sol\":4053:4586  function verifyCallResult(... */\n    tag_200:\n        /* \"contracts/MutilTransferDemo.sol\":4199:4211  bytes memory */\n      0x60\n        /* \"contracts/MutilTransferDemo.sol\":4227:4234  success */\n      dup4\n        /* \"contracts/MutilTransferDemo.sol\":4223:4580  if (success) {... */\n      iszero\n      tag_203\n      jumpi\n        /* \"contracts/MutilTransferDemo.sol\":4257:4267  returndata */\n      dup3\n        /* \"contracts/MutilTransferDemo.sol\":4250:4267  return returndata */\n      swap1\n      pop\n      jump(tag_202)\n        /* \"contracts/MutilTransferDemo.sol\":4223:4580  if (success) {... */\n    tag_203:\n        /* \"contracts/MutilTransferDemo.sol\":4322:4323  0 */\n      0x00\n        /* \"contracts/MutilTransferDemo.sol\":4302:4312  returndata */\n      dup4\n        /* \"contracts/MutilTransferDemo.sol\":4302:4319  returndata.length */\n      mload\n        /* \"contracts/MutilTransferDemo.sol\":4302:4323  returndata.length > 0 */\n      gt\n        /* \"contracts/MutilTransferDemo.sol\":4298:4570  if (returndata.length > 0) {... */\n      iszero\n      tag_205\n      jumpi\n        /* \"contracts/MutilTransferDemo.sol\":4403:4413  returndata */\n      dup3\n        /* \"contracts/MutilTransferDemo.sol\":4397:4414  mload(returndata) */\n      mload\n        /* \"contracts/MutilTransferDemo.sol\":4463:4478  returndata_size */\n      dup1\n        /* \"contracts/MutilTransferDemo.sol\":4450:4460  returndata */\n      dup5\n        /* \"contracts/MutilTransferDemo.sol\":4446:4448  32 */\n      0x20\n        /* \"contracts/MutilTransferDemo.sol\":4442:4461  add(32, returndata) */\n      add\n        /* \"contracts/MutilTransferDemo.sol\":4435:4479  revert(add(32, returndata), returndata_size) */\n      revert\n        /* \"contracts/MutilTransferDemo.sol\":4298:4570  if (returndata.length > 0) {... */\n    tag_205:\n        /* \"contracts/MutilTransferDemo.sol\":4542:4554  errorMessage */\n      dup2\n        /* \"contracts/MutilTransferDemo.sol\":4535:4555  revert(errorMessage) */\n      mload(0x40)\n      0x08c379a000000000000000000000000000000000000000000000000000000000\n      dup2\n      mstore\n      0x04\n      add\n      tag_207\n      swap2\n      swap1\n      tag_208\n      jump\t// in\n    tag_207:\n      mload(0x40)\n      dup1\n      swap2\n      sub\n      swap1\n      revert\n        /* \"contracts/MutilTransferDemo.sol\":4053:4586  function verifyCallResult(... */\n    tag_202:\n      swap4\n      swap3\n      pop\n      pop\n      pop\n      jump\t// out\n        /* \"#utility.yul\":7:82   */\n    tag_209:\n        /* \"#utility.yul\":40:46   */\n      0x00\n        /* \"#utility.yul\":73:75   */\n      0x40\n        /* \"#utility.yul\":67:76   */\n      mload\n        /* \"#utility.yul\":57:76   */\n      swap1\n      pop\n        /* \"#utility.yul\":7:82   */\n      swap1\n      jump\t// out\n        /* \"#utility.yul\":88:205   */\n    tag_210:\n        /* \"#utility.yul\":197:198   */\n      0x00\n        /* \"#utility.yul\":194:195   */\n      dup1\n        /* \"#utility.yul\":187:199   */\n      revert\n        /* \"#utility.yul\":211:328   */\n    tag_211:\n        /* \"#utility.yul\":320:321   */\n      0x00\n        /* \"#utility.yul\":317:318   */\n      dup1\n        /* \"#utility.yul\":310:322   */\n      revert\n        /* \"#utility.yul\":334:411   */\n    tag_212:\n        /* \"#utility.yul\":371:378   */\n      0x00\n        /* \"#utility.yul\":400:405   */\n      dup2\n        /* \"#utility.yul\":389:405   */\n      swap1\n      pop\n        /* \"#utility.yul\":334:411   */\n      swap2\n      swap1\n      pop\n      jump\t// out\n        /* \"#utility.yul\":417:539   */\n    tag_213:\n        /* \"#utility.yul\":490:514   */\n      tag_275\n        /* \"#utility.yul\":508:513   */\n      dup2\n        /* \"#utility.yul\":490:514   */\n      tag_212\n      jump\t// in\n    tag_275:\n        /* \"#utility.yul\":483:488   */\n      dup2\n        /* \"#utility.yul\":480:515   */\n      eq\n        /* \"#utility.yul\":470:533   */\n      tag_276\n      jumpi\n        /* \"#utility.yul\":529:530   */\n      0x00\n        /* \"#utility.yul\":526:527   */\n      dup1\n        /* \"#utility.yul\":519:531   */\n      revert\n        /* \"#utility.yul\":470:533   */\n    tag_276:\n        /* \"#utility.yul\":417:539   */\n      pop\n      jump\t// out\n        /* \"#utility.yul\":545:684   */\n    tag_214:\n        /* \"#utility.yul\":591:596   */\n      0x00\n        /* \"#utility.yul\":629:635   */\n      dup2\n        /* \"#utility.yul\":616:636   */\n      calldataload\n        /* \"#utility.yul\":607:636   */\n      swap1\n      pop\n        /* \"#utility.yul\":645:678   */\n      tag_278\n        /* \"#utility.yul\":672:677   */\n      dup2\n        /* \"#utility.yul\":645:678   */\n      tag_213\n      jump\t// in\n    tag_278:\n        /* \"#utility.yul\":545:684   */\n      swap3\n      swap2\n      pop\n      pop\n      jump\t// out\n        /* \"#utility.yul\":690:1019   */\n    tag_15:\n        /* \"#utility.yul\":749:755   */\n      0x00\n        /* \"#utility.yul\":798:800   */\n      0x20\n        /* \"#utility.yul\":786:795   */\n      dup3\n        /* \"#utility.yul\":777:784   */\n      dup5\n        /* \"#utility.yul\":773:796   */\n      sub\n        /* \"#utility.yul\":769:801   */\n      slt\n        /* \"#utility.yul\":766:885   */\n      iszero\n      tag_280\n      jumpi\n        /* \"#utility.yul\":804:883   */\n      tag_281\n      tag_210\n      jump\t// in\n    tag_281:\n        /* \"#utility.yul\":766:885   */\n    tag_280:\n        /* \"#utility.yul\":924:925   */\n      0x00\n        /* \"#utility.yul\":949:1002   */\n      tag_282\n        /* \"#utility.yul\":994:1001   */\n      dup5\n        /* \"#utility.yul\":985:991   */\n      dup3\n        /* \"#utility.yul\":974:983   */\n      dup6\n        /* \"#utility.yul\":970:992   */\n      add\n        /* \"#utility.yul\":949:1002   */\n      tag_214\n      jump\t// in\n    tag_282:\n        /* \"#utility.yul\":939:1002   */\n      swap2\n      pop\n        /* \"#utility.yul\":895:1012   */\n      pop\n        /* \"#utility.yul\":690:1019   */\n      swap3\n      swap2\n      pop\n      pop\n      jump\t// out\n        /* \"#utility.yul\":1025:1151   */\n    tag_215:\n        /* \"#utility.yul\":1062:1069   */\n      0x00\n        /* \"#utility.yul\":1102:1144   */\n      0xffffffffffffffffffffffffffffffffffffffff\n        /* \"#utility.yul\":1095:1100   */\n      dup3\n        /* \"#utility.yul\":1091:1145   */\n      and\n        /* \"#utility.yul\":1080:1145   */\n      swap1\n      pop\n        /* \"#utility.yul\":1025:1151   */\n      swap2\n      swap1\n      pop\n      jump\t// out\n        /* \"#utility.yul\":1157:1253   */\n    tag_216:\n        /* \"#utility.yul\":1194:1201   */\n      0x00\n        /* \"#utility.yul\":1223:1247   */\n      tag_285\n        /* \"#utility.yul\":1241:1246   */\n      dup3\n        /* \"#utility.yul\":1223:1247   */\n      tag_215\n      jump\t// in\n    tag_285:\n        /* \"#utility.yul\":1212:1247   */\n      swap1\n      pop\n        /* \"#utility.yul\":1157:1253   */\n      swap2\n      swap1\n      pop\n      jump\t// out\n        /* \"#utility.yul\":1259:1381   */\n    tag_217:\n        /* \"#utility.yul\":1332:1356   */\n      tag_287\n        /* \"#utility.yul\":1350:1355   */\n      dup2\n        /* \"#utility.yul\":1332:1356   */\n      tag_216\n      jump\t// in\n    tag_287:\n        /* \"#utility.yul\":1325:1330   */\n      dup2\n        /* \"#utility.yul\":1322:1357   */\n      eq\n        /* \"#utility.yul\":1312:1375   */\n      tag_288\n      jumpi\n        /* \"#utility.yul\":1371:1372   */\n      0x00\n        /* \"#utility.yul\":1368:1369   */\n      dup1\n        /* \"#utility.yul\":1361:1373   */\n      revert\n        /* \"#utility.yul\":1312:1375   */\n    tag_288:\n        /* \"#utility.yul\":1259:1381   */\n      pop\n      jump\t// out\n        /* \"#utility.yul\":1387:1526   */\n    tag_218:\n        /* \"#utility.yul\":1433:1438   */\n      0x00\n        /* \"#utility.yul\":1471:1477   */\n      dup2\n        /* \"#utility.yul\":1458:1478   */\n      calldataload\n        /* \"#utility.yul\":1449:1478   */\n      swap1\n      pop\n        /* \"#utility.yul\":1487:1520   */\n      tag_290\n        /* \"#utility.yul\":1514:1519   */\n      dup2\n        /* \"#utility.yul\":1487:1520   */\n      tag_217\n      jump\t// in\n    tag_290:\n        /* \"#utility.yul\":1387:1526   */\n      swap3\n      swap2\n      pop\n      pop\n      jump\t// out\n        /* \"#utility.yul\":1532:1649   */\n    tag_219:\n        /* \"#utility.yul\":1641:1642   */\n      0x00\n        /* \"#utility.yul\":1638:1639   */\n      dup1\n        /* \"#utility.yul\":1631:1643   */\n      revert\n        /* \"#utility.yul\":1655:1757   */\n    tag_220:\n        /* \"#utility.yul\":1696:1702   */\n      0x00\n        /* \"#utility.yul\":1747:1749   */\n      0x1f\n        /* \"#utility.yul\":1743:1750   */\n      not\n        /* \"#utility.yul\":1738:1740   */\n      0x1f\n        /* \"#utility.yul\":1731:1736   */\n      dup4\n        /* \"#utility.yul\":1727:1741   */\n      add\n        /* \"#utility.yul\":1723:1751   */\n      and\n        /* \"#utility.yul\":1713:1751   */\n      swap1\n      pop\n        /* \"#utility.yul\":1655:1757   */\n      swap2\n      swap1\n      pop\n      jump\t// out\n        /* \"#utility.yul\":1763:1943   */\n    tag_221:\n        /* \"#utility.yul\":1811:1888   */\n      0x4e487b7100000000000000000000000000000000000000000000000000000000\n        /* \"#utility.yul\":1808:1809   */\n      0x00\n        /* \"#utility.yul\":1801:1889   */\n      mstore\n        /* \"#utility.yul\":1908:1912   */\n      0x41\n        /* \"#utility.yul\":1905:1906   */\n      0x04\n        /* \"#utility.yul\":1898:1913   */\n      mstore\n        /* \"#utility.yul\":1932:1936   */\n      0x24\n        /* \"#utility.yul\":1929:1930   */\n      0x00\n        /* \"#utility.yul\":1922:1937   */\n      revert\n        /* \"#utility.yul\":1949:2230   */\n    tag_222:\n        /* \"#utility.yul\":2032:2059   */\n      tag_295\n        /* \"#utility.yul\":2054:2058   */\n      dup3\n        /* \"#utility.yul\":2032:2059   */\n      tag_220\n      jump\t// in\n    tag_295:\n        /* \"#utility.yul\":2024:2030   */\n      dup2\n        /* \"#utility.yul\":2020:2060   */\n      add\n        /* \"#utility.yul\":2162:2168   */\n      dup2\n        /* \"#utility.yul\":2150:2160   */\n      dup2\n        /* \"#utility.yul\":2147:2169   */\n      lt\n        /* \"#utility.yul\":2126:2144   */\n      0xffffffffffffffff\n        /* \"#utility.yul\":2114:2124   */\n      dup3\n        /* \"#utility.yul\":2111:2145   */\n      gt\n        /* \"#utility.yul\":2108:2170   */\n      or\n        /* \"#utility.yul\":2105:2193   */\n      iszero\n      tag_296\n      jumpi\n        /* \"#utility.yul\":2173:2191   */\n      tag_297\n      tag_221\n      jump\t// in\n    tag_297:\n        /* \"#utility.yul\":2105:2193   */\n    tag_296:\n        /* \"#utility.yul\":2213:2223   */\n      dup1\n        /* \"#utility.yul\":2209:2211   */\n      0x40\n        /* \"#utility.yul\":2202:2224   */\n      mstore\n        /* \"#utility.yul\":1992:2230   */\n      pop\n        /* \"#utility.yul\":1949:2230   */\n      pop\n      pop\n      jump\t// out\n        /* \"#utility.yul\":2236:2365   */\n    tag_223:\n        /* \"#utility.yul\":2270:2276   */\n      0x00\n        /* \"#utility.yul\":2297:2317   */\n      tag_299\n      tag_209\n      jump\t// in\n    tag_299:\n        /* \"#utility.yul\":2287:2317   */\n      swap1\n      pop\n        /* \"#utility.yul\":2326:2359   */\n      tag_300\n        /* \"#utility.yul\":2354:2358   */\n      dup3\n        /* \"#utility.yul\":2346:2352   */\n      dup3\n        /* \"#utility.yul\":2326:2359   */\n      tag_222\n      jump\t// in\n    tag_300:\n        /* \"#utility.yul\":2236:2365   */\n      swap2\n      swap1\n      pop\n      jump\t// out\n        /* \"#utility.yul\":2371:2682   */\n    tag_224:\n        /* \"#utility.yul\":2448:2452   */\n      0x00\n        /* \"#utility.yul\":2538:2556   */\n      0xffffffffffffffff\n        /* \"#utility.yul\":2530:2536   */\n      dup3\n        /* \"#utility.yul\":2527:2557   */\n      gt\n        /* \"#utility.yul\":2524:2580   */\n      iszero\n      tag_302\n      jumpi\n        /* \"#utility.yul\":2560:2578   */\n      tag_303\n      tag_221\n      jump\t// in\n    tag_303:\n        /* \"#utility.yul\":2524:2580   */\n    tag_302:\n        /* \"#utility.yul\":2610:2614   */\n      0x20\n        /* \"#utility.yul\":2602:2608   */\n      dup3\n        /* \"#utility.yul\":2598:2615   */\n      mul\n        /* \"#utility.yul\":2590:2615   */\n      swap1\n      pop\n        /* \"#utility.yul\":2670:2674   */\n      0x20\n        /* \"#utility.yul\":2664:2668   */\n      dup2\n        /* \"#utility.yul\":2660:2675   */\n      add\n        /* \"#utility.yul\":2652:2675   */\n      swap1\n      pop\n        /* \"#utility.yul\":2371:2682   */\n      swap2\n      swap1\n      pop\n      jump\t// out\n        /* \"#utility.yul\":2688:2805   */\n    tag_225:\n        /* \"#utility.yul\":2797:2798   */\n      0x00\n        /* \"#utility.yul\":2794:2795   */\n      dup1\n        /* \"#utility.yul\":2787:2799   */\n      revert\n        /* \"#utility.yul\":2828:3538   */\n    tag_226:\n        /* \"#utility.yul\":2924:2929   */\n      0x00\n        /* \"#utility.yul\":2949:3030   */\n      tag_306\n        /* \"#utility.yul\":2965:3029   */\n      tag_307\n        /* \"#utility.yul\":3022:3028   */\n      dup5\n        /* \"#utility.yul\":2965:3029   */\n      tag_224\n      jump\t// in\n    tag_307:\n        /* \"#utility.yul\":2949:3030   */\n      tag_223\n      jump\t// in\n    tag_306:\n        /* \"#utility.yul\":2940:3030   */\n      swap1\n      pop\n        /* \"#utility.yul\":3050:3055   */\n      dup1\n        /* \"#utility.yul\":3079:3085   */\n      dup4\n        /* \"#utility.yul\":3072:3077   */\n      dup3\n        /* \"#utility.yul\":3065:3086   */\n      mstore\n        /* \"#utility.yul\":3113:3117   */\n      0x20\n        /* \"#utility.yul\":3106:3111   */\n      dup3\n        /* \"#utility.yul\":3102:3118   */\n      add\n        /* \"#utility.yul\":3095:3118   */\n      swap1\n      pop\n        /* \"#utility.yul\":3166:3170   */\n      0x20\n        /* \"#utility.yul\":3158:3164   */\n      dup5\n        /* \"#utility.yul\":3154:3171   */\n      mul\n        /* \"#utility.yul\":3146:3152   */\n      dup4\n        /* \"#utility.yul\":3142:3172   */\n      add\n        /* \"#utility.yul\":3195:3198   */\n      dup6\n        /* \"#utility.yul\":3187:3193   */\n      dup2\n        /* \"#utility.yul\":3184:3199   */\n      gt\n        /* \"#utility.yul\":3181:3303   */\n      iszero\n      tag_308\n      jumpi\n        /* \"#utility.yul\":3214:3293   */\n      tag_309\n      tag_225\n      jump\t// in\n    tag_309:\n        /* \"#utility.yul\":3181:3303   */\n    tag_308:\n        /* \"#utility.yul\":3329:3335   */\n      dup4\n        /* \"#utility.yul\":3312:3532   */\n    tag_310:\n        /* \"#utility.yul\":3346:3352   */\n      dup2\n        /* \"#utility.yul\":3341:3344   */\n      dup2\n        /* \"#utility.yul\":3338:3353   */\n      lt\n        /* \"#utility.yul\":3312:3532   */\n      iszero\n      tag_312\n      jumpi\n        /* \"#utility.yul\":3421:3424   */\n      dup1\n        /* \"#utility.yul\":3450:3487   */\n      tag_313\n        /* \"#utility.yul\":3483:3486   */\n      dup9\n        /* \"#utility.yul\":3471:3481   */\n      dup3\n        /* \"#utility.yul\":3450:3487   */\n      tag_218\n      jump\t// in\n    tag_313:\n        /* \"#utility.yul\":3445:3448   */\n      dup5\n        /* \"#utility.yul\":3438:3488   */\n      mstore\n        /* \"#utility.yul\":3517:3521   */\n      0x20\n        /* \"#utility.yul\":3512:3515   */\n      dup5\n        /* \"#utility.yul\":3508:3522   */\n      add\n        /* \"#utility.yul\":3501:3522   */\n      swap4\n      pop\n        /* \"#utility.yul\":3388:3532   */\n      pop\n        /* \"#utility.yul\":3372:3376   */\n      0x20\n        /* \"#utility.yul\":3367:3370   */\n      dup2\n        /* \"#utility.yul\":3363:3377   */\n      add\n        /* \"#utility.yul\":3356:3377   */\n      swap1\n      pop\n        /* \"#utility.yul\":3312:3532   */\n      jump(tag_310)\n    tag_312:\n        /* \"#utility.yul\":3316:3337   */\n      pop\n        /* \"#utility.yul\":2930:3538   */\n      pop\n      pop\n        /* \"#utility.yul\":2828:3538   */\n      swap4\n      swap3\n      pop\n      pop\n      pop\n      jump\t// out\n        /* \"#utility.yul\":3561:3931   */\n    tag_227:\n        /* \"#utility.yul\":3632:3637   */\n      0x00\n        /* \"#utility.yul\":3681:3684   */\n      dup3\n        /* \"#utility.yul\":3674:3678   */\n      0x1f\n        /* \"#utility.yul\":3666:3672   */\n      dup4\n        /* \"#utility.yul\":3662:3679   */\n      add\n        /* \"#utility.yul\":3658:3685   */\n      slt\n        /* \"#utility.yul\":3648:3770   */\n      tag_315\n      jumpi\n        /* \"#utility.yul\":3689:3768   */\n      tag_316\n      tag_219\n      jump\t// in\n    tag_316:\n        /* \"#utility.yul\":3648:3770   */\n    tag_315:\n        /* \"#utility.yul\":3806:3812   */\n      dup2\n        /* \"#utility.yul\":3793:3813   */\n      calldataload\n        /* \"#utility.yul\":3831:3925   */\n      tag_317\n        /* \"#utility.yul\":3921:3924   */\n      dup5\n        /* \"#utility.yul\":3913:3919   */\n      dup3\n        /* \"#utility.yul\":3906:3910   */\n      0x20\n        /* \"#utility.yul\":3898:3904   */\n      dup7\n        /* \"#utility.yul\":3894:3911   */\n      add\n        /* \"#utility.yul\":3831:3925   */\n      tag_226\n      jump\t// in\n    tag_317:\n        /* \"#utility.yul\":3822:3925   */\n      swap2\n      pop\n        /* \"#utility.yul\":3638:3931   */\n      pop\n        /* \"#utility.yul\":3561:3931   */\n      swap3\n      swap2\n      pop\n      pop\n      jump\t// out\n        /* \"#utility.yul\":3937:4766   */\n    tag_22:\n        /* \"#utility.yul\":4039:4045   */\n      0x00\n        /* \"#utility.yul\":4047:4053   */\n      dup1\n        /* \"#utility.yul\":4055:4061   */\n      0x00\n        /* \"#utility.yul\":4104:4106   */\n      0x60\n        /* \"#utility.yul\":4092:4101   */\n      dup5\n        /* \"#utility.yul\":4083:4090   */\n      dup7\n        /* \"#utility.yul\":4079:4102   */\n      sub\n        /* \"#utility.yul\":4075:4107   */\n      slt\n        /* \"#utility.yul\":4072:4191   */\n      iszero\n      tag_319\n      jumpi\n        /* \"#utility.yul\":4110:4189   */\n      tag_320\n      tag_210\n      jump\t// in\n    tag_320:\n        /* \"#utility.yul\":4072:4191   */\n    tag_319:\n        /* \"#utility.yul\":4230:4231   */\n      0x00\n        /* \"#utility.yul\":4255:4308   */\n      tag_321\n        /* \"#utility.yul\":4300:4307   */\n      dup7\n        /* \"#utility.yul\":4291:4297   */\n      dup3\n        /* \"#utility.yul\":4280:4289   */\n      dup8\n        /* \"#utility.yul\":4276:4298   */\n      add\n        /* \"#utility.yul\":4255:4308   */\n      tag_218\n      jump\t// in\n    tag_321:\n        /* \"#utility.yul\":4245:4308   */\n      swap4\n      pop\n        /* \"#utility.yul\":4201:4318   */\n      pop\n        /* \"#utility.yul\":4385:4387   */\n      0x20\n        /* \"#utility.yul\":4374:4383   */\n      dup5\n        /* \"#utility.yul\":4370:4388   */\n      add\n        /* \"#utility.yul\":4357:4389   */\n      calldataload\n        /* \"#utility.yul\":4416:4434   */\n      0xffffffffffffffff\n        /* \"#utility.yul\":4408:4414   */\n      dup2\n        /* \"#utility.yul\":4405:4435   */\n      gt\n        /* \"#utility.yul\":4402:4519   */\n      iszero\n      tag_322\n      jumpi\n        /* \"#utility.yul\":4438:4517   */\n      tag_323\n      tag_211\n      jump\t// in\n    tag_323:\n        /* \"#utility.yul\":4402:4519   */\n    tag_322:\n        /* \"#utility.yul\":4543:4621   */\n      tag_324\n        /* \"#utility.yul\":4613:4620   */\n      dup7\n        /* \"#utility.yul\":4604:4610   */\n      dup3\n        /* \"#utility.yul\":4593:4602   */\n      dup8\n        /* \"#utility.yul\":4589:4611   */\n      add\n        /* \"#utility.yul\":4543:4621   */\n      tag_227\n      jump\t// in\n    tag_324:\n        /* \"#utility.yul\":4533:4621   */\n      swap3\n      pop\n        /* \"#utility.yul\":4328:4631   */\n      pop\n        /* \"#utility.yul\":4670:4672   */\n      0x40\n        /* \"#utility.yul\":4696:4749   */\n      tag_325\n        /* \"#utility.yul\":4741:4748   */\n      dup7\n        /* \"#utility.yul\":4732:4738   */\n      dup3\n        /* \"#utility.yul\":4721:4730   */\n      dup8\n        /* \"#utility.yul\":4717:4739   */\n      add\n        /* \"#utility.yul\":4696:4749   */\n      tag_214\n      jump\t// in\n    tag_325:\n        /* \"#utility.yul\":4686:4749   */\n      swap2\n      pop\n        /* \"#utility.yul\":4641:4759   */\n      pop\n        /* \"#utility.yul\":3937:4766   */\n      swap3\n      pop\n      swap3\n      pop\n      swap3\n      jump\t// out\n        /* \"#utility.yul\":4772:4890   */\n    tag_228:\n        /* \"#utility.yul\":4859:4883   */\n      tag_327\n        /* \"#utility.yul\":4877:4882   */\n      dup2\n        /* \"#utility.yul\":4859:4883   */\n      tag_216\n      jump\t// in\n    tag_327:\n        /* \"#utility.yul\":4854:4857   */\n      dup3\n        /* \"#utility.yul\":4847:4884   */\n      mstore\n        /* \"#utility.yul\":4772:4890   */\n      pop\n      pop\n      jump\t// out\n        /* \"#utility.yul\":4896:5118   */\n    tag_28:\n        /* \"#utility.yul\":4989:4993   */\n      0x00\n        /* \"#utility.yul\":5027:5029   */\n      0x20\n        /* \"#utility.yul\":5016:5025   */\n      dup3\n        /* \"#utility.yul\":5012:5030   */\n      add\n        /* \"#utility.yul\":5004:5030   */\n      swap1\n      pop\n        /* \"#utility.yul\":5040:5111   */\n      tag_329\n        /* \"#utility.yul\":5108:5109   */\n      0x00\n        /* \"#utility.yul\":5097:5106   */\n      dup4\n        /* \"#utility.yul\":5093:5110   */\n      add\n        /* \"#utility.yul\":5084:5090   */\n      dup5\n        /* \"#utility.yul\":5040:5111   */\n      tag_228\n      jump\t// in\n    tag_329:\n        /* \"#utility.yul\":4896:5118   */\n      swap3\n      swap2\n      pop\n      pop\n      jump\t// out\n        /* \"#utility.yul\":5124:5443   */\n    tag_229:\n        /* \"#utility.yul\":5209:5213   */\n      0x00\n        /* \"#utility.yul\":5299:5317   */\n      0xffffffffffffffff\n        /* \"#utility.yul\":5291:5297   */\n      dup3\n        /* \"#utility.yul\":5288:5318   */\n      gt\n        /* \"#utility.yul\":5285:5341   */\n      iszero\n      tag_331\n      jumpi\n        /* \"#utility.yul\":5321:5339   */\n      tag_332\n      tag_221\n      jump\t// in\n    tag_332:\n        /* \"#utility.yul\":5285:5341   */\n    tag_331:\n        /* \"#utility.yul\":5371:5375   */\n      0x20\n        /* \"#utility.yul\":5363:5369   */\n      dup3\n        /* \"#utility.yul\":5359:5376   */\n      mul\n        /* \"#utility.yul\":5351:5376   */\n      swap1\n      pop\n        /* \"#utility.yul\":5431:5435   */\n      0x20\n        /* \"#utility.yul\":5425:5429   */\n      dup2\n        /* \"#utility.yul\":5421:5436   */\n      add\n        /* \"#utility.yul\":5413:5436   */\n      swap1\n      pop\n        /* \"#utility.yul\":5124:5443   */\n      swap2\n      swap1\n      pop\n      jump\t// out\n        /* \"#utility.yul\":5449:5553   */\n    tag_230:\n        /* \"#utility.yul\":5494:5501   */\n      0x00\n        /* \"#utility.yul\":5523:5547   */\n      tag_334\n        /* \"#utility.yul\":5541:5546   */\n      dup3\n        /* \"#utility.yul\":5523:5547   */\n      tag_215\n      jump\t// in\n    tag_334:\n        /* \"#utility.yul\":5512:5547   */\n      swap1\n      pop\n        /* \"#utility.yul\":5449:5553   */\n      swap2\n      swap1\n      pop\n      jump\t// out\n        /* \"#utility.yul\":5559:5697   */\n    tag_231:\n        /* \"#utility.yul\":5640:5672   */\n      tag_336\n        /* \"#utility.yul\":5666:5671   */\n      dup2\n        /* \"#utility.yul\":5640:5672   */\n      tag_230\n      jump\t// in\n    tag_336:\n        /* \"#utility.yul\":5633:5638   */\n      dup2\n        /* \"#utility.yul\":5630:5673   */\n      eq\n        /* \"#utility.yul\":5620:5691   */\n      tag_337\n      jumpi\n        /* \"#utility.yul\":5687:5688   */\n      0x00\n        /* \"#utility.yul\":5684:5685   */\n      dup1\n        /* \"#utility.yul\":5677:5689   */\n      revert\n        /* \"#utility.yul\":5620:5691   */\n    tag_337:\n        /* \"#utility.yul\":5559:5697   */\n      pop\n      jump\t// out\n        /* \"#utility.yul\":5703:5858   */\n    tag_232:\n        /* \"#utility.yul\":5757:5762   */\n      0x00\n        /* \"#utility.yul\":5795:5801   */\n      dup2\n        /* \"#utility.yul\":5782:5802   */\n      calldataload\n        /* \"#utility.yul\":5773:5802   */\n      swap1\n      pop\n        /* \"#utility.yul\":5811:5852   */\n      tag_339\n        /* \"#utility.yul\":5846:5851   */\n      dup2\n        /* \"#utility.yul\":5811:5852   */\n      tag_231\n      jump\t// in\n    tag_339:\n        /* \"#utility.yul\":5703:5858   */\n      swap3\n      swap2\n      pop\n      pop\n      jump\t// out\n        /* \"#utility.yul\":5889:6623   */\n    tag_233:\n        /* \"#utility.yul\":5993:5998   */\n      0x00\n        /* \"#utility.yul\":6018:6107   */\n      tag_341\n        /* \"#utility.yul\":6034:6106   */\n      tag_342\n        /* \"#utility.yul\":6099:6105   */\n      dup5\n        /* \"#utility.yul\":6034:6106   */\n      tag_229\n      jump\t// in\n    tag_342:\n        /* \"#utility.yul\":6018:6107   */\n      tag_223\n      jump\t// in\n    tag_341:\n        /* \"#utility.yul\":6009:6107   */\n      swap1\n      pop\n        /* \"#utility.yul\":6127:6132   */\n      dup1\n        /* \"#utility.yul\":6156:6162   */\n      dup4\n        /* \"#utility.yul\":6149:6154   */\n      dup3\n        /* \"#utility.yul\":6142:6163   */\n      mstore\n        /* \"#utility.yul\":6190:6194   */\n      0x20\n        /* \"#utility.yul\":6183:6188   */\n      dup3\n        /* \"#utility.yul\":6179:6195   */\n      add\n        /* \"#utility.yul\":6172:6195   */\n      swap1\n      pop\n        /* \"#utility.yul\":6243:6247   */\n      0x20\n        /* \"#utility.yul\":6235:6241   */\n      dup5\n        /* \"#utility.yul\":6231:6248   */\n      mul\n        /* \"#utility.yul\":6223:6229   */\n      dup4\n        /* \"#utility.yul\":6219:6249   */\n      add\n        /* \"#utility.yul\":6272:6275   */\n      dup6\n        /* \"#utility.yul\":6264:6270   */\n      dup2\n        /* \"#utility.yul\":6261:6276   */\n      gt\n        /* \"#utility.yul\":6258:6380   */\n      iszero\n      tag_343\n      jumpi\n        /* \"#utility.yul\":6291:6370   */\n      tag_344\n      tag_225\n      jump\t// in\n    tag_344:\n        /* \"#utility.yul\":6258:6380   */\n    tag_343:\n        /* \"#utility.yul\":6406:6412   */\n      dup4\n        /* \"#utility.yul\":6389:6617   */\n    tag_345:\n        /* \"#utility.yul\":6423:6429   */\n      dup2\n        /* \"#utility.yul\":6418:6421   */\n      dup2\n        /* \"#utility.yul\":6415:6430   */\n      lt\n        /* \"#utility.yul\":6389:6617   */\n      iszero\n      tag_347\n      jumpi\n        /* \"#utility.yul\":6498:6501   */\n      dup1\n        /* \"#utility.yul\":6527:6572   */\n      tag_348\n        /* \"#utility.yul\":6568:6571   */\n      dup9\n        /* \"#utility.yul\":6556:6566   */\n      dup3\n        /* \"#utility.yul\":6527:6572   */\n      tag_232\n      jump\t// in\n    tag_348:\n        /* \"#utility.yul\":6522:6525   */\n      dup5\n        /* \"#utility.yul\":6515:6573   */\n      mstore\n        /* \"#utility.yul\":6602:6606   */\n      0x20\n        /* \"#utility.yul\":6597:6600   */\n      dup5\n        /* \"#utility.yul\":6593:6607   */\n      add\n        /* \"#utility.yul\":6586:6607   */\n      swap4\n      pop\n        /* \"#utility.yul\":6465:6617   */\n      pop\n        /* \"#utility.yul\":6449:6453   */\n      0x20\n        /* \"#utility.yul\":6444:6447   */\n      dup2\n        /* \"#utility.yul\":6440:6454   */\n      add\n        /* \"#utility.yul\":6433:6454   */\n      swap1\n      pop\n        /* \"#utility.yul\":6389:6617   */\n      jump(tag_345)\n    tag_347:\n        /* \"#utility.yul\":6393:6414   */\n      pop\n        /* \"#utility.yul\":5999:6623   */\n      pop\n      pop\n        /* \"#utility.yul\":5889:6623   */\n      swap4\n      swap3\n      pop\n      pop\n      pop\n      jump\t// out\n        /* \"#utility.yul\":6654:7040   */\n    tag_234:\n        /* \"#utility.yul\":6733:6738   */\n      0x00\n        /* \"#utility.yul\":6782:6785   */\n      dup3\n        /* \"#utility.yul\":6775:6779   */\n      0x1f\n        /* \"#utility.yul\":6767:6773   */\n      dup4\n        /* \"#utility.yul\":6763:6780   */\n      add\n        /* \"#utility.yul\":6759:6786   */\n      slt\n        /* \"#utility.yul\":6749:6871   */\n      tag_350\n      jumpi\n        /* \"#utility.yul\":6790:6869   */\n      tag_351\n      tag_219\n      jump\t// in\n    tag_351:\n        /* \"#utility.yul\":6749:6871   */\n    tag_350:\n        /* \"#utility.yul\":6907:6913   */\n      dup2\n        /* \"#utility.yul\":6894:6914   */\n      calldataload\n        /* \"#utility.yul\":6932:7034   */\n      tag_352\n        /* \"#utility.yul\":7030:7033   */\n      dup5\n        /* \"#utility.yul\":7022:7028   */\n      dup3\n        /* \"#utility.yul\":7015:7019   */\n      0x20\n        /* \"#utility.yul\":7007:7013   */\n      dup7\n        /* \"#utility.yul\":7003:7020   */\n      add\n        /* \"#utility.yul\":6932:7034   */\n      tag_233\n      jump\t// in\n    tag_352:\n        /* \"#utility.yul\":6923:7034   */\n      swap2\n      pop\n        /* \"#utility.yul\":6739:7040   */\n      pop\n        /* \"#utility.yul\":6654:7040   */\n      swap3\n      swap2\n      pop\n      pop\n      jump\t// out\n        /* \"#utility.yul\":7046:7357   */\n    tag_235:\n        /* \"#utility.yul\":7123:7127   */\n      0x00\n        /* \"#utility.yul\":7213:7231   */\n      0xffffffffffffffff\n        /* \"#utility.yul\":7205:7211   */\n      dup3\n        /* \"#utility.yul\":7202:7232   */\n      gt\n        /* \"#utility.yul\":7199:7255   */\n      iszero\n      tag_354\n      jumpi\n        /* \"#utility.yul\":7235:7253   */\n      tag_355\n      tag_221\n      jump\t// in\n    tag_355:\n        /* \"#utility.yul\":7199:7255   */\n    tag_354:\n        /* \"#utility.yul\":7285:7289   */\n      0x20\n        /* \"#utility.yul\":7277:7283   */\n      dup3\n        /* \"#utility.yul\":7273:7290   */\n      mul\n        /* \"#utility.yul\":7265:7290   */\n      swap1\n      pop\n        /* \"#utility.yul\":7345:7349   */\n      0x20\n        /* \"#utility.yul\":7339:7343   */\n      dup2\n        /* \"#utility.yul\":7335:7350   */\n      add\n        /* \"#utility.yul\":7327:7350   */\n      swap1\n      pop\n        /* \"#utility.yul\":7046:7357   */\n      swap2\n      swap1\n      pop\n      jump\t// out\n        /* \"#utility.yul\":7380:8090   */\n    tag_236:\n        /* \"#utility.yul\":7476:7481   */\n      0x00\n        /* \"#utility.yul\":7501:7582   */\n      tag_357\n        /* \"#utility.yul\":7517:7581   */\n      tag_358\n        /* \"#utility.yul\":7574:7580   */\n      dup5\n        /* \"#utility.yul\":7517:7581   */\n      tag_235\n      jump\t// in\n    tag_358:\n        /* \"#utility.yul\":7501:7582   */\n      tag_223\n      jump\t// in\n    tag_357:\n        /* \"#utility.yul\":7492:7582   */\n      swap1\n      pop\n        /* \"#utility.yul\":7602:7607   */\n      dup1\n        /* \"#utility.yul\":7631:7637   */\n      dup4\n        /* \"#utility.yul\":7624:7629   */\n      dup3\n        /* \"#utility.yul\":7617:7638   */\n      mstore\n        /* \"#utility.yul\":7665:7669   */\n      0x20\n        /* \"#utility.yul\":7658:7663   */\n      dup3\n        /* \"#utility.yul\":7654:7670   */\n      add\n        /* \"#utility.yul\":7647:7670   */\n      swap1\n      pop\n        /* \"#utility.yul\":7718:7722   */\n      0x20\n        /* \"#utility.yul\":7710:7716   */\n      dup5\n        /* \"#utility.yul\":7706:7723   */\n      mul\n        /* \"#utility.yul\":7698:7704   */\n      dup4\n        /* \"#utility.yul\":7694:7724   */\n      add\n        /* \"#utility.yul\":7747:7750   */\n      dup6\n        /* \"#utility.yul\":7739:7745   */\n      dup2\n        /* \"#utility.yul\":7736:7751   */\n      gt\n        /* \"#utility.yul\":7733:7855   */\n      iszero\n      tag_359\n      jumpi\n        /* \"#utility.yul\":7766:7845   */\n      tag_360\n      tag_225\n      jump\t// in\n    tag_360:\n        /* \"#utility.yul\":7733:7855   */\n    tag_359:\n        /* \"#utility.yul\":7881:7887   */\n      dup4\n        /* \"#utility.yul\":7864:8084   */\n    tag_361:\n        /* \"#utility.yul\":7898:7904   */\n      dup2\n        /* \"#utility.yul\":7893:7896   */\n      dup2\n        /* \"#utility.yul\":7890:7905   */\n      lt\n        /* \"#utility.yul\":7864:8084   */\n      iszero\n      tag_363\n      jumpi\n        /* \"#utility.yul\":7973:7976   */\n      dup1\n        /* \"#utility.yul\":8002:8039   */\n      tag_364\n        /* \"#utility.yul\":8035:8038   */\n      dup9\n        /* \"#utility.yul\":8023:8033   */\n      dup3\n        /* \"#utility.yul\":8002:8039   */\n      tag_214\n      jump\t// in\n    tag_364:\n        /* \"#utility.yul\":7997:8000   */\n      dup5\n        /* \"#utility.yul\":7990:8040   */\n      mstore\n        /* \"#utility.yul\":8069:8073   */\n      0x20\n        /* \"#utility.yul\":8064:8067   */\n      dup5\n        /* \"#utility.yul\":8060:8074   */\n      add\n        /* \"#utility.yul\":8053:8074   */\n      swap4\n      pop\n        /* \"#utility.yul\":7940:8084   */\n      pop\n        /* \"#utility.yul\":7924:7928   */\n      0x20\n        /* \"#utility.yul\":7919:7922   */\n      dup2\n        /* \"#utility.yul\":7915:7929   */\n      add\n        /* \"#utility.yul\":7908:7929   */\n      swap1\n      pop\n        /* \"#utility.yul\":7864:8084   */\n      jump(tag_361)\n    tag_363:\n        /* \"#utility.yul\":7868:7889   */\n      pop\n        /* \"#utility.yul\":7482:8090   */\n      pop\n      pop\n        /* \"#utility.yul\":7380:8090   */\n      swap4\n      swap3\n      pop\n      pop\n      pop\n      jump\t// out\n        /* \"#utility.yul\":8113:8483   */\n    tag_237:\n        /* \"#utility.yul\":8184:8189   */\n      0x00\n        /* \"#utility.yul\":8233:8236   */\n      dup3\n        /* \"#utility.yul\":8226:8230   */\n      0x1f\n        /* \"#utility.yul\":8218:8224   */\n      dup4\n        /* \"#utility.yul\":8214:8231   */\n      add\n        /* \"#utility.yul\":8210:8237   */\n      slt\n        /* \"#utility.yul\":8200:8322   */\n      tag_366\n      jumpi\n        /* \"#utility.yul\":8241:8320   */\n      tag_367\n      tag_219\n      jump\t// in\n    tag_367:\n        /* \"#utility.yul\":8200:8322   */\n    tag_366:\n        /* \"#utility.yul\":8358:8364   */\n      dup2\n        /* \"#utility.yul\":8345:8365   */\n      calldataload\n        /* \"#utility.yul\":8383:8477   */\n      tag_368\n        /* \"#utility.yul\":8473:8476   */\n      dup5\n        /* \"#utility.yul\":8465:8471   */\n      dup3\n        /* \"#utility.yul\":8458:8462   */\n      0x20\n        /* \"#utility.yul\":8450:8456   */\n      dup7\n        /* \"#utility.yul\":8446:8463   */\n      add\n        /* \"#utility.yul\":8383:8477   */\n      tag_236\n      jump\t// in\n    tag_368:\n        /* \"#utility.yul\":8374:8477   */\n      swap2\n      pop\n        /* \"#utility.yul\":8190:8483   */\n      pop\n        /* \"#utility.yul\":8113:8483   */\n      swap3\n      swap2\n      pop\n      pop\n      jump\t// out\n        /* \"#utility.yul\":8489:9399   */\n    tag_31:\n        /* \"#utility.yul\":8615:8621   */\n      0x00\n        /* \"#utility.yul\":8623:8629   */\n      dup1\n        /* \"#utility.yul\":8672:8674   */\n      0x40\n        /* \"#utility.yul\":8660:8669   */\n      dup4\n        /* \"#utility.yul\":8651:8658   */\n      dup6\n        /* \"#utility.yul\":8647:8670   */\n      sub\n        /* \"#utility.yul\":8643:8675   */\n      slt\n        /* \"#utility.yul\":8640:8759   */\n      iszero\n      tag_370\n      jumpi\n        /* \"#utility.yul\":8678:8757   */\n      tag_371\n      tag_210\n      jump\t// in\n    tag_371:\n        /* \"#utility.yul\":8640:8759   */\n    tag_370:\n        /* \"#utility.yul\":8826:8827   */\n      0x00\n        /* \"#utility.yul\":8815:8824   */\n      dup4\n        /* \"#utility.yul\":8811:8828   */\n      add\n        /* \"#utility.yul\":8798:8829   */\n      calldataload\n        /* \"#utility.yul\":8856:8874   */\n      0xffffffffffffffff\n        /* \"#utility.yul\":8848:8854   */\n      dup2\n        /* \"#utility.yul\":8845:8875   */\n      gt\n        /* \"#utility.yul\":8842:8959   */\n      iszero\n      tag_372\n      jumpi\n        /* \"#utility.yul\":8878:8957   */\n      tag_373\n      tag_211\n      jump\t// in\n    tag_373:\n        /* \"#utility.yul\":8842:8959   */\n    tag_372:\n        /* \"#utility.yul\":8983:9069   */\n      tag_374\n        /* \"#utility.yul\":9061:9068   */\n      dup6\n        /* \"#utility.yul\":9052:9058   */\n      dup3\n        /* \"#utility.yul\":9041:9050   */\n      dup7\n        /* \"#utility.yul\":9037:9059   */\n      add\n        /* \"#utility.yul\":8983:9069   */\n      tag_234\n      jump\t// in\n    tag_374:\n        /* \"#utility.yul\":8973:9069   */\n      swap3\n      pop\n        /* \"#utility.yul\":8769:9079   */\n      pop\n        /* \"#utility.yul\":9146:9148   */\n      0x20\n        /* \"#utility.yul\":9135:9144   */\n      dup4\n        /* \"#utility.yul\":9131:9149   */\n      add\n        /* \"#utility.yul\":9118:9150   */\n      calldataload\n        /* \"#utility.yul\":9177:9195   */\n      0xffffffffffffffff\n        /* \"#utility.yul\":9169:9175   */\n      dup2\n        /* \"#utility.yul\":9166:9196   */\n      gt\n        /* \"#utility.yul\":9163:9280   */\n      iszero\n      tag_375\n      jumpi\n        /* \"#utility.yul\":9199:9278   */\n      tag_376\n      tag_211\n      jump\t// in\n    tag_376:\n        /* \"#utility.yul\":9163:9280   */\n    tag_375:\n        /* \"#utility.yul\":9304:9382   */\n      tag_377\n        /* \"#utility.yul\":9374:9381   */\n      dup6\n        /* \"#utility.yul\":9365:9371   */\n      dup3\n        /* \"#utility.yul\":9354:9363   */\n      dup7\n        /* \"#utility.yul\":9350:9372   */\n      add\n        /* \"#utility.yul\":9304:9382   */\n      tag_237\n      jump\t// in\n    tag_377:\n        /* \"#utility.yul\":9294:9382   */\n      swap2\n      pop\n        /* \"#utility.yul\":9089:9392   */\n      pop\n        /* \"#utility.yul\":8489:9399   */\n      swap3\n      pop\n      swap3\n      swap1\n      pop\n      jump\t// out\n        /* \"#utility.yul\":9405:10444   */\n    tag_35:\n        /* \"#utility.yul\":9532:9538   */\n      0x00\n        /* \"#utility.yul\":9540:9546   */\n      dup1\n        /* \"#utility.yul\":9548:9554   */\n      0x00\n        /* \"#utility.yul\":9597:9599   */\n      0x60\n        /* \"#utility.yul\":9585:9594   */\n      dup5\n        /* \"#utility.yul\":9576:9583   */\n      dup7\n        /* \"#utility.yul\":9572:9595   */\n      sub\n        /* \"#utility.yul\":9568:9600   */\n      slt\n        /* \"#utility.yul\":9565:9684   */\n      iszero\n      tag_379\n      jumpi\n        /* \"#utility.yul\":9603:9682   */\n      tag_380\n      tag_210\n      jump\t// in\n    tag_380:\n        /* \"#utility.yul\":9565:9684   */\n    tag_379:\n        /* \"#utility.yul\":9723:9724   */\n      0x00\n        /* \"#utility.yul\":9748:9801   */\n      tag_381\n        /* \"#utility.yul\":9793:9800   */\n      dup7\n        /* \"#utility.yul\":9784:9790   */\n      dup3\n        /* \"#utility.yul\":9773:9782   */\n      dup8\n        /* \"#utility.yul\":9769:9791   */\n      add\n        /* \"#utility.yul\":9748:9801   */\n      tag_218\n      jump\t// in\n    tag_381:\n        /* \"#utility.yul\":9738:9801   */\n      swap4\n      pop\n        /* \"#utility.yul\":9694:9811   */\n      pop\n        /* \"#utility.yul\":9878:9880   */\n      0x20\n        /* \"#utility.yul\":9867:9876   */\n      dup5\n        /* \"#utility.yul\":9863:9881   */\n      add\n        /* \"#utility.yul\":9850:9882   */\n      calldataload\n        /* \"#utility.yul\":9909:9927   */\n      0xffffffffffffffff\n        /* \"#utility.yul\":9901:9907   */\n      dup2\n        /* \"#utility.yul\":9898:9928   */\n      gt\n        /* \"#utility.yul\":9895:10012   */\n      iszero\n      tag_382\n      jumpi\n        /* \"#utility.yul\":9931:10010   */\n      tag_383\n      tag_211\n      jump\t// in\n    tag_383:\n        /* \"#utility.yul\":9895:10012   */\n    tag_382:\n        /* \"#utility.yul\":10036:10114   */\n      tag_384\n        /* \"#utility.yul\":10106:10113   */\n      dup7\n        /* \"#utility.yul\":10097:10103   */\n      dup3\n        /* \"#utility.yul\":10086:10095   */\n      dup8\n        /* \"#utility.yul\":10082:10104   */\n      add\n        /* \"#utility.yul\":10036:10114   */\n      tag_227\n      jump\t// in\n    tag_384:\n        /* \"#utility.yul\":10026:10114   */\n      swap3\n      pop\n        /* \"#utility.yul\":9821:10124   */\n      pop\n        /* \"#utility.yul\":10191:10193   */\n      0x40\n        /* \"#utility.yul\":10180:10189   */\n      dup5\n        /* \"#utility.yul\":10176:10194   */\n      add\n        /* \"#utility.yul\":10163:10195   */\n      calldataload\n        /* \"#utility.yul\":10222:10240   */\n      0xffffffffffffffff\n        /* \"#utility.yul\":10214:10220   */\n      dup2\n        /* \"#utility.yul\":10211:10241   */\n      gt\n        /* \"#utility.yul\":10208:10325   */\n      iszero\n      tag_385\n      jumpi\n        /* \"#utility.yul\":10244:10323   */\n      tag_386\n      tag_211\n      jump\t// in\n    tag_386:\n        /* \"#utility.yul\":10208:10325   */\n    tag_385:\n        /* \"#utility.yul\":10349:10427   */\n      tag_387\n        /* \"#utility.yul\":10419:10426   */\n      dup7\n        /* \"#utility.yul\":10410:10416   */\n      dup3\n        /* \"#utility.yul\":10399:10408   */\n      dup8\n        /* \"#utility.yul\":10395:10417   */\n      add\n        /* \"#utility.yul\":10349:10427   */\n      tag_237\n      jump\t// in\n    tag_387:\n        /* \"#utility.yul\":10339:10427   */\n      swap2\n      pop\n        /* \"#utility.yul\":10134:10437   */\n      pop\n        /* \"#utility.yul\":9405:10444   */\n      swap3\n      pop\n      swap3\n      pop\n      swap3\n      jump\t// out\n        /* \"#utility.yul\":10450:10568   */\n    tag_238:\n        /* \"#utility.yul\":10537:10561   */\n      tag_389\n        /* \"#utility.yul\":10555:10560   */\n      dup2\n        /* \"#utility.yul\":10537:10561   */\n      tag_212\n      jump\t// in\n    tag_389:\n        /* \"#utility.yul\":10532:10535   */\n      dup3\n        /* \"#utility.yul\":10525:10562   */\n      mstore\n        /* \"#utility.yul\":10450:10568   */\n      pop\n      pop\n      jump\t// out\n        /* \"#utility.yul\":10574:10796   */\n    tag_41:\n        /* \"#utility.yul\":10667:10671   */\n      0x00\n        /* \"#utility.yul\":10705:10707   */\n      0x20\n        /* \"#utility.yul\":10694:10703   */\n      dup3\n        /* \"#utility.yul\":10690:10708   */\n      add\n        /* \"#utility.yul\":10682:10708   */\n      swap1\n      pop\n        /* \"#utility.yul\":10718:10789   */\n      tag_391\n        /* \"#utility.yul\":10786:10787   */\n      0x00\n        /* \"#utility.yul\":10775:10784   */\n      dup4\n        /* \"#utility.yul\":10771:10788   */\n      add\n        /* \"#utility.yul\":10762:10768   */\n      dup5\n        /* \"#utility.yul\":10718:10789   */\n      tag_238\n      jump\t// in\n    tag_391:\n        /* \"#utility.yul\":10574:10796   */\n      swap3\n      swap2\n      pop\n      pop\n      jump\t// out\n        /* \"#utility.yul\":10802:11502   */\n    tag_44:\n        /* \"#utility.yul\":10903:10909   */\n      0x00\n        /* \"#utility.yul\":10911:10917   */\n      dup1\n        /* \"#utility.yul\":10960:10962   */\n      0x40\n        /* \"#utility.yul\":10948:10957   */\n      dup4\n        /* \"#utility.yul\":10939:10946   */\n      dup6\n        /* \"#utility.yul\":10935:10958   */\n      sub\n        /* \"#utility.yul\":10931:10963   */\n      slt\n        /* \"#utility.yul\":10928:11047   */\n      iszero\n      tag_393\n      jumpi\n        /* \"#utility.yul\":10966:11045   */\n      tag_394\n      tag_210\n      jump\t// in\n    tag_394:\n        /* \"#utility.yul\":10928:11047   */\n    tag_393:\n        /* \"#utility.yul\":11114:11115   */\n      0x00\n        /* \"#utility.yul\":11103:11112   */\n      dup4\n        /* \"#utility.yul\":11099:11116   */\n      add\n        /* \"#utility.yul\":11086:11117   */\n      calldataload\n        /* \"#utility.yul\":11144:11162   */\n      0xffffffffffffffff\n        /* \"#utility.yul\":11136:11142   */\n      dup2\n        /* \"#utility.yul\":11133:11163   */\n      gt\n        /* \"#utility.yul\":11130:11247   */\n      iszero\n      tag_395\n      jumpi\n        /* \"#utility.yul\":11166:11245   */\n      tag_396\n      tag_211\n      jump\t// in\n    tag_396:\n        /* \"#utility.yul\":11130:11247   */\n    tag_395:\n        /* \"#utility.yul\":11271:11357   */\n      tag_397\n        /* \"#utility.yul\":11349:11356   */\n      dup6\n        /* \"#utility.yul\":11340:11346   */\n      dup3\n        /* \"#utility.yul\":11329:11338   */\n      dup7\n        /* \"#utility.yul\":11325:11347   */\n      add\n        /* \"#utility.yul\":11271:11357   */\n      tag_234\n      jump\t// in\n    tag_397:\n        /* \"#utility.yul\":11261:11357   */\n      swap3\n      pop\n        /* \"#utility.yul\":11057:11367   */\n      pop\n        /* \"#utility.yul\":11406:11408   */\n      0x20\n        /* \"#utility.yul\":11432:11485   */\n      tag_398\n        /* \"#utility.yul\":11477:11484   */\n      dup6\n        /* \"#utility.yul\":11468:11474   */\n      dup3\n        /* \"#utility.yul\":11457:11466   */\n      dup7\n        /* \"#utility.yul\":11453:11475   */\n      add\n        /* \"#utility.yul\":11432:11485   */\n      tag_214\n      jump\t// in\n    tag_398:\n        /* \"#utility.yul\":11422:11485   */\n      swap2\n      pop\n        /* \"#utility.yul\":11377:11495   */\n      pop\n        /* \"#utility.yul\":10802:11502   */\n      swap3\n      pop\n      swap3\n      swap1\n      pop\n      jump\t// out\n        /* \"#utility.yul\":11508:11837   */\n    tag_49:\n        /* \"#utility.yul\":11567:11573   */\n      0x00\n        /* \"#utility.yul\":11616:11618   */\n      0x20\n        /* \"#utility.yul\":11604:11613   */\n      dup3\n        /* \"#utility.yul\":11595:11602   */\n      dup5\n        /* \"#utility.yul\":11591:11614   */\n      sub\n        /* \"#utility.yul\":11587:11619   */\n      slt\n        /* \"#utility.yul\":11584:11703   */\n      iszero\n      tag_400\n      jumpi\n        /* \"#utility.yul\":11622:11701   */\n      tag_401\n      tag_210\n      jump\t// in\n    tag_401:\n        /* \"#utility.yul\":11584:11703   */\n    tag_400:\n        /* \"#utility.yul\":11742:11743   */\n      0x00\n        /* \"#utility.yul\":11767:11820   */\n      tag_402\n        /* \"#utility.yul\":11812:11819   */\n      dup5\n        /* \"#utility.yul\":11803:11809   */\n      dup3\n        /* \"#utility.yul\":11792:11801   */\n      dup6\n        /* \"#utility.yul\":11788:11810   */\n      add\n        /* \"#utility.yul\":11767:11820   */\n      tag_218\n      jump\t// in\n    tag_402:\n        /* \"#utility.yul\":11757:11820   */\n      swap2\n      pop\n        /* \"#utility.yul\":11713:11830   */\n      pop\n        /* \"#utility.yul\":11508:11837   */\n      swap3\n      swap2\n      pop\n      pop\n      jump\t// out\n        /* \"#utility.yul\":11843:12012   */\n    tag_239:\n        /* \"#utility.yul\":11927:11938   */\n      0x00\n        /* \"#utility.yul\":11961:11967   */\n      dup3\n        /* \"#utility.yul\":11956:11959   */\n      dup3\n        /* \"#utility.yul\":11949:11968   */\n      mstore\n        /* \"#utility.yul\":12001:12005   */\n      0x20\n        /* \"#utility.yul\":11996:11999   */\n      dup3\n        /* \"#utility.yul\":11992:12006   */\n      add\n        /* \"#utility.yul\":11977:12006   */\n      swap1\n      pop\n        /* \"#utility.yul\":11843:12012   */\n      swap3\n      swap2\n      pop\n      pop\n      jump\t// out\n        /* \"#utility.yul\":12018:12200   */\n    tag_240:\n        /* \"#utility.yul\":12158:12192   */\n      0x4f776e61626c653a2063616c6c6572206973206e6f7420746865206f776e6572\n        /* \"#utility.yul\":12154:12155   */\n      0x00\n        /* \"#utility.yul\":12146:12152   */\n      dup3\n        /* \"#utility.yul\":12142:12156   */\n      add\n        /* \"#utility.yul\":12135:12193   */\n      mstore\n        /* \"#utility.yul\":12018:12200   */\n      pop\n      jump\t// out\n        /* \"#utility.yul\":12206:12572   */\n    tag_241:\n        /* \"#utility.yul\":12348:12351   */\n      0x00\n        /* \"#utility.yul\":12369:12436   */\n      tag_406\n        /* \"#utility.yul\":12433:12435   */\n      0x20\n        /* \"#utility.yul\":12428:12431   */\n      dup4\n        /* \"#utility.yul\":12369:12436   */\n      tag_239\n      jump\t// in\n    tag_406:\n        /* \"#utility.yul\":12362:12436   */\n      swap2\n      pop\n        /* \"#utility.yul\":12445:12538   */\n      tag_407\n        /* \"#utility.yul\":12534:12537   */\n      dup3\n        /* \"#utility.yul\":12445:12538   */\n      tag_240\n      jump\t// in\n    tag_407:\n        /* \"#utility.yul\":12563:12565   */\n      0x20\n        /* \"#utility.yul\":12558:12561   */\n      dup3\n        /* \"#utility.yul\":12554:12566   */\n      add\n        /* \"#utility.yul\":12547:12566   */\n      swap1\n      pop\n        /* \"#utility.yul\":12206:12572   */\n      swap2\n      swap1\n      pop\n      jump\t// out\n        /* \"#utility.yul\":12578:12997   */\n    tag_57:\n        /* \"#utility.yul\":12744:12748   */\n      0x00\n        /* \"#utility.yul\":12782:12784   */\n      0x20\n        /* \"#utility.yul\":12771:12780   */\n      dup3\n        /* \"#utility.yul\":12767:12785   */\n      add\n        /* \"#utility.yul\":12759:12785   */\n      swap1\n      pop\n        /* \"#utility.yul\":12831:12840   */\n      dup2\n        /* \"#utility.yul\":12825:12829   */\n      dup2\n        /* \"#utility.yul\":12821:12841   */\n      sub\n        /* \"#utility.yul\":12817:12818   */\n      0x00\n        /* \"#utility.yul\":12806:12815   */\n      dup4\n        /* \"#utility.yul\":12802:12819   */\n      add\n        /* \"#utility.yul\":12795:12842   */\n      mstore\n        /* \"#utility.yul\":12859:12990   */\n      tag_409\n        /* \"#utility.yul\":12985:12989   */\n      dup2\n        /* \"#utility.yul\":12859:12990   */\n      tag_241\n      jump\t// in\n    tag_409:\n        /* \"#utility.yul\":12851:12990   */\n      swap1\n      pop\n        /* \"#utility.yul\":12578:12997   */\n      swap2\n      swap1\n      pop\n      jump\t// out\n        /* \"#utility.yul\":13003:13174   */\n    tag_242:\n        /* \"#utility.yul\":13143:13166   */\n      0x5472616e7366657220616d6f756e74206572726f720000000000000000000000\n        /* \"#utility.yul\":13139:13140   */\n      0x00\n        /* \"#utility.yul\":13131:13137   */\n      dup3\n        /* \"#utility.yul\":13127:13141   */\n      add\n        /* \"#utility.yul\":13120:13167   */\n      mstore\n        /* \"#utility.yul\":13003:13174   */\n      pop\n      jump\t// out\n        /* \"#utility.yul\":13180:13546   */\n    tag_243:\n        /* \"#utility.yul\":13322:13325   */\n      0x00\n        /* \"#utility.yul\":13343:13410   */\n      tag_412\n        /* \"#utility.yul\":13407:13409   */\n      0x15\n        /* \"#utility.yul\":13402:13405   */\n      dup4\n        /* \"#utility.yul\":13343:13410   */\n      tag_239\n      jump\t// in\n    tag_412:\n        /* \"#utility.yul\":13336:13410   */\n      swap2\n      pop\n        /* \"#utility.yul\":13419:13512   */\n      tag_413\n        /* \"#utility.yul\":13508:13511   */\n      dup3\n        /* \"#utility.yul\":13419:13512   */\n      tag_242\n      jump\t// in\n    tag_413:\n        /* \"#utility.yul\":13537:13539   */\n      0x20\n        /* \"#utility.yul\":13532:13535   */\n      dup3\n        /* \"#utility.yul\":13528:13540   */\n      add\n        /* \"#utility.yul\":13521:13540   */\n      swap1\n      pop\n        /* \"#utility.yul\":13180:13546   */\n      swap2\n      swap1\n      pop\n      jump\t// out\n        /* \"#utility.yul\":13552:13971   */\n    tag_70:\n        /* \"#utility.yul\":13718:13722   */\n      0x00\n        /* \"#utility.yul\":13756:13758   */\n      0x20\n        /* \"#utility.yul\":13745:13754   */\n      dup3\n        /* \"#utility.yul\":13741:13759   */\n      add\n        /* \"#utility.yul\":13733:13759   */\n      swap1\n      pop\n        /* \"#utility.yul\":13805:13814   */\n      dup2\n        /* \"#utility.yul\":13799:13803   */\n      dup2\n        /* \"#utility.yul\":13795:13815   */\n      sub\n        /* \"#utility.yul\":13791:13792   */\n      0x00\n        /* \"#utility.yul\":13780:13789   */\n      dup4\n        /* \"#utility.yul\":13776:13793   */\n      add\n        /* \"#utility.yul\":13769:13816   */\n      mstore\n        /* \"#utility.yul\":13833:13964   */\n      tag_415\n        /* \"#utility.yul\":13959:13963   */\n      dup2\n        /* \"#utility.yul\":13833:13964   */\n      tag_243\n      jump\t// in\n    tag_415:\n        /* \"#utility.yul\":13825:13964   */\n      swap1\n      pop\n        /* \"#utility.yul\":13552:13971   */\n      swap2\n      swap1\n      pop\n      jump\t// out\n        /* \"#utility.yul\":13977:14157   */\n    tag_80:\n        /* \"#utility.yul\":14025:14102   */\n      0x4e487b7100000000000000000000000000000000000000000000000000000000\n        /* \"#utility.yul\":14022:14023   */\n      0x00\n        /* \"#utility.yul\":14015:14103   */\n      mstore\n        /* \"#utility.yul\":14122:14126   */\n      0x32\n        /* \"#utility.yul\":14119:14120   */\n      0x04\n        /* \"#utility.yul\":14112:14127   */\n      mstore\n        /* \"#utility.yul\":14146:14150   */\n      0x24\n        /* \"#utility.yul\":14143:14144   */\n      0x00\n        /* \"#utility.yul\":14136:14151   */\n      revert\n        /* \"#utility.yul\":14163:14334   */\n    tag_244:\n        /* \"#utility.yul\":14303:14326   */\n      0x5472616e73666572206c656e677468206572726f720000000000000000000000\n        /* \"#utility.yul\":14299:14300   */\n      0x00\n        /* \"#utility.yul\":14291:14297   */\n      dup3\n        /* \"#utility.yul\":14287:14301   */\n      add\n        /* \"#utility.yul\":14280:14327   */\n      mstore\n        /* \"#utility.yul\":14163:14334   */\n      pop\n      jump\t// out\n        /* \"#utility.yul\":14340:14706   */\n    tag_245:\n        /* \"#utility.yul\":14482:14485   */\n      0x00\n        /* \"#utility.yul\":14503:14570   */\n      tag_419\n        /* \"#utility.yul\":14567:14569   */\n      0x15\n        /* \"#utility.yul\":14562:14565   */\n      dup4\n        /* \"#utility.yul\":14503:14570   */\n      tag_239\n      jump\t// in\n    tag_419:\n        /* \"#utility.yul\":14496:14570   */\n      swap2\n      pop\n        /* \"#utility.yul\":14579:14672   */\n      tag_420\n        /* \"#utility.yul\":14668:14671   */\n      dup3\n        /* \"#utility.yul\":14579:14672   */\n      tag_244\n      jump\t// in\n    tag_420:\n        /* \"#utility.yul\":14697:14699   */\n      0x20\n        /* \"#utility.yul\":14692:14695   */\n      dup3\n        /* \"#utility.yul\":14688:14700   */\n      add\n        /* \"#utility.yul\":14681:14700   */\n      swap1\n      pop\n        /* \"#utility.yul\":14340:14706   */\n      swap2\n      swap1\n      pop\n      jump\t// out\n        /* \"#utility.yul\":14712:15131   */\n    tag_86:\n        /* \"#utility.yul\":14878:14882   */\n      0x00\n        /* \"#utility.yul\":14916:14918   */\n      0x20\n        /* \"#utility.yul\":14905:14914   */\n      dup3\n        /* \"#utility.yul\":14901:14919   */\n      add\n        /* \"#utility.yul\":14893:14919   */\n      swap1\n      pop\n        /* \"#utility.yul\":14965:14974   */\n      dup2\n        /* \"#utility.yul\":14959:14963   */\n      dup2\n        /* \"#utility.yul\":14955:14975   */\n      sub\n        /* \"#utility.yul\":14951:14952   */\n      0x00\n        /* \"#utility.yul\":14940:14949   */\n      dup4\n        /* \"#utility.yul\":14936:14953   */\n      add\n        /* \"#utility.yul\":14929:14976   */\n      mstore\n        /* \"#utility.yul\":14993:15124   */\n      tag_422\n        /* \"#utility.yul\":15119:15123   */\n      dup2\n        /* \"#utility.yul\":14993:15124   */\n      tag_245\n      jump\t// in\n    tag_422:\n        /* \"#utility.yul\":14985:15124   */\n      swap1\n      pop\n        /* \"#utility.yul\":14712:15131   */\n      swap2\n      swap1\n      pop\n      jump\t// out\n        /* \"#utility.yul\":15137:15317   */\n    tag_246:\n        /* \"#utility.yul\":15185:15262   */\n      0x4e487b7100000000000000000000000000000000000000000000000000000000\n        /* \"#utility.yul\":15182:15183   */\n      0x00\n        /* \"#utility.yul\":15175:15263   */\n      mstore\n        /* \"#utility.yul\":15282:15286   */\n      0x11\n        /* \"#utility.yul\":15279:15280   */\n      0x04\n        /* \"#utility.yul\":15272:15287   */\n      mstore\n        /* \"#utility.yul\":15306:15310   */\n      0x24\n        /* \"#utility.yul\":15303:15304   */\n      0x00\n        /* \"#utility.yul\":15296:15311   */\n      revert\n        /* \"#utility.yul\":15323:15514   */\n    tag_93:\n        /* \"#utility.yul\":15363:15366   */\n      0x00\n        /* \"#utility.yul\":15382:15402   */\n      tag_425\n        /* \"#utility.yul\":15400:15401   */\n      dup3\n        /* \"#utility.yul\":15382:15402   */\n      tag_212\n      jump\t// in\n    tag_425:\n        /* \"#utility.yul\":15377:15402   */\n      swap2\n      pop\n        /* \"#utility.yul\":15416:15436   */\n      tag_426\n        /* \"#utility.yul\":15434:15435   */\n      dup4\n        /* \"#utility.yul\":15416:15436   */\n      tag_212\n      jump\t// in\n    tag_426:\n        /* \"#utility.yul\":15411:15436   */\n      swap3\n      pop\n        /* \"#utility.yul\":15459:15460   */\n      dup3\n        /* \"#utility.yul\":15456:15457   */\n      dup3\n        /* \"#utility.yul\":15452:15461   */\n      add\n        /* \"#utility.yul\":15445:15461   */\n      swap1\n      pop\n        /* \"#utility.yul\":15480:15483   */\n      dup1\n        /* \"#utility.yul\":15477:15478   */\n      dup3\n        /* \"#utility.yul\":15474:15484   */\n      gt\n        /* \"#utility.yul\":15471:15507   */\n      iszero\n      tag_427\n      jumpi\n        /* \"#utility.yul\":15487:15505   */\n      tag_428\n      tag_246\n      jump\t// in\n    tag_428:\n        /* \"#utility.yul\":15471:15507   */\n    tag_427:\n        /* \"#utility.yul\":15323:15514   */\n      swap3\n      swap2\n      pop\n      pop\n      jump\t// out\n        /* \"#utility.yul\":15520:15745   */\n    tag_247:\n        /* \"#utility.yul\":15660:15694   */\n      0x4f776e61626c653a206e6577206f776e657220697320746865207a65726f2061\n        /* \"#utility.yul\":15656:15657   */\n      0x00\n        /* \"#utility.yul\":15648:15654   */\n      dup3\n        /* \"#utility.yul\":15644:15658   */\n      add\n        /* \"#utility.yul\":15637:15695   */\n      mstore\n        /* \"#utility.yul\":15729:15737   */\n      0x6464726573730000000000000000000000000000000000000000000000000000\n        /* \"#utility.yul\":15724:15726   */\n      0x20\n        /* \"#utility.yul\":15716:15722   */\n      dup3\n        /* \"#utility.yul\":15712:15727   */\n      add\n        /* \"#utility.yul\":15705:15738   */\n      mstore\n        /* \"#utility.yul\":15520:15745   */\n      pop\n      jump\t// out\n        /* \"#utility.yul\":15751:16117   */\n    tag_248:\n        /* \"#utility.yul\":15893:15896   */\n      0x00\n        /* \"#utility.yul\":15914:15981   */\n      tag_431\n        /* \"#utility.yul\":15978:15980   */\n      0x26\n        /* \"#utility.yul\":15973:15976   */\n      dup4\n        /* \"#utility.yul\":15914:15981   */\n      tag_239\n      jump\t// in\n    tag_431:\n        /* \"#utility.yul\":15907:15981   */\n      swap2\n      pop\n        /* \"#utility.yul\":15990:16083   */\n      tag_432\n        /* \"#utility.yul\":16079:16082   */\n      dup3\n        /* \"#utility.yul\":15990:16083   */\n      tag_247\n      jump\t// in\n    tag_432:\n        /* \"#utility.yul\":16108:16110   */\n      0x40\n        /* \"#utility.yul\":16103:16106   */\n      dup3\n        /* \"#utility.yul\":16099:16111   */\n      add\n        /* \"#utility.yul\":16092:16111   */\n      swap1\n      pop\n        /* \"#utility.yul\":15751:16117   */\n      swap2\n      swap1\n      pop\n      jump\t// out\n        /* \"#utility.yul\":16123:16542   */\n    tag_150:\n        /* \"#utility.yul\":16289:16293   */\n      0x00\n        /* \"#utility.yul\":16327:16329   */\n      0x20\n        /* \"#utility.yul\":16316:16325   */\n      dup3\n        /* \"#utility.yul\":16312:16330   */\n      add\n        /* \"#utility.yul\":16304:16330   */\n      swap1\n      pop\n        /* \"#utility.yul\":16376:16385   */\n      dup2\n        /* \"#utility.yul\":16370:16374   */\n      dup2\n        /* \"#utility.yul\":16366:16386   */\n      sub\n        /* \"#utility.yul\":16362:16363   */\n      0x00\n        /* \"#utility.yul\":16351:16360   */\n      dup4\n        /* \"#utility.yul\":16347:16364   */\n      add\n        /* \"#utility.yul\":16340:16387   */\n      mstore\n        /* \"#utility.yul\":16404:16535   */\n      tag_434\n        /* \"#utility.yul\":16530:16534   */\n      dup2\n        /* \"#utility.yul\":16404:16535   */\n      tag_248\n      jump\t// in\n    tag_434:\n        /* \"#utility.yul\":16396:16535   */\n      swap1\n      pop\n        /* \"#utility.yul\":16123:16542   */\n      swap2\n      swap1\n      pop\n      jump\t// out\n        /* \"#utility.yul\":16548:16990   */\n    tag_157:\n        /* \"#utility.yul\":16697:16701   */\n      0x00\n        /* \"#utility.yul\":16735:16737   */\n      0x60\n        /* \"#utility.yul\":16724:16733   */\n      dup3\n        /* \"#utility.yul\":16720:16738   */\n      add\n        /* \"#utility.yul\":16712:16738   */\n      swap1\n      pop\n        /* \"#utility.yul\":16748:16819   */\n      tag_436\n        /* \"#utility.yul\":16816:16817   */\n      0x00\n        /* \"#utility.yul\":16805:16814   */\n      dup4\n        /* \"#utility.yul\":16801:16818   */\n      add\n        /* \"#utility.yul\":16792:16798   */\n      dup7\n        /* \"#utility.yul\":16748:16819   */\n      tag_228\n      jump\t// in\n    tag_436:\n        /* \"#utility.yul\":16829:16901   */\n      tag_437\n        /* \"#utility.yul\":16897:16899   */\n      0x20\n        /* \"#utility.yul\":16886:16895   */\n      dup4\n        /* \"#utility.yul\":16882:16900   */\n      add\n        /* \"#utility.yul\":16873:16879   */\n      dup6\n        /* \"#utility.yul\":16829:16901   */\n      tag_228\n      jump\t// in\n    tag_437:\n        /* \"#utility.yul\":16911:16983   */\n      tag_438\n        /* \"#utility.yul\":16979:16981   */\n      0x40\n        /* \"#utility.yul\":16968:16977   */\n      dup4\n        /* \"#utility.yul\":16964:16982   */\n      add\n        /* \"#utility.yul\":16955:16961   */\n      dup5\n        /* \"#utility.yul\":16911:16983   */\n      tag_238\n      jump\t// in\n    tag_438:\n        /* \"#utility.yul\":16548:16990   */\n      swap5\n      swap4\n      pop\n      pop\n      pop\n      pop\n      jump\t// out\n        /* \"#utility.yul\":16996:17173   */\n    tag_249:\n        /* \"#utility.yul\":17136:17165   */\n      0x536166654d6174683a206164646974696f6e206f766572666c6f770000000000\n        /* \"#utility.yul\":17132:17133   */\n      0x00\n        /* \"#utility.yul\":17124:17130   */\n      dup3\n        /* \"#utility.yul\":17120:17134   */\n      add\n        /* \"#utility.yul\":17113:17166   */\n      mstore\n        /* \"#utility.yul\":16996:17173   */\n      pop\n      jump\t// out\n        /* \"#utility.yul\":17179:17545   */\n    tag_250:\n        /* \"#utility.yul\":17321:17324   */\n      0x00\n        /* \"#utility.yul\":17342:17409   */\n      tag_441\n        /* \"#utility.yul\":17406:17408   */\n      0x1b\n        /* \"#utility.yul\":17401:17404   */\n      dup4\n        /* \"#utility.yul\":17342:17409   */\n      tag_239\n      jump\t// in\n    tag_441:\n        /* \"#utility.yul\":17335:17409   */\n      swap2\n      pop\n        /* \"#utility.yul\":17418:17511   */\n      tag_442\n        /* \"#utility.yul\":17507:17510   */\n      dup3\n        /* \"#utility.yul\":17418:17511   */\n      tag_249\n      jump\t// in\n    tag_442:\n        /* \"#utility.yul\":17536:17538   */\n      0x20\n        /* \"#utility.yul\":17531:17534   */\n      dup3\n        /* \"#utility.yul\":17527:17539   */\n      add\n        /* \"#utility.yul\":17520:17539   */\n      swap1\n      pop\n        /* \"#utility.yul\":17179:17545   */\n      swap2\n      swap1\n      pop\n      jump\t// out\n        /* \"#utility.yul\":17551:17970   */\n    tag_163:\n        /* \"#utility.yul\":17717:17721   */\n      0x00\n        /* \"#utility.yul\":17755:17757   */\n      0x20\n        /* \"#utility.yul\":17744:17753   */\n      dup3\n        /* \"#utility.yul\":17740:17758   */\n      add\n        /* \"#utility.yul\":17732:17758   */\n      swap1\n      pop\n        /* \"#utility.yul\":17804:17813   */\n      dup2\n        /* \"#utility.yul\":17798:17802   */\n      dup2\n        /* \"#utility.yul\":17794:17814   */\n      sub\n        /* \"#utility.yul\":17790:17791   */\n      0x00\n        /* \"#utility.yul\":17779:17788   */\n      dup4\n        /* \"#utility.yul\":17775:17792   */\n      add\n        /* \"#utility.yul\":17768:17815   */\n      mstore\n        /* \"#utility.yul\":17832:17963   */\n      tag_444\n        /* \"#utility.yul\":17958:17962   */\n      dup2\n        /* \"#utility.yul\":17832:17963   */\n      tag_250\n      jump\t// in\n    tag_444:\n        /* \"#utility.yul\":17824:17963   */\n      swap1\n      pop\n        /* \"#utility.yul\":17551:17970   */\n      swap2\n      swap1\n      pop\n      jump\t// out\n        /* \"#utility.yul\":17976:18386   */\n    tag_167:\n        /* \"#utility.yul\":18016:18023   */\n      0x00\n        /* \"#utility.yul\":18039:18059   */\n      tag_446\n        /* \"#utility.yul\":18057:18058   */\n      dup3\n        /* \"#utility.yul\":18039:18059   */\n      tag_212\n      jump\t// in\n    tag_446:\n        /* \"#utility.yul\":18034:18059   */\n      swap2\n      pop\n        /* \"#utility.yul\":18073:18093   */\n      tag_447\n        /* \"#utility.yul\":18091:18092   */\n      dup4\n        /* \"#utility.yul\":18073:18093   */\n      tag_212\n      jump\t// in\n    tag_447:\n        /* \"#utility.yul\":18068:18093   */\n      swap3\n      pop\n        /* \"#utility.yul\":18128:18129   */\n      dup3\n        /* \"#utility.yul\":18125:18126   */\n      dup3\n        /* \"#utility.yul\":18121:18130   */\n      mul\n        /* \"#utility.yul\":18150:18180   */\n      tag_448\n        /* \"#utility.yul\":18168:18179   */\n      dup2\n        /* \"#utility.yul\":18150:18180   */\n      tag_212\n      jump\t// in\n    tag_448:\n        /* \"#utility.yul\":18139:18180   */\n      swap2\n      pop\n        /* \"#utility.yul\":18329:18330   */\n      dup3\n        /* \"#utility.yul\":18320:18327   */\n      dup3\n        /* \"#utility.yul\":18316:18331   */\n      div\n        /* \"#utility.yul\":18313:18314   */\n      dup5\n        /* \"#utility.yul\":18310:18332   */\n      eq\n        /* \"#utility.yul\":18290:18291   */\n      dup4\n        /* \"#utility.yul\":18283:18292   */\n      iszero\n        /* \"#utility.yul\":18263:18346   */\n      or\n        /* \"#utility.yul\":18240:18379   */\n      tag_449\n      jumpi\n        /* \"#utility.yul\":18359:18377   */\n      tag_450\n      tag_246\n      jump\t// in\n    tag_450:\n        /* \"#utility.yul\":18240:18379   */\n    tag_449:\n        /* \"#utility.yul\":18024:18386   */\n      pop\n        /* \"#utility.yul\":17976:18386   */\n      swap3\n      swap2\n      pop\n      pop\n      jump\t// out\n        /* \"#utility.yul\":18392:18572   */\n    tag_251:\n        /* \"#utility.yul\":18440:18517   */\n      0x4e487b7100000000000000000000000000000000000000000000000000000000\n        /* \"#utility.yul\":18437:18438   */\n      0x00\n        /* \"#utility.yul\":18430:18518   */\n      mstore\n        /* \"#utility.yul\":18537:18541   */\n      0x12\n        /* \"#utility.yul\":18534:18535   */\n      0x04\n        /* \"#utility.yul\":18527:18542   */\n      mstore\n        /* \"#utility.yul\":18561:18565   */\n      0x24\n        /* \"#utility.yul\":18558:18559   */\n      0x00\n        /* \"#utility.yul\":18551:18566   */\n      revert\n        /* \"#utility.yul\":18578:18763   */\n    tag_169:\n        /* \"#utility.yul\":18618:18619   */\n      0x00\n        /* \"#utility.yul\":18635:18655   */\n      tag_453\n        /* \"#utility.yul\":18653:18654   */\n      dup3\n        /* \"#utility.yul\":18635:18655   */\n      tag_212\n      jump\t// in\n    tag_453:\n        /* \"#utility.yul\":18630:18655   */\n      swap2\n      pop\n        /* \"#utility.yul\":18669:18689   */\n      tag_454\n        /* \"#utility.yul\":18687:18688   */\n      dup4\n        /* \"#utility.yul\":18669:18689   */\n      tag_212\n      jump\t// in\n    tag_454:\n        /* \"#utility.yul\":18664:18689   */\n      swap3\n      pop\n        /* \"#utility.yul\":18708:18709   */\n      dup3\n        /* \"#utility.yul\":18698:18733   */\n      tag_455\n      jumpi\n        /* \"#utility.yul\":18713:18731   */\n      tag_456\n      tag_251\n      jump\t// in\n    tag_456:\n        /* \"#utility.yul\":18698:18733   */\n    tag_455:\n        /* \"#utility.yul\":18755:18756   */\n      dup3\n        /* \"#utility.yul\":18752:18753   */\n      dup3\n        /* \"#utility.yul\":18748:18757   */\n      div\n        /* \"#utility.yul\":18743:18757   */\n      swap1\n      pop\n        /* \"#utility.yul\":18578:18763   */\n      swap3\n      swap2\n      pop\n      pop\n      jump\t// out\n        /* \"#utility.yul\":18769:18989   */\n    tag_252:\n        /* \"#utility.yul\":18909:18943   */\n      0x536166654d6174683a206d756c7469706c69636174696f6e206f766572666c6f\n        /* \"#utility.yul\":18905:18906   */\n      0x00\n        /* \"#utility.yul\":18897:18903   */\n      dup3\n        /* \"#utility.yul\":18893:18907   */\n      add\n        /* \"#utility.yul\":18886:18944   */\n      mstore\n        /* \"#utility.yul\":18978:18981   */\n      0x7700000000000000000000000000000000000000000000000000000000000000\n        /* \"#utility.yul\":18973:18975   */\n      0x20\n        /* \"#utility.yul\":18965:18971   */\n      dup3\n        /* \"#utility.yul\":18961:18976   */\n      add\n        /* \"#utility.yul\":18954:18982   */\n      mstore\n        /* \"#utility.yul\":18769:18989   */\n      pop\n      jump\t// out\n        /* \"#utility.yul\":18995:19361   */\n    tag_253:\n        /* \"#utility.yul\":19137:19140   */\n      0x00\n        /* \"#utility.yul\":19158:19225   */\n      tag_459\n        /* \"#utility.yul\":19222:19224   */\n      0x21\n        /* \"#utility.yul\":19217:19220   */\n      dup4\n        /* \"#utility.yul\":19158:19225   */\n      tag_239\n      jump\t// in\n    tag_459:\n        /* \"#utility.yul\":19151:19225   */\n      swap2\n      pop\n        /* \"#utility.yul\":19234:19327   */\n      tag_460\n        /* \"#utility.yul\":19323:19326   */\n      dup3\n        /* \"#utility.yul\":19234:19327   */\n      tag_252\n      jump\t// in\n    tag_460:\n        /* \"#utility.yul\":19352:19354   */\n      0x40\n        /* \"#utility.yul\":19347:19350   */\n      dup3\n        /* \"#utility.yul\":19343:19355   */\n      add\n        /* \"#utility.yul\":19336:19355   */\n      swap1\n      pop\n        /* \"#utility.yul\":18995:19361   */\n      swap2\n      swap1\n      pop\n      jump\t// out\n        /* \"#utility.yul\":19367:19786   */\n    tag_172:\n        /* \"#utility.yul\":19533:19537   */\n      0x00\n        /* \"#utility.yul\":19571:19573   */\n      0x20\n        /* \"#utility.yul\":19560:19569   */\n      dup3\n        /* \"#utility.yul\":19556:19574   */\n      add\n        /* \"#utility.yul\":19548:19574   */\n      swap1\n      pop\n        /* \"#utility.yul\":19620:19629   */\n      dup2\n        /* \"#utility.yul\":19614:19618   */\n      dup2\n        /* \"#utility.yul\":19610:19630   */\n      sub\n        /* \"#utility.yul\":19606:19607   */\n      0x00\n        /* \"#utility.yul\":19595:19604   */\n      dup4\n        /* \"#utility.yul\":19591:19608   */\n      add\n        /* \"#utility.yul\":19584:19631   */\n      mstore\n        /* \"#utility.yul\":19648:19779   */\n      tag_462\n        /* \"#utility.yul\":19774:19778   */\n      dup2\n        /* \"#utility.yul\":19648:19779   */\n      tag_253\n      jump\t// in\n    tag_462:\n        /* \"#utility.yul\":19640:19779   */\n      swap1\n      pop\n        /* \"#utility.yul\":19367:19786   */\n      swap2\n      swap1\n      pop\n      jump\t// out\n        /* \"#utility.yul\":19792:19882   */\n    tag_254:\n        /* \"#utility.yul\":19826:19833   */\n      0x00\n        /* \"#utility.yul\":19869:19874   */\n      dup2\n        /* \"#utility.yul\":19862:19875   */\n      iszero\n        /* \"#utility.yul\":19855:19876   */\n      iszero\n        /* \"#utility.yul\":19844:19876   */\n      swap1\n      pop\n        /* \"#utility.yul\":19792:19882   */\n      swap2\n      swap1\n      pop\n      jump\t// out\n        /* \"#utility.yul\":19888:20004   */\n    tag_255:\n        /* \"#utility.yul\":19958:19979   */\n      tag_465\n        /* \"#utility.yul\":19973:19978   */\n      dup2\n        /* \"#utility.yul\":19958:19979   */\n      tag_254\n      jump\t// in\n    tag_465:\n        /* \"#utility.yul\":19951:19956   */\n      dup2\n        /* \"#utility.yul\":19948:19980   */\n      eq\n        /* \"#utility.yul\":19938:19998   */\n      tag_466\n      jumpi\n        /* \"#utility.yul\":19994:19995   */\n      0x00\n        /* \"#utility.yul\":19991:19992   */\n      dup1\n        /* \"#utility.yul\":19984:19996   */\n      revert\n        /* \"#utility.yul\":19938:19998   */\n    tag_466:\n        /* \"#utility.yul\":19888:20004   */\n      pop\n      jump\t// out\n        /* \"#utility.yul\":20010:20147   */\n    tag_256:\n        /* \"#utility.yul\":20064:20069   */\n      0x00\n        /* \"#utility.yul\":20095:20101   */\n      dup2\n        /* \"#utility.yul\":20089:20102   */\n      mload\n        /* \"#utility.yul\":20080:20102   */\n      swap1\n      pop\n        /* \"#utility.yul\":20111:20141   */\n      tag_468\n        /* \"#utility.yul\":20135:20140   */\n      dup2\n        /* \"#utility.yul\":20111:20141   */\n      tag_255\n      jump\t// in\n    tag_468:\n        /* \"#utility.yul\":20010:20147   */\n      swap3\n      swap2\n      pop\n      pop\n      jump\t// out\n        /* \"#utility.yul\":20153:20498   */\n    tag_178:\n        /* \"#utility.yul\":20220:20226   */\n      0x00\n        /* \"#utility.yul\":20269:20271   */\n      0x20\n        /* \"#utility.yul\":20257:20266   */\n      dup3\n        /* \"#utility.yul\":20248:20255   */\n      dup5\n        /* \"#utility.yul\":20244:20267   */\n      sub\n        /* \"#utility.yul\":20240:20272   */\n      slt\n        /* \"#utility.yul\":20237:20356   */\n      iszero\n      tag_470\n      jumpi\n        /* \"#utility.yul\":20275:20354   */\n      tag_471\n      tag_210\n      jump\t// in\n    tag_471:\n        /* \"#utility.yul\":20237:20356   */\n    tag_470:\n        /* \"#utility.yul\":20395:20396   */\n      0x00\n        /* \"#utility.yul\":20420:20481   */\n      tag_472\n        /* \"#utility.yul\":20473:20480   */\n      dup5\n        /* \"#utility.yul\":20464:20470   */\n      dup3\n        /* \"#utility.yul\":20453:20462   */\n      dup6\n        /* \"#utility.yul\":20449:20471   */\n      add\n        /* \"#utility.yul\":20420:20481   */\n      tag_256\n      jump\t// in\n    tag_472:\n        /* \"#utility.yul\":20410:20481   */\n      swap2\n      pop\n        /* \"#utility.yul\":20366:20491   */\n      pop\n        /* \"#utility.yul\":20153:20498   */\n      swap3\n      swap2\n      pop\n      pop\n      jump\t// out\n        /* \"#utility.yul\":20504:20733   */\n    tag_257:\n        /* \"#utility.yul\":20644:20678   */\n      0x5361666545524332303a204552433230206f7065726174696f6e20646964206e\n        /* \"#utility.yul\":20640:20641   */\n      0x00\n        /* \"#utility.yul\":20632:20638   */\n      dup3\n        /* \"#utility.yul\":20628:20642   */\n      add\n        /* \"#utility.yul\":20621:20679   */\n      mstore\n        /* \"#utility.yul\":20713:20725   */\n      0x6f74207375636365656400000000000000000000000000000000000000000000\n        /* \"#utility.yul\":20708:20710   */\n      0x20\n        /* \"#utility.yul\":20700:20706   */\n      dup3\n        /* \"#utility.yul\":20696:20711   */\n      add\n        /* \"#utility.yul\":20689:20726   */\n      mstore\n        /* \"#utility.yul\":20504:20733   */\n      pop\n      jump\t// out\n        /* \"#utility.yul\":20739:21105   */\n    tag_258:\n        /* \"#utility.yul\":20881:20884   */\n      0x00\n        /* \"#utility.yul\":20902:20969   */\n      tag_475\n        /* \"#utility.yul\":20966:20968   */\n      0x2a\n        /* \"#utility.yul\":20961:20964   */\n      dup4\n        /* \"#utility.yul\":20902:20969   */\n      tag_239\n      jump\t// in\n    tag_475:\n        /* \"#utility.yul\":20895:20969   */\n      swap2\n      pop\n        /* \"#utility.yul\":20978:21071   */\n      tag_476\n        /* \"#utility.yul\":21067:21070   */\n      dup3\n        /* \"#utility.yul\":20978:21071   */\n      tag_257\n      jump\t// in\n    tag_476:\n        /* \"#utility.yul\":21096:21098   */\n      0x40\n        /* \"#utility.yul\":21091:21094   */\n      dup3\n        /* \"#utility.yul\":21087:21099   */\n      add\n        /* \"#utility.yul\":21080:21099   */\n      swap1\n      pop\n        /* \"#utility.yul\":20739:21105   */\n      swap2\n      swap1\n      pop\n      jump\t// out\n        /* \"#utility.yul\":21111:21530   */\n    tag_181:\n        /* \"#utility.yul\":21277:21281   */\n      0x00\n        /* \"#utility.yul\":21315:21317   */\n      0x20\n        /* \"#utility.yul\":21304:21313   */\n      dup3\n        /* \"#utility.yul\":21300:21318   */\n      add\n        /* \"#utility.yul\":21292:21318   */\n      swap1\n      pop\n        /* \"#utility.yul\":21364:21373   */\n      dup2\n        /* \"#utility.yul\":21358:21362   */\n      dup2\n        /* \"#utility.yul\":21354:21374   */\n      sub\n        /* \"#utility.yul\":21350:21351   */\n      0x00\n        /* \"#utility.yul\":21339:21348   */\n      dup4\n        /* \"#utility.yul\":21335:21352   */\n      add\n        /* \"#utility.yul\":21328:21375   */\n      mstore\n        /* \"#utility.yul\":21392:21523   */\n      tag_478\n        /* \"#utility.yul\":21518:21522   */\n      dup2\n        /* \"#utility.yul\":21392:21523   */\n      tag_258\n      jump\t// in\n    tag_478:\n        /* \"#utility.yul\":21384:21523   */\n      swap1\n      pop\n        /* \"#utility.yul\":21111:21530   */\n      swap2\n      swap1\n      pop\n      jump\t// out\n        /* \"#utility.yul\":21536:21761   */\n    tag_259:\n        /* \"#utility.yul\":21676:21710   */\n      0x416464726573733a20696e73756666696369656e742062616c616e636520666f\n        /* \"#utility.yul\":21672:21673   */\n      0x00\n        /* \"#utility.yul\":21664:21670   */\n      dup3\n        /* \"#utility.yul\":21660:21674   */\n      add\n        /* \"#utility.yul\":21653:21711   */\n      mstore\n        /* \"#utility.yul\":21745:21753   */\n      0x722063616c6c0000000000000000000000000000000000000000000000000000\n        /* \"#utility.yul\":21740:21742   */\n      0x20\n        /* \"#utility.yul\":21732:21738   */\n      dup3\n        /* \"#utility.yul\":21728:21743   */\n      add\n        /* \"#utility.yul\":21721:21754   */\n      mstore\n        /* \"#utility.yul\":21536:21761   */\n      pop\n      jump\t// out\n        /* \"#utility.yul\":21767:22133   */\n    tag_260:\n        /* \"#utility.yul\":21909:21912   */\n      0x00\n        /* \"#utility.yul\":21930:21997   */\n      tag_481\n        /* \"#utility.yul\":21994:21996   */\n      0x26\n        /* \"#utility.yul\":21989:21992   */\n      dup4\n        /* \"#utility.yul\":21930:21997   */\n      tag_239\n      jump\t// in\n    tag_481:\n        /* \"#utility.yul\":21923:21997   */\n      swap2\n      pop\n        /* \"#utility.yul\":22006:22099   */\n      tag_482\n        /* \"#utility.yul\":22095:22098   */\n      dup3\n        /* \"#utility.yul\":22006:22099   */\n      tag_259\n      jump\t// in\n    tag_482:\n        /* \"#utility.yul\":22124:22126   */\n      0x40\n        /* \"#utility.yul\":22119:22122   */\n      dup3\n        /* \"#utility.yul\":22115:22127   */\n      add\n        /* \"#utility.yul\":22108:22127   */\n      swap1\n      pop\n        /* \"#utility.yul\":21767:22133   */\n      swap2\n      swap1\n      pop\n      jump\t// out\n        /* \"#utility.yul\":22139:22558   */\n    tag_188:\n        /* \"#utility.yul\":22305:22309   */\n      0x00\n        /* \"#utility.yul\":22343:22345   */\n      0x20\n        /* \"#utility.yul\":22332:22341   */\n      dup3\n        /* \"#utility.yul\":22328:22346   */\n      add\n        /* \"#utility.yul\":22320:22346   */\n      swap1\n      pop\n        /* \"#utility.yul\":22392:22401   */\n      dup2\n        /* \"#utility.yul\":22386:22390   */\n      dup2\n        /* \"#utility.yul\":22382:22402   */\n      sub\n        /* \"#utility.yul\":22378:22379   */\n      0x00\n        /* \"#utility.yul\":22367:22376   */\n      dup4\n        /* \"#utility.yul\":22363:22380   */\n      add\n        /* \"#utility.yul\":22356:22403   */\n      mstore\n        /* \"#utility.yul\":22420:22551   */\n      tag_484\n        /* \"#utility.yul\":22546:22550   */\n      dup2\n        /* \"#utility.yul\":22420:22551   */\n      tag_260\n      jump\t// in\n    tag_484:\n        /* \"#utility.yul\":22412:22551   */\n      swap1\n      pop\n        /* \"#utility.yul\":22139:22558   */\n      swap2\n      swap1\n      pop\n      jump\t// out\n        /* \"#utility.yul\":22564:22743   */\n    tag_261:\n        /* \"#utility.yul\":22704:22735   */\n      0x416464726573733a2063616c6c20746f206e6f6e2d636f6e7472616374000000\n        /* \"#utility.yul\":22700:22701   */\n      0x00\n        /* \"#utility.yul\":22692:22698   */\n      dup3\n        /* \"#utility.yul\":22688:22702   */\n      add\n        /* \"#utility.yul\":22681:22736   */\n      mstore\n        /* \"#utility.yul\":22564:22743   */\n      pop\n      jump\t// out\n        /* \"#utility.yul\":22749:23115   */\n    tag_262:\n        /* \"#utility.yul\":22891:22894   */\n      0x00\n        /* \"#utility.yul\":22912:22979   */\n      tag_487\n        /* \"#utility.yul\":22976:22978   */\n      0x1d\n        /* \"#utility.yul\":22971:22974   */\n      dup4\n        /* \"#utility.yul\":22912:22979   */\n      tag_239\n      jump\t// in\n    tag_487:\n        /* \"#utility.yul\":22905:22979   */\n      swap2\n      pop\n        /* \"#utility.yul\":22988:23081   */\n      tag_488\n        /* \"#utility.yul\":23077:23080   */\n      dup3\n        /* \"#utility.yul\":22988:23081   */\n      tag_261\n      jump\t// in\n    tag_488:\n        /* \"#utility.yul\":23106:23108   */\n      0x20\n        /* \"#utility.yul\":23101:23104   */\n      dup3\n        /* \"#utility.yul\":23097:23109   */\n      add\n        /* \"#utility.yul\":23090:23109   */\n      swap1\n      pop\n        /* \"#utility.yul\":22749:23115   */\n      swap2\n      swap1\n      pop\n      jump\t// out\n        /* \"#utility.yul\":23121:23540   */\n    tag_193:\n        /* \"#utility.yul\":23287:23291   */\n      0x00\n        /* \"#utility.yul\":23325:23327   */\n      0x20\n        /* \"#utility.yul\":23314:23323   */\n      dup3\n        /* \"#utility.yul\":23310:23328   */\n      add\n        /* \"#utility.yul\":23302:23328   */\n      swap1\n      pop\n        /* \"#utility.yul\":23374:23383   */\n      dup2\n        /* \"#utility.yul\":23368:23372   */\n      dup2\n        /* \"#utility.yul\":23364:23384   */\n      sub\n        /* \"#utility.yul\":23360:23361   */\n      0x00\n        /* \"#utility.yul\":23349:23358   */\n      dup4\n        /* \"#utility.yul\":23345:23362   */\n      add\n        /* \"#utility.yul\":23338:23385   */\n      mstore\n        /* \"#utility.yul\":23402:23533   */\n      tag_490\n        /* \"#utility.yul\":23528:23532   */\n      dup2\n        /* \"#utility.yul\":23402:23533   */\n      tag_262\n      jump\t// in\n    tag_490:\n        /* \"#utility.yul\":23394:23533   */\n      swap1\n      pop\n        /* \"#utility.yul\":23121:23540   */\n      swap2\n      swap1\n      pop\n      jump\t// out\n        /* \"#utility.yul\":23546:23644   */\n    tag_263:\n        /* \"#utility.yul\":23597:23603   */\n      0x00\n        /* \"#utility.yul\":23631:23636   */\n      dup2\n        /* \"#utility.yul\":23625:23637   */\n      mload\n        /* \"#utility.yul\":23615:23637   */\n      swap1\n      pop\n        /* \"#utility.yul\":23546:23644   */\n      swap2\n      swap1\n      pop\n      jump\t// out\n        /* \"#utility.yul\":23650:23797   */\n    tag_264:\n        /* \"#utility.yul\":23751:23762   */\n      0x00\n        /* \"#utility.yul\":23788:23791   */\n      dup2\n        /* \"#utility.yul\":23773:23791   */\n      swap1\n      pop\n        /* \"#utility.yul\":23650:23797   */\n      swap3\n      swap2\n      pop\n      pop\n      jump\t// out\n        /* \"#utility.yul\":23803:24049   */\n    tag_265:\n        /* \"#utility.yul\":23884:23885   */\n      0x00\n        /* \"#utility.yul\":23894:24007   */\n    tag_494:\n        /* \"#utility.yul\":23908:23914   */\n      dup4\n        /* \"#utility.yul\":23905:23906   */\n      dup2\n        /* \"#utility.yul\":23902:23915   */\n      lt\n        /* \"#utility.yul\":23894:24007   */\n      iszero\n      tag_496\n      jumpi\n        /* \"#utility.yul\":23993:23994   */\n      dup1\n        /* \"#utility.yul\":23988:23991   */\n      dup3\n        /* \"#utility.yul\":23984:23995   */\n      add\n        /* \"#utility.yul\":23978:23996   */\n      mload\n        /* \"#utility.yul\":23974:23975   */\n      dup2\n        /* \"#utility.yul\":23969:23972   */\n      dup5\n        /* \"#utility.yul\":23965:23976   */\n      add\n        /* \"#utility.yul\":23958:23997   */\n      mstore\n        /* \"#utility.yul\":23930:23932   */\n      0x20\n        /* \"#utility.yul\":23927:23928   */\n      dup2\n        /* \"#utility.yul\":23923:23933   */\n      add\n        /* \"#utility.yul\":23918:23933   */\n      swap1\n      pop\n        /* \"#utility.yul\":23894:24007   */\n      jump(tag_494)\n    tag_496:\n        /* \"#utility.yul\":24041:24042   */\n      0x00\n        /* \"#utility.yul\":24032:24038   */\n      dup5\n        /* \"#utility.yul\":24027:24030   */\n      dup5\n        /* \"#utility.yul\":24023:24039   */\n      add\n        /* \"#utility.yul\":24016:24043   */\n      mstore\n        /* \"#utility.yul\":23865:24049   */\n      pop\n        /* \"#utility.yul\":23803:24049   */\n      pop\n      pop\n      pop\n      jump\t// out\n        /* \"#utility.yul\":24055:24441   */\n    tag_266:\n        /* \"#utility.yul\":24159:24162   */\n      0x00\n        /* \"#utility.yul\":24187:24225   */\n      tag_498\n        /* \"#utility.yul\":24219:24224   */\n      dup3\n        /* \"#utility.yul\":24187:24225   */\n      tag_263\n      jump\t// in\n    tag_498:\n        /* \"#utility.yul\":24241:24329   */\n      tag_499\n        /* \"#utility.yul\":24322:24328   */\n      dup2\n        /* \"#utility.yul\":24317:24320   */\n      dup6\n        /* \"#utility.yul\":24241:24329   */\n      tag_264\n      jump\t// in\n    tag_499:\n        /* \"#utility.yul\":24234:24329   */\n      swap4\n      pop\n        /* \"#utility.yul\":24338:24403   */\n      tag_500\n        /* \"#utility.yul\":24396:24402   */\n      dup2\n        /* \"#utility.yul\":24391:24394   */\n      dup6\n        /* \"#utility.yul\":24384:24388   */\n      0x20\n        /* \"#utility.yul\":24377:24382   */\n      dup7\n        /* \"#utility.yul\":24373:24389   */\n      add\n        /* \"#utility.yul\":24338:24403   */\n      tag_265\n      jump\t// in\n    tag_500:\n        /* \"#utility.yul\":24428:24434   */\n      dup1\n        /* \"#utility.yul\":24423:24426   */\n      dup5\n        /* \"#utility.yul\":24419:24435   */\n      add\n        /* \"#utility.yul\":24412:24435   */\n      swap2\n      pop\n        /* \"#utility.yul\":24163:24441   */\n      pop\n        /* \"#utility.yul\":24055:24441   */\n      swap3\n      swap2\n      pop\n      pop\n      jump\t// out\n        /* \"#utility.yul\":24447:24718   */\n    tag_195:\n        /* \"#utility.yul\":24577:24580   */\n      0x00\n        /* \"#utility.yul\":24599:24692   */\n      tag_502\n        /* \"#utility.yul\":24688:24691   */\n      dup3\n        /* \"#utility.yul\":24679:24685   */\n      dup5\n        /* \"#utility.yul\":24599:24692   */\n      tag_266\n      jump\t// in\n    tag_502:\n        /* \"#utility.yul\":24592:24692   */\n      swap2\n      pop\n        /* \"#utility.yul\":24709:24712   */\n      dup2\n        /* \"#utility.yul\":24702:24712   */\n      swap1\n      pop\n        /* \"#utility.yul\":24447:24718   */\n      swap3\n      swap2\n      pop\n      pop\n      jump\t// out\n        /* \"#utility.yul\":24724:24823   */\n    tag_267:\n        /* \"#utility.yul\":24776:24782   */\n      0x00\n        /* \"#utility.yul\":24810:24815   */\n      dup2\n        /* \"#utility.yul\":24804:24816   */\n      mload\n        /* \"#utility.yul\":24794:24816   */\n      swap1\n      pop\n        /* \"#utility.yul\":24724:24823   */\n      swap2\n      swap1\n      pop\n      jump\t// out\n        /* \"#utility.yul\":24829:25206   */\n    tag_268:\n        /* \"#utility.yul\":24917:24920   */\n      0x00\n        /* \"#utility.yul\":24945:24984   */\n      tag_505\n        /* \"#utility.yul\":24978:24983   */\n      dup3\n        /* \"#utility.yul\":24945:24984   */\n      tag_267\n      jump\t// in\n    tag_505:\n        /* \"#utility.yul\":25000:25071   */\n      tag_506\n        /* \"#utility.yul\":25064:25070   */\n      dup2\n        /* \"#utility.yul\":25059:25062   */\n      dup6\n        /* \"#utility.yul\":25000:25071   */\n      tag_239\n      jump\t// in\n    tag_506:\n        /* \"#utility.yul\":24993:25071   */\n      swap4\n      pop\n        /* \"#utility.yul\":25080:25145   */\n      tag_507\n        /* \"#utility.yul\":25138:25144   */\n      dup2\n        /* \"#utility.yul\":25133:25136   */\n      dup6\n        /* \"#utility.yul\":25126:25130   */\n      0x20\n        /* \"#utility.yul\":25119:25124   */\n      dup7\n        /* \"#utility.yul\":25115:25131   */\n      add\n        /* \"#utility.yul\":25080:25145   */\n      tag_265\n      jump\t// in\n    tag_507:\n        /* \"#utility.yul\":25170:25199   */\n      tag_508\n        /* \"#utility.yul\":25192:25198   */\n      dup2\n        /* \"#utility.yul\":25170:25199   */\n      tag_220\n      jump\t// in\n    tag_508:\n        /* \"#utility.yul\":25165:25168   */\n      dup5\n        /* \"#utility.yul\":25161:25200   */\n      add\n        /* \"#utility.yul\":25154:25200   */\n      swap2\n      pop\n        /* \"#utility.yul\":24921:25206   */\n      pop\n        /* \"#utility.yul\":24829:25206   */\n      swap3\n      swap2\n      pop\n      pop\n      jump\t// out\n        /* \"#utility.yul\":25212:25525   */\n    tag_208:\n        /* \"#utility.yul\":25325:25329   */\n      0x00\n        /* \"#utility.yul\":25363:25365   */\n      0x20\n        /* \"#utility.yul\":25352:25361   */\n      dup3\n        /* \"#utility.yul\":25348:25366   */\n      add\n        /* \"#utility.yul\":25340:25366   */\n      swap1\n      pop\n        /* \"#utility.yul\":25412:25421   */\n      dup2\n        /* \"#utility.yul\":25406:25410   */\n      dup2\n        /* \"#utility.yul\":25402:25422   */\n      sub\n        /* \"#utility.yul\":25398:25399   */\n      0x00\n        /* \"#utility.yul\":25387:25396   */\n      dup4\n        /* \"#utility.yul\":25383:25400   */\n      add\n        /* \"#utility.yul\":25376:25423   */\n      mstore\n        /* \"#utility.yul\":25440:25518   */\n      tag_510\n        /* \"#utility.yul\":25513:25517   */\n      dup2\n        /* \"#utility.yul\":25504:25510   */\n      dup5\n        /* \"#utility.yul\":25440:25518   */\n      tag_268\n      jump\t// in\n    tag_510:\n        /* \"#utility.yul\":25432:25518   */\n      swap1\n      pop\n        /* \"#utility.yul\":25212:25525   */\n      swap3\n      swap2\n      pop\n      pop\n      jump\t// out\n\n    auxdata: 0xa26469706673582212200c05356a230aab107fb3e458c9ded3f8e16c197d435f8cec7dde04139732b01864736f6c63430008180033\n}\n",
				"bytecode": {
					"linkReferences": {},
					"object": "60806040525f600155348015610013575f80fd5b5061003061002561003560201b60201c565b61003c60201b60201c565b6100fd565b5f33905090565b5f805f9054906101000a900473ffffffffffffffffffffffffffffffffffffffff169050815f806101000a81548173ffffffffffffffffffffffffffffffffffffffff021916908373ffffffffffffffffffffffffffffffffffffffff1602179055508173ffffffffffffffffffffffffffffffffffffffff168173ffffffffffffffffffffffffffffffffffffffff167f8be0079c531659141344cd1fd0a4f28419497f9722a3daafe3b4186f6b6457e060405160405180910390a35050565b611b128061010a5f395ff3fe608060405260043610610085575f3560e01c8063addeb50711610058578063addeb5071461010d578063b064478f14610129578063ddca3f4314610145578063ef2704f01461016f578063f2fde38b1461018b57610085565b806369fe0e2d14610089578063715018a6146100b15780637a728217146100c75780638da5cb5b146100e3575b5f80fd5b348015610094575f80fd5b506100af60048036038101906100aa9190610e19565b6101b3565b005b3480156100bc575f80fd5b506100c5610239565b005b6100e160048036038101906100dc9190610fee565b6102c0565b005b3480156100ee575f80fd5b506100f76103c0565b6040516101049190611069565b60405180910390f35b6101276004803603810190610122919061123d565b6103e7565b005b610143600480360381019061013e91906112b3565b6105ad565b005b348015610150575f80fd5b5061015961070b565b604051610166919061134a565b60405180910390f35b61018960048036038101906101849190611363565b610711565b005b348015610196575f80fd5b506101b160048036038101906101ac91906113bd565b610846565b005b6101bb61093c565b73ffffffffffffffffffffffffffffffffffffffff166101d96103c0565b73ffffffffffffffffffffffffffffffffffffffff161461022f576040517f08c379a000000000000000000000000000000000000000000000000000000000815260040161022690611442565b60405180910390fd5b8060018190555050565b61024161093c565b73ffffffffffffffffffffffffffffffffffffffff1661025f6103c0565b73ffffffffffffffffffffffffffffffffffffffff16146102b5576040517f08c379a00000000000000000000000000000000000000000000000000000000081526004016102ac90611442565b60405180910390fd5b6102be5f610943565b565b5f8390503460015414610308576040517f08c379a00000000000000000000000000000000000000000000000000000000081526004016102ff906114aa565b60405180910390fd5b6103106103c0565b73ffffffffffffffffffffffffffffffffffffffff166108fc60015490811502906040515f60405180830381858888f19350505050158015610354573d5f803e3d5ffd5b505f835190505f5b818110156103b8576103ab3386838151811061037b5761037a6114c8565b5b6020026020010151868673ffffffffffffffffffffffffffffffffffffffff16610a04909392919063ffffffff16565b808060010191505061035c565b505050505050565b5f805f9054906101000a900473ffffffffffffffffffffffffffffffffffffffff16905090565b5f825190508151835114610430576040517f08c379a00000000000000000000000000000000000000000000000000000000081526004016104279061153f565b60405180910390fd5b5f805f90505b8281101561047357838181518110610451576104506114c8565b5b602002602001015182610464919061158a565b91508080600101915050610436565b5061048960015482610a8d90919063ffffffff16565b34146104ca576040517f08c379a00000000000000000000000000000000000000000000000000000000081526004016104c1906114aa565b60405180910390fd5b6104d26103c0565b73ffffffffffffffffffffffffffffffffffffffff166108fc60015490811502906040515f60405180830381858888f19350505050158015610516573d5f803e3d5ffd5b505f5b828110156105a657848181518110610534576105336114c8565b5b602002602001015173ffffffffffffffffffffffffffffffffffffffff166108fc858381518110610568576105676114c8565b5b602002602001015190811502906040515f60405180830381858888f19350505050158015610598573d5f803e3d5ffd5b508080600101915050610519565b5050505050565b5f83905034600154146105f5576040517f08c379a00000000000000000000000000000000000000000000000000000000081526004016105ec906114aa565b60405180910390fd5b8151835114610639576040517f08c379a00000000000000000000000000000000000000000000000000000000081526004016106309061153f565b60405180910390fd5b6106416103c0565b73ffffffffffffffffffffffffffffffffffffffff166108fc60015490811502906040515f60405180830381858888f19350505050158015610685573d5f803e3d5ffd5b505f835190505f5b81811015610703576106f6338683815181106106ac576106ab6114c8565b5b60200260200101518684815181106106c7576106c66114c8565b5b60200260200101518673ffffffffffffffffffffffffffffffffffffffff16610a04909392919063ffffffff16565b808060010191505061068d565b505050505050565b60015481565b5f8251905061073d60015461072f8484610aea90919063ffffffff16565b610a8d90919063ffffffff16565b341461077e576040517f08c379a0000000000000000000000000000000000000000000000000000000008152600401610775906114aa565b60405180910390fd5b6107866103c0565b73ffffffffffffffffffffffffffffffffffffffff166108fc60015490811502906040515f60405180830381858888f193505050501580156107ca573d5f803e3d5ffd5b505f5b81811015610840578381815181106107e8576107e76114c8565b5b602002602001015173ffffffffffffffffffffffffffffffffffffffff166108fc8490811502906040515f60405180830381858888f19350505050158015610832573d5f803e3d5ffd5b5080806001019150506107cd565b50505050565b61084e61093c565b73ffffffffffffffffffffffffffffffffffffffff1661086c6103c0565b73ffffffffffffffffffffffffffffffffffffffff16146108c2576040517f08c379a00000000000000000000000000000000000000000000000000000000081526004016108b990611442565b60405180910390fd5b5f73ffffffffffffffffffffffffffffffffffffffff168173ffffffffffffffffffffffffffffffffffffffff1603610930576040517f08c379a00000000000000000000000000000000000000000000000000000000081526004016109279061162d565b60405180910390fd5b61093981610943565b50565b5f33905090565b5f805f9054906101000a900473ffffffffffffffffffffffffffffffffffffffff169050815f806101000a81548173ffffffffffffffffffffffffffffffffffffffff021916908373ffffffffffffffffffffffffffffffffffffffff1602179055508173ffffffffffffffffffffffffffffffffffffffff168173ffffffffffffffffffffffffffffffffffffffff167f8be0079c531659141344cd1fd0a4f28419497f9722a3daafe3b4186f6b6457e060405160405180910390a35050565b610a87846323b872dd60e01b858585604051602401610a259392919061164b565b604051602081830303815290604052907bffffffffffffffffffffffffffffffffffffffffffffffffffffffff19166020820180517bffffffffffffffffffffffffffffffffffffffffffffffffffffffff8381831617835250505050610b61565b50505050565b5f808284610a9b919061158a565b905083811015610ae0576040517f08c379a0000000000000000000000000000000000000000000000000000000008152600401610ad7906116ca565b60405180910390fd5b8091505092915050565b5f808303610afa575f9050610b5b565b5f8284610b0791906116e8565b9050828482610b169190611756565b14610b56576040517f08c379a0000000000000000000000000000000000000000000000000000000008152600401610b4d906117f6565b60405180910390fd5b809150505b92915050565b5f610bc2826040518060400160405280602081526020017f5361666545524332303a206c6f772d6c6576656c2063616c6c206661696c65648152508573ffffffffffffffffffffffffffffffffffffffff16610c269092919063ffffffff16565b90505f81511115610c215780806020019051810190610be19190611849565b610c20576040517f08c379a0000000000000000000000000000000000000000000000000000000008152600401610c17906118e4565b60405180910390fd5b5b505050565b6060610c3484845f85610c3d565b90509392505050565b606082471015610c82576040517f08c379a0000000000000000000000000000000000000000000000000000000008152600401610c7990611972565b60405180910390fd5b610c8b85610d4d565b610cca576040517f08c379a0000000000000000000000000000000000000000000000000000000008152600401610cc1906119da565b60405180910390fd5b5f808673ffffffffffffffffffffffffffffffffffffffff168587604051610cf29190611a64565b5f6040518083038185875af1925050503d805f8114610d2c576040519150601f19603f3d011682016040523d82523d5f602084013e610d31565b606091505b5091509150610d41828286610d6f565b92505050949350505050565b5f808273ffffffffffffffffffffffffffffffffffffffff163b119050919050565b60608315610d7f57829050610dce565b5f83511115610d915782518084602001fd5b816040517f08c379a0000000000000000000000000000000000000000000000000000000008152600401610dc59190611abc565b60405180910390fd5b9392505050565b5f604051905090565b5f80fd5b5f80fd5b5f819050919050565b610df881610de6565b8114610e02575f80fd5b50565b5f81359050610e1381610def565b92915050565b5f60208284031215610e2e57610e2d610dde565b5b5f610e3b84828501610e05565b91505092915050565b5f73ffffffffffffffffffffffffffffffffffffffff82169050919050565b5f610e6d82610e44565b9050919050565b610e7d81610e63565b8114610e87575f80fd5b50565b5f81359050610e9881610e74565b92915050565b5f80fd5b5f601f19601f8301169050919050565b7f4e487b71000000000000000000000000000000000000000000000000000000005f52604160045260245ffd5b610ee882610ea2565b810181811067ffffffffffffffff82111715610f0757610f06610eb2565b5b80604052505050565b5f610f19610dd5565b9050610f258282610edf565b919050565b5f67ffffffffffffffff821115610f4457610f43610eb2565b5b602082029050602081019050919050565b5f80fd5b5f610f6b610f6684610f2a565b610f10565b90508083825260208201905060208402830185811115610f8e57610f8d610f55565b5b835b81811015610fb75780610fa38882610e8a565b845260208401935050602081019050610f90565b5050509392505050565b5f82601f830112610fd557610fd4610e9e565b5b8135610fe5848260208601610f59565b91505092915050565b5f805f6060848603121561100557611004610dde565b5b5f61101286828701610e8a565b935050602084013567ffffffffffffffff81111561103357611032610de2565b5b61103f86828701610fc1565b925050604061105086828701610e05565b9150509250925092565b61106381610e63565b82525050565b5f60208201905061107c5f83018461105a565b92915050565b5f67ffffffffffffffff82111561109c5761109b610eb2565b5b602082029050602081019050919050565b5f6110b782610e44565b9050919050565b6110c7816110ad565b81146110d1575f80fd5b50565b5f813590506110e2816110be565b92915050565b5f6110fa6110f584611082565b610f10565b9050808382526020820190506020840283018581111561111d5761111c610f55565b5b835b81811015611146578061113288826110d4565b84526020840193505060208101905061111f565b5050509392505050565b5f82601f83011261116457611163610e9e565b5b81356111748482602086016110e8565b91505092915050565b5f67ffffffffffffffff82111561119757611196610eb2565b5b602082029050602081019050919050565b5f6111ba6111b58461117d565b610f10565b905080838252602082019050602084028301858111156111dd576111dc610f55565b5b835b8181101561120657806111f28882610e05565b8452602084019350506020810190506111df565b5050509392505050565b5f82601f83011261122457611223610e9e565b5b81356112348482602086016111a8565b91505092915050565b5f806040838503121561125357611252610dde565b5b5f83013567ffffffffffffffff8111156112705761126f610de2565b5b61127c85828601611150565b925050602083013567ffffffffffffffff81111561129d5761129c610de2565b5b6112a985828601611210565b9150509250929050565b5f805f606084860312156112ca576112c9610dde565b5b5f6112d786828701610e8a565b935050602084013567ffffffffffffffff8111156112f8576112f7610de2565b5b61130486828701610fc1565b925050604084013567ffffffffffffffff81111561132557611324610de2565b5b61133186828701611210565b9150509250925092565b61134481610de6565b82525050565b5f60208201905061135d5f83018461133b565b92915050565b5f806040838503121561137957611378610dde565b5b5f83013567ffffffffffffffff81111561139657611395610de2565b5b6113a285828601611150565b92505060206113b385828601610e05565b9150509250929050565b5f602082840312156113d2576113d1610dde565b5b5f6113df84828501610e8a565b91505092915050565b5f82825260208201905092915050565b7f4f776e61626c653a2063616c6c6572206973206e6f7420746865206f776e65725f82015250565b5f61142c6020836113e8565b9150611437826113f8565b602082019050919050565b5f6020820190508181035f83015261145981611420565b9050919050565b7f5472616e7366657220616d6f756e74206572726f7200000000000000000000005f82015250565b5f6114946015836113e8565b915061149f82611460565b602082019050919050565b5f6020820190508181035f8301526114c181611488565b9050919050565b7f4e487b71000000000000000000000000000000000000000000000000000000005f52603260045260245ffd5b7f5472616e73666572206c656e677468206572726f7200000000000000000000005f82015250565b5f6115296015836113e8565b9150611534826114f5565b602082019050919050565b5f6020820190508181035f8301526115568161151d565b9050919050565b7f4e487b71000000000000000000000000000000000000000000000000000000005f52601160045260245ffd5b5f61159482610de6565b915061159f83610de6565b92508282019050808211156115b7576115b661155d565b5b92915050565b7f4f776e61626c653a206e6577206f776e657220697320746865207a65726f20615f8201527f6464726573730000000000000000000000000000000000000000000000000000602082015250565b5f6116176026836113e8565b9150611622826115bd565b604082019050919050565b5f6020820190508181035f8301526116448161160b565b9050919050565b5f60608201905061165e5f83018661105a565b61166b602083018561105a565b611678604083018461133b565b949350505050565b7f536166654d6174683a206164646974696f6e206f766572666c6f7700000000005f82015250565b5f6116b4601b836113e8565b91506116bf82611680565b602082019050919050565b5f6020820190508181035f8301526116e1816116a8565b9050919050565b5f6116f282610de6565b91506116fd83610de6565b925082820261170b81610de6565b915082820484148315176117225761172161155d565b5b5092915050565b7f4e487b71000000000000000000000000000000000000000000000000000000005f52601260045260245ffd5b5f61176082610de6565b915061176b83610de6565b92508261177b5761177a611729565b5b828204905092915050565b7f536166654d6174683a206d756c7469706c69636174696f6e206f766572666c6f5f8201527f7700000000000000000000000000000000000000000000000000000000000000602082015250565b5f6117e06021836113e8565b91506117eb82611786565b604082019050919050565b5f6020820190508181035f83015261180d816117d4565b9050919050565b5f8115159050919050565b61182881611814565b8114611832575f80fd5b50565b5f815190506118438161181f565b92915050565b5f6020828403121561185e5761185d610dde565b5b5f61186b84828501611835565b91505092915050565b7f5361666545524332303a204552433230206f7065726174696f6e20646964206e5f8201527f6f74207375636365656400000000000000000000000000000000000000000000602082015250565b5f6118ce602a836113e8565b91506118d982611874565b604082019050919050565b5f6020820190508181035f8301526118fb816118c2565b9050919050565b7f416464726573733a20696e73756666696369656e742062616c616e636520666f5f8201527f722063616c6c0000000000000000000000000000000000000000000000000000602082015250565b5f61195c6026836113e8565b915061196782611902565b604082019050919050565b5f6020820190508181035f83015261198981611950565b9050919050565b7f416464726573733a2063616c6c20746f206e6f6e2d636f6e74726163740000005f82015250565b5f6119c4601d836113e8565b91506119cf82611990565b602082019050919050565b5f6020820190508181035f8301526119f1816119b8565b9050919050565b5f81519050919050565b5f81905092915050565b5f5b83811015611a29578082015181840152602081019050611a0e565b5f8484015250505050565b5f611a3e826119f8565b611a488185611a02565b9350611a58818560208601611a0c565b80840191505092915050565b5f611a6f8284611a34565b915081905092915050565b5f81519050919050565b5f611a8e82611a7a565b611a9881856113e8565b9350611aa8818560208601611a0c565b611ab181610ea2565b840191505092915050565b5f6020820190508181035f830152611ad48184611a84565b90509291505056fea26469706673582212200c05356a230aab107fb3e458c9ded3f8e16c197d435f8cec7dde04139732b01864736f6c63430008180033",
					"opcodes": "PUSH1 0x80 PUSH1 0x40 MSTORE PUSH0 PUSH1 0x1 SSTORE CALLVALUE DUP1 ISZERO PUSH2 0x13 JUMPI PUSH0 DUP1 REVERT JUMPDEST POP PUSH2 0x30 PUSH2 0x25 PUSH2 0x35 PUSH1 0x20 SHL PUSH1 0x20 SHR JUMP JUMPDEST PUSH2 0x3C PUSH1 0x20 SHL PUSH1 0x20 SHR JUMP JUMPDEST PUSH2 0xFD JUMP JUMPDEST PUSH0 CALLER SWAP1 POP SWAP1 JUMP JUMPDEST PUSH0 DUP1 PUSH0 SWAP1 SLOAD SWAP1 PUSH2 0x100 EXP SWAP1 DIV PUSH20 0xFFFFFFFFFFFFFFFFFFFFFFFFFFFFFFFFFFFFFFFF AND SWAP1 POP DUP2 PUSH0 DUP1 PUSH2 0x100 EXP DUP2 SLOAD DUP2 PUSH20 0xFFFFFFFFFFFFFFFFFFFFFFFFFFFFFFFFFFFFFFFF MUL NOT AND SWAP1 DUP4 PUSH20 0xFFFFFFFFFFFFFFFFFFFFFFFFFFFFFFFFFFFFFFFF AND MUL OR SWAP1 SSTORE POP DUP2 PUSH20 0xFFFFFFFFFFFFFFFFFFFFFFFFFFFFFFFFFFFFFFFF AND DUP2 PUSH20 0xFFFFFFFFFFFFFFFFFFFFFFFFFFFFFFFFFFFFFFFF AND PUSH32 0x8BE0079C531659141344CD1FD0A4F28419497F9722A3DAAFE3B4186F6B6457E0 PUSH1 0x40 MLOAD PUSH1 0x40 MLOAD DUP1 SWAP2 SUB SWAP1 LOG3 POP POP JUMP JUMPDEST PUSH2 0x1B12 DUP1 PUSH2 0x10A PUSH0 CODECOPY PUSH0 RETURN INVALID PUSH1 0x80 PUSH1 0x40 MSTORE PUSH1 0x4 CALLDATASIZE LT PUSH2 0x85 JUMPI PUSH0 CALLDATALOAD PUSH1 0xE0 SHR DUP1 PUSH4 0xADDEB507 GT PUSH2 0x58 JUMPI DUP1 PUSH4 0xADDEB507 EQ PUSH2 0x10D JUMPI DUP1 PUSH4 0xB064478F EQ PUSH2 0x129 JUMPI DUP1 PUSH4 0xDDCA3F43 EQ PUSH2 0x145 JUMPI DUP1 PUSH4 0xEF2704F0 EQ PUSH2 0x16F JUMPI DUP1 PUSH4 0xF2FDE38B EQ PUSH2 0x18B JUMPI PUSH2 0x85 JUMP JUMPDEST DUP1 PUSH4 0x69FE0E2D EQ PUSH2 0x89 JUMPI DUP1 PUSH4 0x715018A6 EQ PUSH2 0xB1 JUMPI DUP1 PUSH4 0x7A728217 EQ PUSH2 0xC7 JUMPI DUP1 PUSH4 0x8DA5CB5B EQ PUSH2 0xE3 JUMPI JUMPDEST PUSH0 DUP1 REVERT JUMPDEST CALLVALUE DUP1 ISZERO PUSH2 0x94 JUMPI PUSH0 DUP1 REVERT JUMPDEST POP PUSH2 0xAF PUSH1 0x4 DUP1 CALLDATASIZE SUB DUP2 ADD SWAP1 PUSH2 0xAA SWAP2 SWAP1 PUSH2 0xE19 JUMP JUMPDEST PUSH2 0x1B3 JUMP JUMPDEST STOP JUMPDEST CALLVALUE DUP1 ISZERO PUSH2 0xBC JUMPI PUSH0 DUP1 REVERT JUMPDEST POP PUSH2 0xC5 PUSH2 0x239 JUMP JUMPDEST STOP JUMPDEST PUSH2 0xE1 PUSH1 0x4 DUP1 CALLDATASIZE SUB DUP2 ADD SWAP1 PUSH2 0xDC SWAP2 SWAP1 PUSH2 0xFEE JUMP JUMPDEST PUSH2 0x2C0 JUMP JUMPDEST STOP JUMPDEST CALLVALUE DUP1 ISZERO PUSH2 0xEE JUMPI PUSH0 DUP1 REVERT JUMPDEST POP PUSH2 0xF7 PUSH2 0x3C0 JUMP JUMPDEST PUSH1 0x40 MLOAD PUSH2 0x104 SWAP2 SWAP1 PUSH2 0x1069 JUMP JUMPDEST PUSH1 0x40 MLOAD DUP1 SWAP2 SUB SWAP1 RETURN JUMPDEST PUSH2 0x127 PUSH1 0x4 DUP1 CALLDATASIZE SUB DUP2 ADD SWAP1 PUSH2 0x122 SWAP2 SWAP1 PUSH2 0x123D JUMP JUMPDEST PUSH2 0x3E7 JUMP JUMPDEST STOP JUMPDEST PUSH2 0x143 PUSH1 0x4 DUP1 CALLDATASIZE SUB DUP2 ADD SWAP1 PUSH2 0x13E SWAP2 SWAP1 PUSH2 0x12B3 JUMP JUMPDEST PUSH2 0x5AD JUMP JUMPDEST STOP JUMPDEST CALLVALUE DUP1 ISZERO PUSH2 0x150 JUMPI PUSH0 DUP1 REVERT JUMPDEST POP PUSH2 0x159 PUSH2 0x70B JUMP JUMPDEST PUSH1 0x40 MLOAD PUSH2 0x166 SWAP2 SWAP1 PUSH2 0x134A JUMP JUMPDEST PUSH1 0x40 MLOAD DUP1 SWAP2 SUB SWAP1 RETURN JUMPDEST PUSH2 0x189 PUSH1 0x4 DUP1 CALLDATASIZE SUB DUP2 ADD SWAP1 PUSH2 0x184 SWAP2 SWAP1 PUSH2 0x1363 JUMP JUMPDEST PUSH2 0x711 JUMP JUMPDEST STOP JUMPDEST CALLVALUE DUP1 ISZERO PUSH2 0x196 JUMPI PUSH0 DUP1 REVERT JUMPDEST POP PUSH2 0x1B1 PUSH1 0x4 DUP1 CALLDATASIZE SUB DUP2 ADD SWAP1 PUSH2 0x1AC SWAP2 SWAP1 PUSH2 0x13BD JUMP JUMPDEST PUSH2 0x846 JUMP JUMPDEST STOP JUMPDEST PUSH2 0x1BB PUSH2 0x93C JUMP JUMPDEST PUSH20 0xFFFFFFFFFFFFFFFFFFFFFFFFFFFFFFFFFFFFFFFF AND PUSH2 0x1D9 PUSH2 0x3C0 JUMP JUMPDEST PUSH20 0xFFFFFFFFFFFFFFFFFFFFFFFFFFFFFFFFFFFFFFFF AND EQ PUSH2 0x22F JUMPI PUSH1 0x40 MLOAD PUSH32 0x8C379A000000000000000000000000000000000000000000000000000000000 DUP2 MSTORE PUSH1 0x4 ADD PUSH2 0x226 SWAP1 PUSH2 0x1442 JUMP JUMPDEST PUSH1 0x40 MLOAD DUP1 SWAP2 SUB SWAP1 REVERT JUMPDEST DUP1 PUSH1 0x1 DUP2 SWAP1 SSTORE POP POP JUMP JUMPDEST PUSH2 0x241 PUSH2 0x93C JUMP JUMPDEST PUSH20 0xFFFFFFFFFFFFFFFFFFFFFFFFFFFFFFFFFFFFFFFF AND PUSH2 0x25F PUSH2 0x3C0 JUMP JUMPDEST PUSH20 0xFFFFFFFFFFFFFFFFFFFFFFFFFFFFFFFFFFFFFFFF AND EQ PUSH2 0x2B5 JUMPI PUSH1 0x40 MLOAD PUSH32 0x8C379A000000000000000000000000000000000000000000000000000000000 DUP2 MSTORE PUSH1 0x4 ADD PUSH2 0x2AC SWAP1 PUSH2 0x1442 JUMP JUMPDEST PUSH1 0x40 MLOAD DUP1 SWAP2 SUB SWAP1 REVERT JUMPDEST PUSH2 0x2BE PUSH0 PUSH2 0x943 JUMP JUMPDEST JUMP JUMPDEST PUSH0 DUP4 SWAP1 POP CALLVALUE PUSH1 0x1 SLOAD EQ PUSH2 0x308 JUMPI PUSH1 0x40 MLOAD PUSH32 0x8C379A000000000000000000000000000000000000000000000000000000000 DUP2 MSTORE PUSH1 0x4 ADD PUSH2 0x2FF SWAP1 PUSH2 0x14AA JUMP JUMPDEST PUSH1 0x40 MLOAD DUP1 SWAP2 SUB SWAP1 REVERT JUMPDEST PUSH2 0x310 PUSH2 0x3C0 JUMP JUMPDEST PUSH20 0xFFFFFFFFFFFFFFFFFFFFFFFFFFFFFFFFFFFFFFFF AND PUSH2 0x8FC PUSH1 0x1 SLOAD SWAP1 DUP2 ISZERO MUL SWAP1 PUSH1 0x40 MLOAD PUSH0 PUSH1 0x40 MLOAD DUP1 DUP4 SUB DUP2 DUP6 DUP9 DUP9 CALL SWAP4 POP POP POP POP ISZERO DUP1 ISZERO PUSH2 0x354 JUMPI RETURNDATASIZE PUSH0 DUP1 RETURNDATACOPY RETURNDATASIZE PUSH0 REVERT JUMPDEST POP PUSH0 DUP4 MLOAD SWAP1 POP PUSH0 JUMPDEST DUP2 DUP2 LT ISZERO PUSH2 0x3B8 JUMPI PUSH2 0x3AB CALLER DUP7 DUP4 DUP2 MLOAD DUP2 LT PUSH2 0x37B JUMPI PUSH2 0x37A PUSH2 0x14C8 JUMP JUMPDEST JUMPDEST PUSH1 0x20 MUL PUSH1 0x20 ADD ADD MLOAD DUP7 DUP7 PUSH20 0xFFFFFFFFFFFFFFFFFFFFFFFFFFFFFFFFFFFFFFFF AND PUSH2 0xA04 SWAP1 SWAP4 SWAP3 SWAP2 SWAP1 PUSH4 0xFFFFFFFF AND JUMP JUMPDEST DUP1 DUP1 PUSH1 0x1 ADD SWAP2 POP POP PUSH2 0x35C JUMP JUMPDEST POP POP POP POP POP POP JUMP JUMPDEST PUSH0 DUP1 PUSH0 SWAP1 SLOAD SWAP1 PUSH2 0x100 EXP SWAP1 DIV PUSH20 0xFFFFFFFFFFFFFFFFFFFFFFFFFFFFFFFFFFFFFFFF AND SWAP1 POP SWAP1 JUMP JUMPDEST PUSH0 DUP3 MLOAD SWAP1 POP DUP2 MLOAD DUP4 MLOAD EQ PUSH2 0x430 JUMPI PUSH1 0x40 MLOAD PUSH32 0x8C379A000000000000000000000000000000000000000000000000000000000 DUP2 MSTORE PUSH1 0x4 ADD PUSH2 0x427 SWAP1 PUSH2 0x153F JUMP JUMPDEST PUSH1 0x40 MLOAD DUP1 SWAP2 SUB SWAP1 REVERT JUMPDEST PUSH0 DUP1 PUSH0 SWAP1 POP JUMPDEST DUP3 DUP2 LT ISZERO PUSH2 0x473 JUMPI DUP4 DUP2 DUP2 MLOAD DUP2 LT PUSH2 0x451 JUMPI PUSH2 0x450 PUSH2 0x14C8 JUMP JUMPDEST JUMPDEST PUSH1 0x20 MUL PUSH1 0x20 ADD ADD MLOAD DUP3 PUSH2 0x464 SWAP2 SWAP1 PUSH2 0x158A JUMP JUMPDEST SWAP2 POP DUP1 DUP1 PUSH1 0x1 ADD SWAP2 POP POP PUSH2 0x436 JUMP JUMPDEST POP PUSH2 0x489 PUSH1 0x1 SLOAD DUP3 PUSH2 0xA8D SWAP1 SWAP2 SWAP1 PUSH4 0xFFFFFFFF AND JUMP JUMPDEST CALLVALUE EQ PUSH2 0x4CA JUMPI PUSH1 0x40 MLOAD PUSH32 0x8C379A000000000000000000000000000000000000000000000000000000000 DUP2 MSTORE PUSH1 0x4 ADD PUSH2 0x4C1 SWAP1 PUSH2 0x14AA JUMP JUMPDEST PUSH1 0x40 MLOAD DUP1 SWAP2 SUB SWAP1 REVERT JUMPDEST PUSH2 0x4D2 PUSH2 0x3C0 JUMP JUMPDEST PUSH20 0xFFFFFFFFFFFFFFFFFFFFFFFFFFFFFFFFFFFFFFFF AND PUSH2 0x8FC PUSH1 0x1 SLOAD SWAP1 DUP2 ISZERO MUL SWAP1 PUSH1 0x40 MLOAD PUSH0 PUSH1 0x40 MLOAD DUP1 DUP4 SUB DUP2 DUP6 DUP9 DUP9 CALL SWAP4 POP POP POP POP ISZERO DUP1 ISZERO PUSH2 0x516 JUMPI RETURNDATASIZE PUSH0 DUP1 RETURNDATACOPY RETURNDATASIZE PUSH0 REVERT JUMPDEST POP PUSH0 JUMPDEST DUP3 DUP2 LT ISZERO PUSH2 0x5A6 JUMPI DUP5 DUP2 DUP2 MLOAD DUP2 LT PUSH2 0x534 JUMPI PUSH2 0x533 PUSH2 0x14C8 JUMP JUMPDEST JUMPDEST PUSH1 0x20 MUL PUSH1 0x20 ADD ADD MLOAD PUSH20 0xFFFFFFFFFFFFFFFFFFFFFFFFFFFFFFFFFFFFFFFF AND PUSH2 0x8FC DUP6 DUP4 DUP2 MLOAD DUP2 LT PUSH2 0x568 JUMPI PUSH2 0x567 PUSH2 0x14C8 JUMP JUMPDEST JUMPDEST PUSH1 0x20 MUL PUSH1 0x20 ADD ADD MLOAD SWAP1 DUP2 ISZERO MUL SWAP1 PUSH1 0x40 MLOAD PUSH0 PUSH1 0x40 MLOAD DUP1 DUP4 SUB DUP2 DUP6 DUP9 DUP9 CALL SWAP4 POP POP POP POP ISZERO DUP1 ISZERO PUSH2 0x598 JUMPI RETURNDATASIZE PUSH0 DUP1 RETURNDATACOPY RETURNDATASIZE PUSH0 REVERT JUMPDEST POP DUP1 DUP1 PUSH1 0x1 ADD SWAP2 POP POP PUSH2 0x519 JUMP JUMPDEST POP POP POP POP POP JUMP JUMPDEST PUSH0 DUP4 SWAP1 POP CALLVALUE PUSH1 0x1 SLOAD EQ PUSH2 0x5F5 JUMPI PUSH1 0x40 MLOAD PUSH32 0x8C379A000000000000000000000000000000000000000000000000000000000 DUP2 MSTORE PUSH1 0x4 ADD PUSH2 0x5EC SWAP1 PUSH2 0x14AA JUMP JUMPDEST PUSH1 0x40 MLOAD DUP1 SWAP2 SUB SWAP1 REVERT JUMPDEST DUP2 MLOAD DUP4 MLOAD EQ PUSH2 0x639 JUMPI PUSH1 0x40 MLOAD PUSH32 0x8C379A000000000000000000000000000000000000000000000000000000000 DUP2 MSTORE PUSH1 0x4 ADD PUSH2 0x630 SWAP1 PUSH2 0x153F JUMP JUMPDEST PUSH1 0x40 MLOAD DUP1 SWAP2 SUB SWAP1 REVERT JUMPDEST PUSH2 0x641 PUSH2 0x3C0 JUMP JUMPDEST PUSH20 0xFFFFFFFFFFFFFFFFFFFFFFFFFFFFFFFFFFFFFFFF AND PUSH2 0x8FC PUSH1 0x1 SLOAD SWAP1 DUP2 ISZERO MUL SWAP1 PUSH1 0x40 MLOAD PUSH0 PUSH1 0x40 MLOAD DUP1 DUP4 SUB DUP2 DUP6 DUP9 DUP9 CALL SWAP4 POP POP POP POP ISZERO DUP1 ISZERO PUSH2 0x685 JUMPI RETURNDATASIZE PUSH0 DUP1 RETURNDATACOPY RETURNDATASIZE PUSH0 REVERT JUMPDEST POP PUSH0 DUP4 MLOAD SWAP1 POP PUSH0 JUMPDEST DUP2 DUP2 LT ISZERO PUSH2 0x703 JUMPI PUSH2 0x6F6 CALLER DUP7 DUP4 DUP2 MLOAD DUP2 LT PUSH2 0x6AC JUMPI PUSH2 0x6AB PUSH2 0x14C8 JUMP JUMPDEST JUMPDEST PUSH1 0x20 MUL PUSH1 0x20 ADD ADD MLOAD DUP7 DUP5 DUP2 MLOAD DUP2 LT PUSH2 0x6C7 JUMPI PUSH2 0x6C6 PUSH2 0x14C8 JUMP JUMPDEST JUMPDEST PUSH1 0x20 MUL PUSH1 0x20 ADD ADD MLOAD DUP7 PUSH20 0xFFFFFFFFFFFFFFFFFFFFFFFFFFFFFFFFFFFFFFFF AND PUSH2 0xA04 SWAP1 SWAP4 SWAP3 SWAP2 SWAP1 PUSH4 0xFFFFFFFF AND JUMP JUMPDEST DUP1 DUP1 PUSH1 0x1 ADD SWAP2 POP POP PUSH2 0x68D JUMP JUMPDEST POP POP POP POP POP POP JUMP JUMPDEST PUSH1 0x1 SLOAD DUP2 JUMP JUMPDEST PUSH0 DUP3 MLOAD SWAP1 POP PUSH2 0x73D PUSH1 0x1 SLOAD PUSH2 0x72F DUP5 DUP5 PUSH2 0xAEA SWAP1 SWAP2 SWAP1 PUSH4 0xFFFFFFFF AND JUMP JUMPDEST PUSH2 0xA8D SWAP1 SWAP2 SWAP1 PUSH4 0xFFFFFFFF AND JUMP JUMPDEST CALLVALUE EQ PUSH2 0x77E JUMPI PUSH1 0x40 MLOAD PUSH32 0x8C379A000000000000000000000000000000000000000000000000000000000 DUP2 MSTORE PUSH1 0x4 ADD PUSH2 0x775 SWAP1 PUSH2 0x14AA JUMP JUMPDEST PUSH1 0x40 MLOAD DUP1 SWAP2 SUB SWAP1 REVERT JUMPDEST PUSH2 0x786 PUSH2 0x3C0 JUMP JUMPDEST PUSH20 0xFFFFFFFFFFFFFFFFFFFFFFFFFFFFFFFFFFFFFFFF AND PUSH2 0x8FC PUSH1 0x1 SLOAD SWAP1 DUP2 ISZERO MUL SWAP1 PUSH1 0x40 MLOAD PUSH0 PUSH1 0x40 MLOAD DUP1 DUP4 SUB DUP2 DUP6 DUP9 DUP9 CALL SWAP4 POP POP POP POP ISZERO DUP1 ISZERO PUSH2 0x7CA JUMPI RETURNDATASIZE PUSH0 DUP1 RETURNDATACOPY RETURNDATASIZE PUSH0 REVERT JUMPDEST POP PUSH0 JUMPDEST DUP2 DUP2 LT ISZERO PUSH2 0x840 JUMPI DUP4 DUP2 DUP2 MLOAD DUP2 LT PUSH2 0x7E8 JUMPI PUSH2 0x7E7 PUSH2 0x14C8 JUMP JUMPDEST JUMPDEST PUSH1 0x20 MUL PUSH1 0x20 ADD ADD MLOAD PUSH20 0xFFFFFFFFFFFFFFFFFFFFFFFFFFFFFFFFFFFFFFFF AND PUSH2 0x8FC DUP5 SWAP1 DUP2 ISZERO MUL SWAP1 PUSH1 0x40 MLOAD PUSH0 PUSH1 0x40 MLOAD DUP1 DUP4 SUB DUP2 DUP6 DUP9 DUP9 CALL SWAP4 POP POP POP POP ISZERO DUP1 ISZERO PUSH2 0x832 JUMPI RETURNDATASIZE PUSH0 DUP1 RETURNDATACOPY RETURNDATASIZE PUSH0 REVERT JUMPDEST POP DUP1 DUP1 PUSH1 0x1 ADD SWAP2 POP POP PUSH2 0x7CD JUMP JUMPDEST POP POP POP POP JUMP JUMPDEST PUSH2 0x84E PUSH2 0x93C JUMP JUMPDEST PUSH20 0xFFFFFFFFFFFFFFFFFFFFFFFFFFFFFFFFFFFFFFFF AND PUSH2 0x86C PUSH2 0x3C0 JUMP JUMPDEST PUSH20 0xFFFFFFFFFFFFFFFFFFFFFFFFFFFFFFFFFFFFFFFF AND EQ PUSH2 0x8C2 JUMPI PUSH1 0x40 MLOAD PUSH32 0x8C379A000000000000000000000000000000000000000000000000000000000 DUP2 MSTORE PUSH1 0x4 ADD PUSH2 0x8B9 SWAP1 PUSH2 0x1442 JUMP JUMPDEST PUSH1 0x40 MLOAD DUP1 SWAP2 SUB SWAP1 REVERT JUMPDEST PUSH0 PUSH20 0xFFFFFFFFFFFFFFFFFFFFFFFFFFFFFFFFFFFFFFFF AND DUP2 PUSH20 0xFFFFFFFFFFFFFFFFFFFFFFFFFFFFFFFFFFFFFFFF AND SUB PUSH2 0x930 JUMPI PUSH1 0x40 MLOAD PUSH32 0x8C379A000000000000000000000000000000000000000000000000000000000 DUP2 MSTORE PUSH1 0x4 ADD PUSH2 0x927 SWAP1 PUSH2 0x162D JUMP JUMPDEST PUSH1 0x40 MLOAD DUP1 SWAP2 SUB SWAP1 REVERT JUMPDEST PUSH2 0x939 DUP2 PUSH2 0x943 JUMP JUMPDEST POP JUMP JUMPDEST PUSH0 CALLER SWAP1 POP SWAP1 JUMP JUMPDEST PUSH0 DUP1 PUSH0 SWAP1 SLOAD SWAP1 PUSH2 0x100 EXP SWAP1 DIV PUSH20 0xFFFFFFFFFFFFFFFFFFFFFFFFFFFFFFFFFFFFFFFF AND SWAP1 POP DUP2 PUSH0 DUP1 PUSH2 0x100 EXP DUP2 SLOAD DUP2 PUSH20 0xFFFFFFFFFFFFFFFFFFFFFFFFFFFFFFFFFFFFFFFF MUL NOT AND SWAP1 DUP4 PUSH20 0xFFFFFFFFFFFFFFFFFFFFFFFFFFFFFFFFFFFFFFFF AND MUL OR SWAP1 SSTORE POP DUP2 PUSH20 0xFFFFFFFFFFFFFFFFFFFFFFFFFFFFFFFFFFFFFFFF AND DUP2 PUSH20 0xFFFFFFFFFFFFFFFFFFFFFFFFFFFFFFFFFFFFFFFF AND PUSH32 0x8BE0079C531659141344CD1FD0A4F28419497F9722A3DAAFE3B4186F6B6457E0 PUSH1 0x40 MLOAD PUSH1 0x40 MLOAD DUP1 SWAP2 SUB SWAP1 LOG3 POP POP JUMP JUMPDEST PUSH2 0xA87 DUP5 PUSH4 0x23B872DD PUSH1 0xE0 SHL DUP6 DUP6 DUP6 PUSH1 0x40 MLOAD PUSH1 0x24 ADD PUSH2 0xA25 SWAP4 SWAP3 SWAP2 SWAP1 PUSH2 0x164B JUMP JUMPDEST PUSH1 0x40 MLOAD PUSH1 0x20 DUP2 DUP4 SUB SUB DUP2 MSTORE SWAP1 PUSH1 0x40 MSTORE SWAP1 PUSH28 0xFFFFFFFFFFFFFFFFFFFFFFFFFFFFFFFFFFFFFFFFFFFFFFFFFFFFFFFF NOT AND PUSH1 0x20 DUP3 ADD DUP1 MLOAD PUSH28 0xFFFFFFFFFFFFFFFFFFFFFFFFFFFFFFFFFFFFFFFFFFFFFFFFFFFFFFFF DUP4 DUP2 DUP4 AND OR DUP4 MSTORE POP POP POP POP PUSH2 0xB61 JUMP JUMPDEST POP POP POP POP JUMP JUMPDEST PUSH0 DUP1 DUP3 DUP5 PUSH2 0xA9B SWAP2 SWAP1 PUSH2 0x158A JUMP JUMPDEST SWAP1 POP DUP4 DUP2 LT ISZERO PUSH2 0xAE0 JUMPI PUSH1 0x40 MLOAD PUSH32 0x8C379A000000000000000000000000000000000000000000000000000000000 DUP2 MSTORE PUSH1 0x4 ADD PUSH2 0xAD7 SWAP1 PUSH2 0x16CA JUMP JUMPDEST PUSH1 0x40 MLOAD DUP1 SWAP2 SUB SWAP1 REVERT JUMPDEST DUP1 SWAP2 POP POP SWAP3 SWAP2 POP POP JUMP JUMPDEST PUSH0 DUP1 DUP4 SUB PUSH2 0xAFA JUMPI PUSH0 SWAP1 POP PUSH2 0xB5B JUMP JUMPDEST PUSH0 DUP3 DUP5 PUSH2 0xB07 SWAP2 SWAP1 PUSH2 0x16E8 JUMP JUMPDEST SWAP1 POP DUP3 DUP5 DUP3 PUSH2 0xB16 SWAP2 SWAP1 PUSH2 0x1756 JUMP JUMPDEST EQ PUSH2 0xB56 JUMPI PUSH1 0x40 MLOAD PUSH32 0x8C379A000000000000000000000000000000000000000000000000000000000 DUP2 MSTORE PUSH1 0x4 ADD PUSH2 0xB4D SWAP1 PUSH2 0x17F6 JUMP JUMPDEST PUSH1 0x40 MLOAD DUP1 SWAP2 SUB SWAP1 REVERT JUMPDEST DUP1 SWAP2 POP POP JUMPDEST SWAP3 SWAP2 POP POP JUMP JUMPDEST PUSH0 PUSH2 0xBC2 DUP3 PUSH1 0x40 MLOAD DUP1 PUSH1 0x40 ADD PUSH1 0x40 MSTORE DUP1 PUSH1 0x20 DUP2 MSTORE PUSH1 0x20 ADD PUSH32 0x5361666545524332303A206C6F772D6C6576656C2063616C6C206661696C6564 DUP2 MSTORE POP DUP6 PUSH20 0xFFFFFFFFFFFFFFFFFFFFFFFFFFFFFFFFFFFFFFFF AND PUSH2 0xC26 SWAP1 SWAP3 SWAP2 SWAP1 PUSH4 0xFFFFFFFF AND JUMP JUMPDEST SWAP1 POP PUSH0 DUP2 MLOAD GT ISZERO PUSH2 0xC21 JUMPI DUP1 DUP1 PUSH1 0x20 ADD SWAP1 MLOAD DUP2 ADD SWAP1 PUSH2 0xBE1 SWAP2 SWAP1 PUSH2 0x1849 JUMP JUMPDEST PUSH2 0xC20 JUMPI PUSH1 0x40 MLOAD PUSH32 0x8C379A000000000000000000000000000000000000000000000000000000000 DUP2 MSTORE PUSH1 0x4 ADD PUSH2 0xC17 SWAP1 PUSH2 0x18E4 JUMP JUMPDEST PUSH1 0x40 MLOAD DUP1 SWAP2 SUB SWAP1 REVERT JUMPDEST JUMPDEST POP POP POP JUMP JUMPDEST PUSH1 0x60 PUSH2 0xC34 DUP5 DUP5 PUSH0 DUP6 PUSH2 0xC3D JUMP JUMPDEST SWAP1 POP SWAP4 SWAP3 POP POP POP JUMP JUMPDEST PUSH1 0x60 DUP3 SELFBALANCE LT ISZERO PUSH2 0xC82 JUMPI PUSH1 0x40 MLOAD PUSH32 0x8C379A000000000000000000000000000000000000000000000000000000000 DUP2 MSTORE PUSH1 0x4 ADD PUSH2 0xC79 SWAP1 PUSH2 0x1972 JUMP JUMPDEST PUSH1 0x40 MLOAD DUP1 SWAP2 SUB SWAP1 REVERT JUMPDEST PUSH2 0xC8B DUP6 PUSH2 0xD4D JUMP JUMPDEST PUSH2 0xCCA JUMPI PUSH1 0x40 MLOAD PUSH32 0x8C379A000000000000000000000000000000000000000000000000000000000 DUP2 MSTORE PUSH1 0x4 ADD PUSH2 0xCC1 SWAP1 PUSH2 0x19DA JUMP JUMPDEST PUSH1 0x40 MLOAD DUP1 SWAP2 SUB SWAP1 REVERT JUMPDEST PUSH0 DUP1 DUP7 PUSH20 0xFFFFFFFFFFFFFFFFFFFFFFFFFFFFFFFFFFFFFFFF AND DUP6 DUP8 PUSH1 0x40 MLOAD PUSH2 0xCF2 SWAP2 SWAP1 PUSH2 0x1A64 JUMP JUMPDEST PUSH0 PUSH1 0x40 MLOAD DUP1 DUP4 SUB DUP2 DUP6 DUP8 GAS CALL SWAP3 POP POP POP RETURNDATASIZE DUP1 PUSH0 DUP2 EQ PUSH2 0xD2C JUMPI PUSH1 0x40 MLOAD SWAP2 POP PUSH1 0x1F NOT PUSH1 0x3F RETURNDATASIZE ADD AND DUP3 ADD PUSH1 0x40 MSTORE RETURNDATASIZE DUP3 MSTORE RETURNDATASIZE PUSH0 PUSH1 0x20 DUP5 ADD RETURNDATACOPY PUSH2 0xD31 JUMP JUMPDEST PUSH1 0x60 SWAP2 POP JUMPDEST POP SWAP2 POP SWAP2 POP PUSH2 0xD41 DUP3 DUP3 DUP7 PUSH2 0xD6F JUMP JUMPDEST SWAP3 POP POP POP SWAP5 SWAP4 POP POP POP POP JUMP JUMPDEST PUSH0 DUP1 DUP3 PUSH20 0xFFFFFFFFFFFFFFFFFFFFFFFFFFFFFFFFFFFFFFFF AND EXTCODESIZE GT SWAP1 POP SWAP2 SWAP1 POP JUMP JUMPDEST PUSH1 0x60 DUP4 ISZERO PUSH2 0xD7F JUMPI DUP3 SWAP1 POP PUSH2 0xDCE JUMP JUMPDEST PUSH0 DUP4 MLOAD GT ISZERO PUSH2 0xD91 JUMPI DUP3 MLOAD DUP1 DUP5 PUSH1 0x20 ADD REVERT JUMPDEST DUP2 PUSH1 0x40 MLOAD PUSH32 0x8C379A000000000000000000000000000000000000000000000000000000000 DUP2 MSTORE PUSH1 0x4 ADD PUSH2 0xDC5 SWAP2 SWAP1 PUSH2 0x1ABC JUMP JUMPDEST PUSH1 0x40 MLOAD DUP1 SWAP2 SUB SWAP1 REVERT JUMPDEST SWAP4 SWAP3 POP POP POP JUMP JUMPDEST PUSH0 PUSH1 0x40 MLOAD SWAP1 POP SWAP1 JUMP JUMPDEST PUSH0 DUP1 REVERT JUMPDEST PUSH0 DUP1 REVERT JUMPDEST PUSH0 DUP2 SWAP1 POP SWAP2 SWAP1 POP JUMP JUMPDEST PUSH2 0xDF8 DUP2 PUSH2 0xDE6 JUMP JUMPDEST DUP2 EQ PUSH2 0xE02 JUMPI PUSH0 DUP1 REVERT JUMPDEST POP JUMP JUMPDEST PUSH0 DUP2 CALLDATALOAD SWAP1 POP PUSH2 0xE13 DUP2 PUSH2 0xDEF JUMP JUMPDEST SWAP3 SWAP2 POP POP JUMP JUMPDEST PUSH0 PUSH1 0x20 DUP3 DUP5 SUB SLT ISZERO PUSH2 0xE2E JUMPI PUSH2 0xE2D PUSH2 0xDDE JUMP JUMPDEST JUMPDEST PUSH0 PUSH2 0xE3B DUP5 DUP3 DUP6 ADD PUSH2 0xE05 JUMP JUMPDEST SWAP2 POP POP SWAP3 SWAP2 POP POP JUMP JUMPDEST PUSH0 PUSH20 0xFFFFFFFFFFFFFFFFFFFFFFFFFFFFFFFFFFFFFFFF DUP3 AND SWAP1 POP SWAP2 SWAP1 POP JUMP JUMPDEST PUSH0 PUSH2 0xE6D DUP3 PUSH2 0xE44 JUMP JUMPDEST SWAP1 POP SWAP2 SWAP1 POP JUMP JUMPDEST PUSH2 0xE7D DUP2 PUSH2 0xE63 JUMP JUMPDEST DUP2 EQ PUSH2 0xE87 JUMPI PUSH0 DUP1 REVERT JUMPDEST POP JUMP JUMPDEST PUSH0 DUP2 CALLDATALOAD SWAP1 POP PUSH2 0xE98 DUP2 PUSH2 0xE74 JUMP JUMPDEST SWAP3 SWAP2 POP POP JUMP JUMPDEST PUSH0 DUP1 REVERT JUMPDEST PUSH0 PUSH1 0x1F NOT PUSH1 0x1F DUP4 ADD AND SWAP1 POP SWAP2 SWAP1 POP JUMP JUMPDEST PUSH32 0x4E487B7100000000000000000000000000000000000000000000000000000000 PUSH0 MSTORE PUSH1 0x41 PUSH1 0x4 MSTORE PUSH1 0x24 PUSH0 REVERT JUMPDEST PUSH2 0xEE8 DUP3 PUSH2 0xEA2 JUMP JUMPDEST DUP2 ADD DUP2 DUP2 LT PUSH8 0xFFFFFFFFFFFFFFFF DUP3 GT OR ISZERO PUSH2 0xF07 JUMPI PUSH2 0xF06 PUSH2 0xEB2 JUMP JUMPDEST JUMPDEST DUP1 PUSH1 0x40 MSTORE POP POP POP JUMP JUMPDEST PUSH0 PUSH2 0xF19 PUSH2 0xDD5 JUMP JUMPDEST SWAP1 POP PUSH2 0xF25 DUP3 DUP3 PUSH2 0xEDF JUMP JUMPDEST SWAP2 SWAP1 POP JUMP JUMPDEST PUSH0 PUSH8 0xFFFFFFFFFFFFFFFF DUP3 GT ISZERO PUSH2 0xF44 JUMPI PUSH2 0xF43 PUSH2 0xEB2 JUMP JUMPDEST JUMPDEST PUSH1 0x20 DUP3 MUL SWAP1 POP PUSH1 0x20 DUP2 ADD SWAP1 POP SWAP2 SWAP1 POP JUMP JUMPDEST PUSH0 DUP1 REVERT JUMPDEST PUSH0 PUSH2 0xF6B PUSH2 0xF66 DUP5 PUSH2 0xF2A JUMP JUMPDEST PUSH2 0xF10 JUMP JUMPDEST SWAP1 POP DUP1 DUP4 DUP3 MSTORE PUSH1 0x20 DUP3 ADD SWAP1 POP PUSH1 0x20 DUP5 MUL DUP4 ADD DUP6 DUP2 GT ISZERO PUSH2 0xF8E JUMPI PUSH2 0xF8D PUSH2 0xF55 JUMP JUMPDEST JUMPDEST DUP4 JUMPDEST DUP2 DUP2 LT ISZERO PUSH2 0xFB7 JUMPI DUP1 PUSH2 0xFA3 DUP9 DUP3 PUSH2 0xE8A JUMP JUMPDEST DUP5 MSTORE PUSH1 0x20 DUP5 ADD SWAP4 POP POP PUSH1 0x20 DUP2 ADD SWAP1 POP PUSH2 0xF90 JUMP JUMPDEST POP POP POP SWAP4 SWAP3 POP POP POP JUMP JUMPDEST PUSH0 DUP3 PUSH1 0x1F DUP4 ADD SLT PUSH2 0xFD5 JUMPI PUSH2 0xFD4 PUSH2 0xE9E JUMP JUMPDEST JUMPDEST DUP2 CALLDATALOAD PUSH2 0xFE5 DUP5 DUP3 PUSH1 0x20 DUP7 ADD PUSH2 0xF59 JUMP JUMPDEST SWAP2 POP POP SWAP3 SWAP2 POP POP JUMP JUMPDEST PUSH0 DUP1 PUSH0 PUSH1 0x60 DUP5 DUP7 SUB SLT ISZERO PUSH2 0x1005 JUMPI PUSH2 0x1004 PUSH2 0xDDE JUMP JUMPDEST JUMPDEST PUSH0 PUSH2 0x1012 DUP7 DUP3 DUP8 ADD PUSH2 0xE8A JUMP JUMPDEST SWAP4 POP POP PUSH1 0x20 DUP5 ADD CALLDATALOAD PUSH8 0xFFFFFFFFFFFFFFFF DUP2 GT ISZERO PUSH2 0x1033 JUMPI PUSH2 0x1032 PUSH2 0xDE2 JUMP JUMPDEST JUMPDEST PUSH2 0x103F DUP7 DUP3 DUP8 ADD PUSH2 0xFC1 JUMP JUMPDEST SWAP3 POP POP PUSH1 0x40 PUSH2 0x1050 DUP7 DUP3 DUP8 ADD PUSH2 0xE05 JUMP JUMPDEST SWAP2 POP POP SWAP3 POP SWAP3 POP SWAP3 JUMP JUMPDEST PUSH2 0x1063 DUP2 PUSH2 0xE63 JUMP JUMPDEST DUP3 MSTORE POP POP JUMP JUMPDEST PUSH0 PUSH1 0x20 DUP3 ADD SWAP1 POP PUSH2 0x107C PUSH0 DUP4 ADD DUP5 PUSH2 0x105A JUMP JUMPDEST SWAP3 SWAP2 POP POP JUMP JUMPDEST PUSH0 PUSH8 0xFFFFFFFFFFFFFFFF DUP3 GT ISZERO PUSH2 0x109C JUMPI PUSH2 0x109B PUSH2 0xEB2 JUMP JUMPDEST JUMPDEST PUSH1 0x20 DUP3 MUL SWAP1 POP PUSH1 0x20 DUP2 ADD SWAP1 POP SWAP2 SWAP1 POP JUMP JUMPDEST PUSH0 PUSH2 0x10B7 DUP3 PUSH2 0xE44 JUMP JUMPDEST SWAP1 POP SWAP2 SWAP1 POP JUMP JUMPDEST PUSH2 0x10C7 DUP2 PUSH2 0x10AD JUMP JUMPDEST DUP2 EQ PUSH2 0x10D1 JUMPI PUSH0 DUP1 REVERT JUMPDEST POP JUMP JUMPDEST PUSH0 DUP2 CALLDATALOAD SWAP1 POP PUSH2 0x10E2 DUP2 PUSH2 0x10BE JUMP JUMPDEST SWAP3 SWAP2 POP POP JUMP JUMPDEST PUSH0 PUSH2 0x10FA PUSH2 0x10F5 DUP5 PUSH2 0x1082 JUMP JUMPDEST PUSH2 0xF10 JUMP JUMPDEST SWAP1 POP DUP1 DUP4 DUP3 MSTORE PUSH1 0x20 DUP3 ADD SWAP1 POP PUSH1 0x20 DUP5 MUL DUP4 ADD DUP6 DUP2 GT ISZERO PUSH2 0x111D JUMPI PUSH2 0x111C PUSH2 0xF55 JUMP JUMPDEST JUMPDEST DUP4 JUMPDEST DUP2 DUP2 LT ISZERO PUSH2 0x1146 JUMPI DUP1 PUSH2 0x1132 DUP9 DUP3 PUSH2 0x10D4 JUMP JUMPDEST DUP5 MSTORE PUSH1 0x20 DUP5 ADD SWAP4 POP POP PUSH1 0x20 DUP2 ADD SWAP1 POP PUSH2 0x111F JUMP JUMPDEST POP POP POP SWAP4 SWAP3 POP POP POP JUMP JUMPDEST PUSH0 DUP3 PUSH1 0x1F DUP4 ADD SLT PUSH2 0x1164 JUMPI PUSH2 0x1163 PUSH2 0xE9E JUMP JUMPDEST JUMPDEST DUP2 CALLDATALOAD PUSH2 0x1174 DUP5 DUP3 PUSH1 0x20 DUP7 ADD PUSH2 0x10E8 JUMP JUMPDEST SWAP2 POP POP SWAP3 SWAP2 POP POP JUMP JUMPDEST PUSH0 PUSH8 0xFFFFFFFFFFFFFFFF DUP3 GT ISZERO PUSH2 0x1197 JUMPI PUSH2 0x1196 PUSH2 0xEB2 JUMP JUMPDEST JUMPDEST PUSH1 0x20 DUP3 MUL SWAP1 POP PUSH1 0x20 DUP2 ADD SWAP1 POP SWAP2 SWAP1 POP JUMP JUMPDEST PUSH0 PUSH2 0x11BA PUSH2 0x11B5 DUP5 PUSH2 0x117D JUMP JUMPDEST PUSH2 0xF10 JUMP JUMPDEST SWAP1 POP DUP1 DUP4 DUP3 MSTORE PUSH1 0x20 DUP3 ADD SWAP1 POP PUSH1 0x20 DUP5 MUL DUP4 ADD DUP6 DUP2 GT ISZERO PUSH2 0x11DD JUMPI PUSH2 0x11DC PUSH2 0xF55 JUMP JUMPDEST JUMPDEST DUP4 JUMPDEST DUP2 DUP2 LT ISZERO PUSH2 0x1206 JUMPI DUP1 PUSH2 0x11F2 DUP9 DUP3 PUSH2 0xE05 JUMP JUMPDEST DUP5 MSTORE PUSH1 0x20 DUP5 ADD SWAP4 POP POP PUSH1 0x20 DUP2 ADD SWAP1 POP PUSH2 0x11DF JUMP JUMPDEST POP POP POP SWAP4 SWAP3 POP POP POP JUMP JUMPDEST PUSH0 DUP3 PUSH1 0x1F DUP4 ADD SLT PUSH2 0x1224 JUMPI PUSH2 0x1223 PUSH2 0xE9E JUMP JUMPDEST JUMPDEST DUP2 CALLDATALOAD PUSH2 0x1234 DUP5 DUP3 PUSH1 0x20 DUP7 ADD PUSH2 0x11A8 JUMP JUMPDEST SWAP2 POP POP SWAP3 SWAP2 POP POP JUMP JUMPDEST PUSH0 DUP1 PUSH1 0x40 DUP4 DUP6 SUB SLT ISZERO PUSH2 0x1253 JUMPI PUSH2 0x1252 PUSH2 0xDDE JUMP JUMPDEST JUMPDEST PUSH0 DUP4 ADD CALLDATALOAD PUSH8 0xFFFFFFFFFFFFFFFF DUP2 GT ISZERO PUSH2 0x1270 JUMPI PUSH2 0x126F PUSH2 0xDE2 JUMP JUMPDEST JUMPDEST PUSH2 0x127C DUP6 DUP3 DUP7 ADD PUSH2 0x1150 JUMP JUMPDEST SWAP3 POP POP PUSH1 0x20 DUP4 ADD CALLDATALOAD PUSH8 0xFFFFFFFFFFFFFFFF DUP2 GT ISZERO PUSH2 0x129D JUMPI PUSH2 0x129C PUSH2 0xDE2 JUMP JUMPDEST JUMPDEST PUSH2 0x12A9 DUP6 DUP3 DUP7 ADD PUSH2 0x1210 JUMP JUMPDEST SWAP2 POP POP SWAP3 POP SWAP3 SWAP1 POP JUMP JUMPDEST PUSH0 DUP1 PUSH0 PUSH1 0x60 DUP5 DUP7 SUB SLT ISZERO PUSH2 0x12CA JUMPI PUSH2 0x12C9 PUSH2 0xDDE JUMP JUMPDEST JUMPDEST PUSH0 PUSH2 0x12D7 DUP7 DUP3 DUP8 ADD PUSH2 0xE8A JUMP JUMPDEST SWAP4 POP POP PUSH1 0x20 DUP5 ADD CALLDATALOAD PUSH8 0xFFFFFFFFFFFFFFFF DUP2 GT ISZERO PUSH2 0x12F8 JUMPI PUSH2 0x12F7 PUSH2 0xDE2 JUMP JUMPDEST JUMPDEST PUSH2 0x1304 DUP7 DUP3 DUP8 ADD PUSH2 0xFC1 JUMP JUMPDEST SWAP3 POP POP PUSH1 0x40 DUP5 ADD CALLDATALOAD PUSH8 0xFFFFFFFFFFFFFFFF DUP2 GT ISZERO PUSH2 0x1325 JUMPI PUSH2 0x1324 PUSH2 0xDE2 JUMP JUMPDEST JUMPDEST PUSH2 0x1331 DUP7 DUP3 DUP8 ADD PUSH2 0x1210 JUMP JUMPDEST SWAP2 POP POP SWAP3 POP SWAP3 POP SWAP3 JUMP JUMPDEST PUSH2 0x1344 DUP2 PUSH2 0xDE6 JUMP JUMPDEST DUP3 MSTORE POP POP JUMP JUMPDEST PUSH0 PUSH1 0x20 DUP3 ADD SWAP1 POP PUSH2 0x135D PUSH0 DUP4 ADD DUP5 PUSH2 0x133B JUMP JUMPDEST SWAP3 SWAP2 POP POP JUMP JUMPDEST PUSH0 DUP1 PUSH1 0x40 DUP4 DUP6 SUB SLT ISZERO PUSH2 0x1379 JUMPI PUSH2 0x1378 PUSH2 0xDDE JUMP JUMPDEST JUMPDEST PUSH0 DUP4 ADD CALLDATALOAD PUSH8 0xFFFFFFFFFFFFFFFF DUP2 GT ISZERO PUSH2 0x1396 JUMPI PUSH2 0x1395 PUSH2 0xDE2 JUMP JUMPDEST JUMPDEST PUSH2 0x13A2 DUP6 DUP3 DUP7 ADD PUSH2 0x1150 JUMP JUMPDEST SWAP3 POP POP PUSH1 0x20 PUSH2 0x13B3 DUP6 DUP3 DUP7 ADD PUSH2 0xE05 JUMP JUMPDEST SWAP2 POP POP SWAP3 POP SWAP3 SWAP1 POP JUMP JUMPDEST PUSH0 PUSH1 0x20 DUP3 DUP5 SUB SLT ISZERO PUSH2 0x13D2 JUMPI PUSH2 0x13D1 PUSH2 0xDDE JUMP JUMPDEST JUMPDEST PUSH0 PUSH2 0x13DF DUP5 DUP3 DUP6 ADD PUSH2 0xE8A JUMP JUMPDEST SWAP2 POP POP SWAP3 SWAP2 POP POP JUMP JUMPDEST PUSH0 DUP3 DUP3 MSTORE PUSH1 0x20 DUP3 ADD SWAP1 POP SWAP3 SWAP2 POP POP JUMP JUMPDEST PUSH32 0x4F776E61626C653A2063616C6C6572206973206E6F7420746865206F776E6572 PUSH0 DUP3 ADD MSTORE POP JUMP JUMPDEST PUSH0 PUSH2 0x142C PUSH1 0x20 DUP4 PUSH2 0x13E8 JUMP JUMPDEST SWAP2 POP PUSH2 0x1437 DUP3 PUSH2 0x13F8 JUMP JUMPDEST PUSH1 0x20 DUP3 ADD SWAP1 POP SWAP2 SWAP1 POP JUMP JUMPDEST PUSH0 PUSH1 0x20 DUP3 ADD SWAP1 POP DUP2 DUP2 SUB PUSH0 DUP4 ADD MSTORE PUSH2 0x1459 DUP2 PUSH2 0x1420 JUMP JUMPDEST SWAP1 POP SWAP2 SWAP1 POP JUMP JUMPDEST PUSH32 0x5472616E7366657220616D6F756E74206572726F720000000000000000000000 PUSH0 DUP3 ADD MSTORE POP JUMP JUMPDEST PUSH0 PUSH2 0x1494 PUSH1 0x15 DUP4 PUSH2 0x13E8 JUMP JUMPDEST SWAP2 POP PUSH2 0x149F DUP3 PUSH2 0x1460 JUMP JUMPDEST PUSH1 0x20 DUP3 ADD SWAP1 POP SWAP2 SWAP1 POP JUMP JUMPDEST PUSH0 PUSH1 0x20 DUP3 ADD SWAP1 POP DUP2 DUP2 SUB PUSH0 DUP4 ADD MSTORE PUSH2 0x14C1 DUP2 PUSH2 0x1488 JUMP JUMPDEST SWAP1 POP SWAP2 SWAP1 POP JUMP JUMPDEST PUSH32 0x4E487B7100000000000000000000000000000000000000000000000000000000 PUSH0 MSTORE PUSH1 0x32 PUSH1 0x4 MSTORE PUSH1 0x24 PUSH0 REVERT JUMPDEST PUSH32 0x5472616E73666572206C656E677468206572726F720000000000000000000000 PUSH0 DUP3 ADD MSTORE POP JUMP JUMPDEST PUSH0 PUSH2 0x1529 PUSH1 0x15 DUP4 PUSH2 0x13E8 JUMP JUMPDEST SWAP2 POP PUSH2 0x1534 DUP3 PUSH2 0x14F5 JUMP JUMPDEST PUSH1 0x20 DUP3 ADD SWAP1 POP SWAP2 SWAP1 POP JUMP JUMPDEST PUSH0 PUSH1 0x20 DUP3 ADD SWAP1 POP DUP2 DUP2 SUB PUSH0 DUP4 ADD MSTORE PUSH2 0x1556 DUP2 PUSH2 0x151D JUMP JUMPDEST SWAP1 POP SWAP2 SWAP1 POP JUMP JUMPDEST PUSH32 0x4E487B7100000000000000000000000000000000000000000000000000000000 PUSH0 MSTORE PUSH1 0x11 PUSH1 0x4 MSTORE PUSH1 0x24 PUSH0 REVERT JUMPDEST PUSH0 PUSH2 0x1594 DUP3 PUSH2 0xDE6 JUMP JUMPDEST SWAP2 POP PUSH2 0x159F DUP4 PUSH2 0xDE6 JUMP JUMPDEST SWAP3 POP DUP3 DUP3 ADD SWAP1 POP DUP1 DUP3 GT ISZERO PUSH2 0x15B7 JUMPI PUSH2 0x15B6 PUSH2 0x155D JUMP JUMPDEST JUMPDEST SWAP3 SWAP2 POP POP JUMP JUMPDEST PUSH32 0x4F776E61626C653A206E6577206F776E657220697320746865207A65726F2061 PUSH0 DUP3 ADD MSTORE PUSH32 0x6464726573730000000000000000000000000000000000000000000000000000 PUSH1 0x20 DUP3 ADD MSTORE POP JUMP JUMPDEST PUSH0 PUSH2 0x1617 PUSH1 0x26 DUP4 PUSH2 0x13E8 JUMP JUMPDEST SWAP2 POP PUSH2 0x1622 DUP3 PUSH2 0x15BD JUMP JUMPDEST PUSH1 0x40 DUP3 ADD SWAP1 POP SWAP2 SWAP1 POP JUMP JUMPDEST PUSH0 PUSH1 0x20 DUP3 ADD SWAP1 POP DUP2 DUP2 SUB PUSH0 DUP4 ADD MSTORE PUSH2 0x1644 DUP2 PUSH2 0x160B JUMP JUMPDEST SWAP1 POP SWAP2 SWAP1 POP JUMP JUMPDEST PUSH0 PUSH1 0x60 DUP3 ADD SWAP1 POP PUSH2 0x165E PUSH0 DUP4 ADD DUP7 PUSH2 0x105A JUMP JUMPDEST PUSH2 0x166B PUSH1 0x20 DUP4 ADD DUP6 PUSH2 0x105A JUMP JUMPDEST PUSH2 0x1678 PUSH1 0x40 DUP4 ADD DUP5 PUSH2 0x133B JUMP JUMPDEST SWAP5 SWAP4 POP POP POP POP JUMP JUMPDEST PUSH32 0x536166654D6174683A206164646974696F6E206F766572666C6F770000000000 PUSH0 DUP3 ADD MSTORE POP JUMP JUMPDEST PUSH0 PUSH2 0x16B4 PUSH1 0x1B DUP4 PUSH2 0x13E8 JUMP JUMPDEST SWAP2 POP PUSH2 0x16BF DUP3 PUSH2 0x1680 JUMP JUMPDEST PUSH1 0x20 DUP3 ADD SWAP1 POP SWAP2 SWAP1 POP JUMP JUMPDEST PUSH0 PUSH1 0x20 DUP3 ADD SWAP1 POP DUP2 DUP2 SUB PUSH0 DUP4 ADD MSTORE PUSH2 0x16E1 DUP2 PUSH2 0x16A8 JUMP JUMPDEST SWAP1 POP SWAP2 SWAP1 POP JUMP JUMPDEST PUSH0 PUSH2 0x16F2 DUP3 PUSH2 0xDE6 JUMP JUMPDEST SWAP2 POP PUSH2 0x16FD DUP4 PUSH2 0xDE6 JUMP JUMPDEST SWAP3 POP DUP3 DUP3 MUL PUSH2 0x170B DUP2 PUSH2 0xDE6 JUMP JUMPDEST SWAP2 POP DUP3 DUP3 DIV DUP5 EQ DUP4 ISZERO OR PUSH2 0x1722 JUMPI PUSH2 0x1721 PUSH2 0x155D JUMP JUMPDEST JUMPDEST POP SWAP3 SWAP2 POP POP JUMP JUMPDEST PUSH32 0x4E487B7100000000000000000000000000000000000000000000000000000000 PUSH0 MSTORE PUSH1 0x12 PUSH1 0x4 MSTORE PUSH1 0x24 PUSH0 REVERT JUMPDEST PUSH0 PUSH2 0x1760 DUP3 PUSH2 0xDE6 JUMP JUMPDEST SWAP2 POP PUSH2 0x176B DUP4 PUSH2 0xDE6 JUMP JUMPDEST SWAP3 POP DUP3 PUSH2 0x177B JUMPI PUSH2 0x177A PUSH2 0x1729 JUMP JUMPDEST JUMPDEST DUP3 DUP3 DIV SWAP1 POP SWAP3 SWAP2 POP POP JUMP JUMPDEST PUSH32 0x536166654D6174683A206D756C7469706C69636174696F6E206F766572666C6F PUSH0 DUP3 ADD MSTORE PUSH32 0x7700000000000000000000000000000000000000000000000000000000000000 PUSH1 0x20 DUP3 ADD MSTORE POP JUMP JUMPDEST PUSH0 PUSH2 0x17E0 PUSH1 0x21 DUP4 PUSH2 0x13E8 JUMP JUMPDEST SWAP2 POP PUSH2 0x17EB DUP3 PUSH2 0x1786 JUMP JUMPDEST PUSH1 0x40 DUP3 ADD SWAP1 POP SWAP2 SWAP1 POP JUMP JUMPDEST PUSH0 PUSH1 0x20 DUP3 ADD SWAP1 POP DUP2 DUP2 SUB PUSH0 DUP4 ADD MSTORE PUSH2 0x180D DUP2 PUSH2 0x17D4 JUMP JUMPDEST SWAP1 POP SWAP2 SWAP1 POP JUMP JUMPDEST PUSH0 DUP2 ISZERO ISZERO SWAP1 POP SWAP2 SWAP1 POP JUMP JUMPDEST PUSH2 0x1828 DUP2 PUSH2 0x1814 JUMP JUMPDEST DUP2 EQ PUSH2 0x1832 JUMPI PUSH0 DUP1 REVERT JUMPDEST POP JUMP JUMPDEST PUSH0 DUP2 MLOAD SWAP1 POP PUSH2 0x1843 DUP2 PUSH2 0x181F JUMP JUMPDEST SWAP3 SWAP2 POP POP JUMP JUMPDEST PUSH0 PUSH1 0x20 DUP3 DUP5 SUB SLT ISZERO PUSH2 0x185E JUMPI PUSH2 0x185D PUSH2 0xDDE JUMP JUMPDEST JUMPDEST PUSH0 PUSH2 0x186B DUP5 DUP3 DUP6 ADD PUSH2 0x1835 JUMP JUMPDEST SWAP2 POP POP SWAP3 SWAP2 POP POP JUMP JUMPDEST PUSH32 0x5361666545524332303A204552433230206F7065726174696F6E20646964206E PUSH0 DUP3 ADD MSTORE PUSH32 0x6F74207375636365656400000000000000000000000000000000000000000000 PUSH1 0x20 DUP3 ADD MSTORE POP JUMP JUMPDEST PUSH0 PUSH2 0x18CE PUSH1 0x2A DUP4 PUSH2 0x13E8 JUMP JUMPDEST SWAP2 POP PUSH2 0x18D9 DUP3 PUSH2 0x1874 JUMP JUMPDEST PUSH1 0x40 DUP3 ADD SWAP1 POP SWAP2 SWAP1 POP JUMP JUMPDEST PUSH0 PUSH1 0x20 DUP3 ADD SWAP1 POP DUP2 DUP2 SUB PUSH0 DUP4 ADD MSTORE PUSH2 0x18FB DUP2 PUSH2 0x18C2 JUMP JUMPDEST SWAP1 POP SWAP2 SWAP1 POP JUMP JUMPDEST PUSH32 0x416464726573733A20696E73756666696369656E742062616C616E636520666F PUSH0 DUP3 ADD MSTORE PUSH32 0x722063616C6C0000000000000000000000000000000000000000000000000000 PUSH1 0x20 DUP3 ADD MSTORE POP JUMP JUMPDEST PUSH0 PUSH2 0x195C PUSH1 0x26 DUP4 PUSH2 0x13E8 JUMP JUMPDEST SWAP2 POP PUSH2 0x1967 DUP3 PUSH2 0x1902 JUMP JUMPDEST PUSH1 0x40 DUP3 ADD SWAP1 POP SWAP2 SWAP1 POP JUMP JUMPDEST PUSH0 PUSH1 0x20 DUP3 ADD SWAP1 POP DUP2 DUP2 SUB PUSH0 DUP4 ADD MSTORE PUSH2 0x1989 DUP2 PUSH2 0x1950 JUMP JUMPDEST SWAP1 POP SWAP2 SWAP1 POP JUMP JUMPDEST PUSH32 0x416464726573733A2063616C6C20746F206E6F6E2D636F6E7472616374000000 PUSH0 DUP3 ADD MSTORE POP JUMP JUMPDEST PUSH0 PUSH2 0x19C4 PUSH1 0x1D DUP4 PUSH2 0x13E8 JUMP JUMPDEST SWAP2 POP PUSH2 0x19CF DUP3 PUSH2 0x1990 JUMP JUMPDEST PUSH1 0x20 DUP3 ADD SWAP1 POP SWAP2 SWAP1 POP JUMP JUMPDEST PUSH0 PUSH1 0x20 DUP3 ADD SWAP1 POP DUP2 DUP2 SUB PUSH0 DUP4 ADD MSTORE PUSH2 0x19F1 DUP2 PUSH2 0x19B8 JUMP JUMPDEST SWAP1 POP SWAP2 SWAP1 POP JUMP JUMPDEST PUSH0 DUP2 MLOAD SWAP1 POP SWAP2 SWAP1 POP JUMP JUMPDEST PUSH0 DUP2 SWAP1 POP SWAP3 SWAP2 POP POP JUMP JUMPDEST PUSH0 JUMPDEST DUP4 DUP2 LT ISZERO PUSH2 0x1A29 JUMPI DUP1 DUP3 ADD MLOAD DUP2 DUP5 ADD MSTORE PUSH1 0x20 DUP2 ADD SWAP1 POP PUSH2 0x1A0E JUMP JUMPDEST PUSH0 DUP5 DUP5 ADD MSTORE POP POP POP POP JUMP JUMPDEST PUSH0 PUSH2 0x1A3E DUP3 PUSH2 0x19F8 JUMP JUMPDEST PUSH2 0x1A48 DUP2 DUP6 PUSH2 0x1A02 JUMP JUMPDEST SWAP4 POP PUSH2 0x1A58 DUP2 DUP6 PUSH1 0x20 DUP7 ADD PUSH2 0x1A0C JUMP JUMPDEST DUP1 DUP5 ADD SWAP2 POP POP SWAP3 SWAP2 POP POP JUMP JUMPDEST PUSH0 PUSH2 0x1A6F DUP3 DUP5 PUSH2 0x1A34 JUMP JUMPDEST SWAP2 POP DUP2 SWAP1 POP SWAP3 SWAP2 POP POP JUMP JUMPDEST PUSH0 DUP2 MLOAD SWAP1 POP SWAP2 SWAP1 POP JUMP JUMPDEST PUSH0 PUSH2 0x1A8E DUP3 PUSH2 0x1A7A JUMP JUMPDEST PUSH2 0x1A98 DUP2 DUP6 PUSH2 0x13E8 JUMP JUMPDEST SWAP4 POP PUSH2 0x1AA8 DUP2 DUP6 PUSH1 0x20 DUP7 ADD PUSH2 0x1A0C JUMP JUMPDEST PUSH2 0x1AB1 DUP2 PUSH2 0xEA2 JUMP JUMPDEST DUP5 ADD SWAP2 POP POP SWAP3 SWAP2 POP POP JUMP JUMPDEST PUSH0 PUSH1 0x20 DUP3 ADD SWAP1 POP DUP2 DUP2 SUB PUSH0 DUP4 ADD MSTORE PUSH2 0x1AD4 DUP2 DUP5 PUSH2 0x1A84 JUMP JUMPDEST SWAP1 POP SWAP3 SWAP2 POP POP JUMP INVALID LOG2 PUSH5 0x6970667358 0x22 SLT KECCAK256 0xC SDIV CALLDATALOAD PUSH11 0x230AAB107FB3E458C9DED3 0xF8 0xE1 PUSH13 0x197D435F8CEC7DDE04139732B0 XOR PUSH5 0x736F6C6343 STOP ADDMOD XOR STOP CALLER "
				},
				"gasEstimates": {
					"creation": {
						"codeDepositCost": "1386000",
						"executionCost": "infinite",
						"totalCost": "infinite"
					},
					"external": {
						"fee()": "2469",
						"owner()": "2582",
						"renounceOwnership()": "30389",
						"setFee(uint256)": "24753",
						"transferETH(address[],uint256)": "infinite",
						"transferMultiETH(address[],uint256[])": "infinite",
						"transferMultiToken(address,address[],uint256[])": "infinite",
						"transferOwnership(address)": "30795",
						"transferToken(address,address[],uint256)": "infinite"
					}
				},
				"methodIdentifiers": {
					"fee()": "ddca3f43",
					"owner()": "8da5cb5b",
					"renounceOwnership()": "715018a6",
					"setFee(uint256)": "69fe0e2d",
					"transferETH(address[],uint256)": "ef2704f0",
					"transferMultiETH(address[],uint256[])": "addeb507",
					"transferMultiToken(address,address[],uint256[])": "b064478f",
					"transferOwnership(address)": "f2fde38b",
					"transferToken(address,address[],uint256)": "7a728217"
				}
			},
			"storageLayout": {
				"storage": [
					{
						"astId": 589,
						"contract": "contracts/MutilTransferDemo.sol:MutilTransfer",
						"label": "_owner",
						"offset": 0,
						"slot": "0",
						"type": "t_address"
					},
					{
						"astId": 877,
						"contract": "contracts/MutilTransferDemo.sol:MutilTransfer",
						"label": "fee",
						"offset": 0,
						"slot": "1",
						"type": "t_uint256"
					}
				],
				"types": {
					"t_address": {
						"encoding": "inplace",
						"label": "address",
						"numberOfBytes": "20"
					},
					"t_uint256": {
						"encoding": "inplace",
						"label": "uint256",
						"numberOfBytes": "32"
					}
				}
			},
			"userdoc": {
				"kind": "user",
				"methods": {},
				"version": 1
			}
		}
	}
}